:04000000A9EF00F074
:0E0008004882FACF65F0FBCF66F01BED10F0DA
:100018004880D8CF2FF0E8CF30F0E0CF31F0FACFDA
:1000280032F0FBCF33F0E9CF34F0EACF35F0E1CF4F
:1000380036F0E2CF37F0D9CF38F0DACF39F0F3CF56
:100048003AF0F4CF3BF0F6CF3CF0F7CF3DF0F8CFE5
:100058003EF0F5CF3FF0A4A0A4B201D045D032ECD9
:1000680012F00009D8B43ED0A70E226E000E236EFF
:10007800F4EC09F00001B505D8A40ED0A7C09DF096
:10008800A8C09EF0A9C09FF0AAC0A0F00001B5A129
:1000980002D0478201D04792060E0001A71900013D
:1000A800A8110001A9110001AA11D8A41BD0ABC046
:1000B80021F021501924446E44C022F0236A40C024
:1000C80024F041C025F002EC12F022C028F023C031
:1000D80029F0000E2B6EB40E2A6E73EC11F0285026
:1000E800446E4780A490A492A1A20BD0010E1126C1
:1000F800000E122213221422630EB36EC00EB26ECB
:10010800A1923FC0F5FF3EC0F8FF3DC0F7FF3CC0DD
:10011800F6FF3BC0F4FF3AC0F3FF39C0DAFF38C03E
:10012800D9FF37C0E2FF36C0E1FF35C0EAFF34C06F
:10013800E9FF33C0FBFF32C0FAFF31C0E0FF30C037
:10014800E8FF2FC0D8FF489010009CEF11F0000185
:100158007C6F00017C510001D8A458D00001772998
:10016800D8A454D00F01019773C078F074C079F007
:1001780075C07AF076C07BF0040E06D00001D890E6
:100188007B337A3379337833E82EF8D778C07DF02B
:1001980079C07EF07AC07FF07BC080F000017D518D
:1001A80000017D6F7E6B7F6B806B7DC000FF070E4B
:1001B8000001731500017D6F000E00017415000128
:1001C8007E6F000E0001751500017F6F000E0001A3
:1001D80076150001806F7DC078F07EC079F07FC011
:1001E8007AF080C07BF0050ED89000017837793717
:1001F8007A377B37E82EF8D778C07DF079C07EF063
:100208007AC07FF07BC080F07DC001FF00017C05D3
:10021800D8A458D000017729D8A454D00F01059745
:1002280073C078F074C079F075C07AF076C07BF04E
:10023800040E06D00001D8907B337A3379337833B3
:10024800E82EF8D778C07DF079C07EF07AC07FF0CC
:100258007BC080F000017D5100017D6F7E6B7F6B5C
:10026800806B7DC004FF070E0001731500017D6FD0
:10027800000E0001741500017E6F000E0001751557
:1002880000017F6F000E000176150001806F7DC0B0
:1002980078F07EC079F07FC07AF080C07BF0050EE0
:1002A800D8900001783779377A377B37E82EF8D736
:1002B80078C07DF079C07EF07AC07FF07BC080F096
:1002C8007DC005FF020E00017C19D8A458D000019A
:1002D8007729D8A454D00F01099773C078F074C057
:1002E80079F075C07AF076C07BF0040E06D0000174
:1002F800D8907B337A3379337833E82EF8D778C0BF
:100308007DF079C07EF07AC07FF07BC080F000017C
:100318007D5100017D6F7E6B7F6B806B7DC008FF18
:10032800070E0001731500017D6F000E00017415A2
:1003380000017E6F000E0001751500017F6F000E31
:10034800000176150001806F7DC078F07EC079F0DD
:100358007FC07AF080C07BF0050ED8900001783716
:1003680079377A377B37E82EF8D778C07DF079C0AF
:100378007EF07AC07FF07BC080F07DC009FF030E5D
:1003880000017C19D8A458D000017729D8A454D0EA
:100398000F010D9773C078F074C079F075C07AF0CA
:1003A80076C07BF0040E06D00001D8907B337A33F8
:1003B80079337833E82EF8D778C07DF079C07EF0AD
:1003C8007AC07FF07BC080F000017D5100017D6F15
:1003D8007E6B7F6B806B7DC00CFF070E0001731571
:1003E80000017D6F000E0001741500017E6F000E84
:1003F8000001751500017F6F000E000176150001E0
:10040800806F7DC078F07EC079F07FC07AF080C0C0
:100418007BF0050ED8900001783779377A377B372B
:10042800E82EF8D778C07DF079C07EF07AC07FF0EA
:100438007BC080F07DC00DFF040E00017C19D8A49C
:1004480058D000017729D8A454D00F01119773C050
:1004580078F074C079F075C07AF076C07BF0040E3D
:1004680006D00001D8907B337A3379337833E82E7D
:10047800F8D778C07DF079C07EF07AC07FF07BC075
:1004880080F000017D5100017D6F7E6B7F6B806B7A
:100498007DC010FF070E0001731500017D6F000E6F
:1004A8000001741500017E6F000E00017515000132
:1004B8007F6F000E000176150001806F7DC078F017
:1004C8007EC079F07FC07AF080C07BF0050ED890AE
:1004D8000001783779377A377B37E82EF8D778C034
:1004E8007DF079C07EF07AC07FF07BC080F07DC05F
:1004F80011FF050E00017C19D8A458D000017729F6
:10050800D8A454D00F01159773C078F074C079F04F
:1005180075C07AF076C07BF0040E06D00001D89042
:100528007B337A3379337833E82EF8D778C07DF087
:1005380079C07EF07AC07FF07BC080F000017D51E9
:1005480000017D6F7E6B7F6B806B7DC014FF070E93
:100558000001731500017D6F000E00017415000184
:100568007E6F000E0001751500017F6F000E0001FF
:1005780076150001806F7DC078F07EC079F07FC06D
:100588007AF080C07BF0050ED89000017837793773
:100598007A377B37E82EF8D778C07DF079C07EF0BF
:1005A8007AC07FF07BC080F07DC015FF00017C51D0
:1005B8000001D8A489D0F70E00017719D8A484D0F7
:1005C8000F0101870001735100017D6F7E6B7F6B06
:1005D800806B7DC003FF000E0001731500017D6F65
:1005E800FF0E0001741500017E6F000E00017515E5
:1005F80000017F6F000E000176150001806F7DC03D
:1006080078F07EC079F07FC07AF080C07BF079C046
:1006180078F07AC079F07BC07AF000017B6B78C003
:100628007DF079C07EF07AC07FF07BC080F07DC01D
:1006380002FF000175A103D00F01018102D00F0153
:100648000191000175A303D00F01018302D00F01AE
:100658000193000175A503D00F01018B02D00F0192
:10066800019B000175A703D00F01018D02D00F0176
:10067800019D000175A903D00F01018F02D00F0160
:10068800019F73C078F074C079F075C07AF076C0B5
:100698007BF0160E06D00001D8907B337A3379337D
:1006A8007833E82EF8D778C07DF079C07EF07AC02C
:1006B8007FF07BC080F000017D5100017D6F7E6B73
:1006C8007F6B806B7DC000FF00017C05D8A489D0BA
:1006D800F70E00017719D8A484D00F01058700010F
:1006E800735100017D6F7E6B7F6B806B7DC007FF50
:1006F800000E0001731500017D6FFF0E00017415D7
:1007080000017E6F000E0001751500017F6F000E5D
:10071800000176150001806F7DC078F07EC079F009
:100728007FC07AF080C07BF079C078F07AC079F029
:100738007BC07AF000017B6B78C07DF079C07EF0D9
:100748007AC07FF07BC080F07DC006FF000175A1F4
:1007580003D00F01058102D00F010591000175A397
:1007680003D00F01058302D00F010593000175A581
:1007780003D00F01058B02D00F01059B000175A75F
:1007880003D00F01058D02D00F01059D000175A949
:1007980003D00F01058F02D00F01059F73C078F0B9
:1007A80074C079F075C07AF076C07BF0160E06D06A
:1007B8000001D8907B337A3379337833E82EF8D731
:1007C80078C07DF079C07EF07AC07FF07BC080F081
:1007D80000017D5100017D6F7E6B7F6B806B7DC05A
:1007E80004FF020E00017C19D8A489D0F70E00017D
:1007F8007719D8A484D00F0109870001735100012B
:100808007D6F7E6B7F6B806B7DC00BFF000E0001E0
:10081800731500017D6FFF0E0001741500017E6FD6
:10082800000E0001751500017F6F000E000176159E
:100838000001806F7DC078F07EC079F07FC07AF0CB
:1008480080C07BF079C078F07AC079F07BC07AF00C
:1008580000017B6B78C07DF079C07EF07AC07FF0B4
:100868007BC080F07DC00AFF000175A103D00F0195
:10087800098102D00F010991000175A303D00F016E
:10088800098302D00F010993000175A503D00F0158
:10089800098B02D00F01099B000175A703D00F0136
:1008A800098D02D00F01099D000175A903D00F0120
:1008B800098F02D00F01099F73C078F074C079F0D6
:1008C80075C07AF076C07BF0160E06D00001D8907D
:1008D8007B337A3379337833E82EF8D778C07DF0D4
:1008E80079C07EF07AC07FF07BC080F000017D5136
:1008F80000017D6F7E6B7F6B806B7DC008FF030EF0
:1009080000017C19D8A489D0F70E00017719D8A462
:1009180084D00F010D870001735100017D6F7E6B3C
:100928007F6B806B7DC00FFF000E00017315000107
:100938007D6FFF0E0001741500017E6F000E00012F
:10094800751500017F6F000E000176150001806F9C
:100958007DC078F07EC079F07FC07AF080C07BF0EF
:1009680079C078F07AC079F07BC07AF000017B6BAF
:1009780078C07DF079C07EF07AC07FF07BC080F0CF
:100988007DC00EFF000175A103D00F010D8102D0BB
:100998000F010D91000175A303D00F010D8302D043
:1009A8000F010D93000175A503D00F010D8B02D027
:1009B8000F010D9B000175A703D00F010D8D02D00B
:1009C8000F010D9D000175A903D00F010D8F02D0F5
:1009D8000F010D9F73C078F074C079F075C07AF07C
:1009E80076C07BF0160E06D00001D8907B337A33A0
:1009F80079337833E82EF8D778C07DF079C07EF067
:100A08007AC07FF07BC080F000017D5100017D6FCE
:100A18007E6B7F6B806B7DC00CFF040E00017C1920
:100A2800D8A489D0F70E00017719D8A484D00F0173
:100A380011870001735100017D6F7E6B7F6B806BA6
:100A48007DC013FF000E0001731500017D6FFF0EBE
:100A58000001741500017E6F000E0001751500017C
:100A68007F6F000E000176150001806F7DC078F061
:100A78007EC079F07FC07AF080C07BF079C078F0D2
:100A88007AC079F07BC07AF000017B6B78C07DF08A
:100A980079C07EF07AC07FF07BC080F07DC012FF05
:100AA800000175A103D00F01118102D00F0111912E
:100AB800000175A303D00F01118302D00F01119318
:100AC800000175A503D00F01118B02D00F01119BF6
:100AD800000175A703D00F01118D02D00F01119DE0
:100AE800000175A903D00F01118F02D00F01119FCA
:100AF80073C078F074C079F075C07AF076C07BF076
:100B0800160E06D00001D8907B337A3379337833C8
:100B1800E82EF8D778C07DF079C07EF07AC07FF0F3
:100B28007BC080F000017D5100017D6F7E6B7F6B83
:100B3800806B7DC010FF050E00017C19D8A412003F
:100B4800F70E00017719D8A412000F0115870001CC
:100B5800735100017D6F7E6B7F6B806B7DC017FFCB
:100B6800000E0001731500017D6FFF0E0001741562
:100B780000017E6F000E0001751500017F6F000EE9
:100B8800000176150001806F7DC078F07EC079F095
:100B98007FC07AF080C07BF079C078F07AC079F0B5
:100BA8007BC07AF000017B6B78C07DF079C07EF065
:100BB8007AC07FF07BC080F07DC016FF000175A170
:100BC80003D00F01158102D00F011591000175A303
:100BD80003D00F01158302D00F011593000175A5ED
:100BE80003D00F01158B02D00F01159B000175A7CB
:100BF80003D00F01158D02D00F01159D000175A9B5
:100C080003D00F01158F02D00F01159F73C078F024
:100C180074C079F075C07AF076C07BF0160E06D0F5
:100C28000001D8907B337A3379337833E82EF8D7BC
:100C380078C07DF079C07EF07AC07FF07BC080F00C
:100C480000017D5100017D6F7E6B7F6B806B7DC0E5
:100C580014FF12000F0140B73FD179C045FF0001D2
:100C68007AAD03D00F01458D02D00F01459D0001DB
:100C78007AA779D00001735100017F6F806B816B77
:100C8800826B7FC044FF000E0001731500017F6F67
:100C9800FF0E000174150001806F000E000175152C
:100CA8000001816F000E000176150001826F7FC080
:100CB8007BF080C07CF081C07DF082C07EF07CC07B
:100CC8007BF07DC07CF07EC07DF000017E6B7BC038
:100CD8007FF07CC080F07DC081F07EC082F07FC054
:100CE80043FF000E0F01426F0F014287000175A1FB
:100CF80002D00F014281000175A302D00F01428387
:100D0800000175A502D00F01428B000175A702D022
:100D18000F01428D000175A902D00F01428F73C0E7
:100D28007BF074C07CF075C07DF076C07EF0160E46
:100D380006D00001D8907E337D337C337B33E82E98
:100D4800F8D77BC07FF07CC080F07DC081F07EC08A
:100D580082F000017F5100017F6F806B816B826B95
:100D68007FC041FF59D00F01429773C07BF074C018
:100D78007CF075C07DF076C07EF0040E06D00001D0
:100D8800D8907E337D337C337B33E82EF8D77BC015
:100D98007FF07CC080F07DC081F07EC082F00001D1
:100DA8007F5100017F6F806B816B826B7FC041FF39
:100DB800070E0001731500017F6F000E0001741506
:100DC8000001806F000E000175150001816F000E93
:100DD800000176150001826F7FC07BF080C07CF037
:100DE80081C07DF082C07EF0050ED89000017B376F
:100DF8007C377D377E37E82EF8D77BC07FF07CC004
:100E080080F07DC081F07EC082F00F0142511F0B3F
:100E18000F01426F7FC042FF00017AA103D00F018A
:100E2800408102D00F01409100017AA303D00F0145
:100E3800408302D00F01409377C0D9FF78C0DAFF12
:100E4800DF500F01466F000120EE01F07751D926DF
:100E58007851DA22DF500F01476F000120EE02F0CF
:100E68007751D9267851DA22DF500F01486F0001F7
:100E780020EE03F07751D9267851DA22DF500F019E
:100E8800496F000120EE04F07751D9267851DA2213
:100E9800DF500F014A6F000120EE05F07751D92687
:100EA8007851DA22DF500F014B6F000120EE06F077
:100EB8007751D9267851DA22DF500F014C6F0001A3
:100EC80020EE07F07751D9267851DA22DF500F014A
:100ED8004D6F0F01408712000F0130B73FD179C025
:100EE80035FF00017AAD03D00F01358D02D00F0117
:100EF800359D00017AA779D00001735100017F6FF9
:100F0800806B816B826B7FC034FF000E000173150C
:100F180000017F6FFF0E000174150001806F000E45
:100F2800000175150001816F000E000176150001A2
:100F3800826F7FC07BF080C07CF081C07DF082C072
:100F48007EF07CC07BF07DC07CF07EC07DF000012F
:100F58007E6B7BC07FF07CC080F07DC081F07EC05E
:100F680082F07FC033FF000E0F01326F0F0132870E
:100F7800000175A102D00F013281000175A302D0D2
:100F88000F013283000175A502D00F01328B0001D9
:100F980075A702D00F01328D000175A902D00F018B
:100FA800328F73C07BF074C07CF075C07DF076C062
:100FB8007EF0160E06D00001D8907E337D337C3348
:100FC8007B33E82EF8D77BC07FF07CC080F07DC0F3
:100FD80081F07EC082F000017F5100017F6F806B3D
:100FE800816B826B7FC031FF59D00F01329773C07C
:100FF8007BF074C07CF075C07DF076C07EF0040E86
:1010080006D00001D8907E337D337C337B33E82EC5
:10101800F8D77BC07FF07CC080F07DC081F07EC0B7
:1010280082F000017F5100017F6F806B816B826BC2
:101038007FC031FF070E0001731500017F6F000E9E
:10104800000174150001806F000E00017515000184
:10105800816F000E000176150001826F7FC07BF062
:1010680080C07CF081C07DF082C07EF0050ED890F3
:1010780000017B377C377D377E37E82EF8D77BC079
:101088007FF07CC080F07DC081F07EC082F00F01CF
:1010980032511F0B0F01326F7FC032FF00017AA15E
:1010A80003D00F01308102D00F01309100017AA3E3
:1010B80003D00F01308302D00F01309377C0D9FFDE
:1010C80078C0DAFFDF500F01366F000120EE01F023
:1010D8007751D9267851DA22DF500F01376F000196
:1010E80020EE02F07751D9267851DA22DF500F012D
:1010F800386F000120EE03F07751D9267851DA22B3
:10110800DF500F01396F000120EE04F07751D92626
:101118007851DA22DF500F013A6F000120EE05F016
:101128007751D9267851DA22DF500F013B6F000141
:1011380020EE06F07751D9267851DA22DF500F01D8
:101148003C6F000120EE07F07751D9267851DA225A
:10115800DF500F013D6F0F01308712000F0120B7DC
:10116800120079C025FF00017AAD03D00F01258D4B
:1011780002D00F01259D00017AA779D00001735193
:1011880000017F6F806B816B826B7FC024FF000E34
:101198000001731500017F6FFF0E00017415000137
:1011A800806F000E000175150001816F000E0001AF
:1011B80076150001826F7FC07BF080C07CF081C013
:1011C8007DF082C07EF07CC07BF07DC07CF07EC06C
:1011D8007DF000017E6B7BC07FF07CC080F07DC01D
:1011E80081F07EC082F07FC023FF000E0F01226FC6
:1011F8000F012287000175A102D00F012281000191
:1012080075A302D00F012283000175A502D00F013A
:10121800228B000175A702D00F01228D000175A94C
:1012280002D00F01228F73C07BF074C07CF075C0B0
:101238007DF076C07EF0160E06D00001D8907E3381
:101248007D337C337B33E82EF8D77BC07FF07CC0BE
:1012580080F07DC081F07EC082F000017F510001E6
:101268007F6F806B816B826B7FC021FF59D00F012C
:10127800229773C07BF074C07CF075C07DF076C097
:101288007EF0040E06D00001D8907E337D337C3387
:101298007B33E82EF8D77BC07FF07CC080F07DC020
:1012A80081F07EC082F000017F5100017F6F806B6A
:1012B800816B826B7FC021FF070E0001731500014F
:1012C8007F6F000E000174150001806F000E000191
:1012D80075150001816F000E000176150001826FFF
:1012E8007FC07BF080C07CF081C07DF082C07EF042
:1012F800050ED89000017B377C377D377E37E82E86
:10130800F8D77BC07FF07CC080F07DC081F07EC0C4
:1013180082F00F0122511F0B0F01226F7FC022FFA5
:1013280000017AA103D00F01208102D00F01209182
:1013380000017AA303D00F01208302D00F0120936C
:1013480077C0D9FF78C0DAFFDF500F01266F0001A0
:1013580020EE01F07751D9267851DA22DF500F01BB
:10136800276F000120EE02F07751D9267851DA2252
:10137800DF500F01286F000120EE03F07751D926C6
:101388007851DA22DF500F01296F000120EE04F0B6
:101398007751D9267851DA22DF500F012A6F0001E0
:1013A80020EE05F07751D9267851DA22DF500F0167
:1013B8002B6F000120EE06F07751D9267851DA22FA
:1013C800DF500F012C6F000120EE07F07751D9266E
:1013D8007851DA22DF500F012D6F0F01208712009C
:1013E800000E2C6E74BE2C8074BC2C820F0150AF82
:1013F80043D122C0D9FF23C0DAFFDE6ADE6ADE6A83
:10140800DD6A20EE04F02250D9262350DA2256CF86
:10141800DFFF20EE05F02250D9262350DA2257CFDD
:10142800DFFF20EE06F02250D9262350DA2258CFCB
:10143800DFFF20EE07F02250D9262350DA2259CFB9
:10144800DFFF20EE08F02250D9262350DA225ACFA7
:10145800DFFF20EE09F02250D9262350DA225BCF95
:10146800DFFF20EE0AF02250D9262350DA225CCF83
:10147800DFFF20EE0BF02250D9262350DA225DCF71
:10148800DFFF20EE0EF02250D9262350DA220F017A
:1014980055AD02D0010E01D0000EDF6E20EE0DF02A
:1014A8002250D9262350DA220F0155510F0BDF6E37
:1014B80020EE0CF02250D9262350DA220F0152A731
:1014C80002D0010E01D0000EDF6E0F0152B744D0DA
:1014D80051CF24F0256A266A276A030ED89024364D
:1014E800253626362736E82EF9D722C0D9FF23C05D
:1014F800DAFF24C0DEFF25C0DEFF26C0DEFF27C0DE
:10150800DEFF0F015239E842070B070B2D6E22C090
:10151800D9FF23C0DAFFDECF24F0DECF25F0DECFFF
:1015280026F0DECF27F02D502424286E000E25202B
:10153800296E000E26202A6E000E27202B6E22C050
:10154800D9FF23C0DAFF28C0DEFF29C0DEFF2AC08A
:10155800DEFF2BC0DEFF8DD054CF24F0256A266A2B
:10156800276A22C0D9FF23C0DAFF24C0DEFF25C0C6
:10157800DEFF26C0DEFF27C0DEFF53CF24F0256A3A
:10158800266A276A26C027F025C026F024C025F041
:10159800246A22C0D9FF23C0DAFF2450DE26255052
:1015A800DE222650DE222750DE220F0152A10CD067
:1015B80022C0D9FF23C0DAFF000EDE12000EDE12B1
:1015C800010EDE12000EDE120F0152A30CD022C053
:1015D800D9FF23C0DAFF000EDE12000EDE12020E63
:1015E800DE12000EDE120F0152AB0CD022C0D9FF62
:1015F80023C0DAFF000EDE12000EDE12040EDE1229
:10160800000EDE120F0152AD0CD022C0D9FF23C04C
:10161800DAFF000EDE12000EDE12080EDE12000ED9
:10162800DE120F0152AF0CD022C0D9FF23C0DAFF5F
:10163800000EDE12000EDE12100EDE12000EDE129A
:1016480051CF24F0256A266A276A150ED8902436C9
:10165800253626362736E82EF9D722C0D9FF23C0EB
:10166800DAFF2450DE122550DE122650DE122750F3
:10167800DE120F01509F120060AE120022C0D9FF87
:1016880023C0DAFFDE6ADE6ADE6ADD6A20EE04F075
:101698002250D9262350DA2266CFDFFF20EE05F04C
:1016A8002250D9262350DA2267CFDFFF20EE06F03A
:1016B8002250D9262350DA2268CFDFFF20EE07F028
:1016C8002250D9262350DA2269CFDFFF20EE08F016
:1016D8002250D9262350DA226ACFDFFF20EE09F004
:1016E8002250D9262350DA226BCFDFFF20EE0AF0F2
:1016F8002250D9262350DA226CCFDFFF20EE0BF0E0
:101708002250D9262350DA226DCFDFFF20EE0EF0CB
:101718002250D9262350DA2265AC02D0010E01D01E
:10172800000EDF6E20EE0DF02250D9262350DA226B
:1017380065500F0BDF6E20EE0CF02250D926235097
:10174800DA2262A602D0010E01D0000EDF6E62B668
:1017580043D061CF24F0256A266A276A030ED89001
:101768002436253626362736E82EF9D722C0D9FF63
:1017780023C0DAFF24C0DEFF25C0DEFF26C0DEFF5F
:1017880027C0DEFF6238E842070B070B2D6E22C028
:10179800D9FF23C0DAFFDECF24F0DECF25F0DECF7D
:1017A80026F0DECF27F02D502424286E000E2520A9
:1017B800296E000E26202A6E000E27202B6E22C0CE
:1017C800D9FF23C0DAFF28C0DEFF29C0DEFF2AC008
:1017D800DEFF2BC0DEFF88D064CF24F0256A266A9E
:1017E800276A22C0D9FF23C0DAFF24C0DEFF25C044
:1017F800DEFF26C0DEFF27C0DEFF63CF24F0256AA8
:10180800266A276A26C027F025C026F024C025F0BE
:10181800246A22C0D9FF23C0DAFF2450DE262550CF
:10182800DE222650DE222750DE2262A00CD022C003
:10183800D9FF23C0DAFF000EDE12000EDE12010E01
:10184800DE12000EDE1262A20CD022C0D9FF23C025
:10185800DAFF000EDE12000EDE12020EDE12000E9D
:10186800DE1262AA0CD022C0D9FF23C0DAFF000E14
:10187800DE12000EDE12040EDE12000EDE1262AC64
:101888000CD022C0D9FF23C0DAFF000EDE12000EF2
:10189800DE12080EDE12000EDE1262AE0CD022C07E
:1018A800D9FF23C0DAFF000EDE12000EDE12100E82
:1018B800DE12000EDE1261CF24F0256A266A276A3E
:1018C800150ED8902436253626362736E82EF9D731
:1018D80022C0D9FF23C0DAFF2450DE122550DE12C1
:1018E8002650DE122750DE12609E120000017C6F27
:1018F80000017C05D8A456D000017729D8A452D07D
:1019080073C078F074C079F075C07AF076C07BF057
:10191800040E06D00001D8907B337A3379337833BC
:10192800E82EF8D778C07DF079C07EF07AC07FF0D5
:101938007BC080F000017D5100017D6F7E6B7F6B65
:10194800806B7DC018FF070E0001731500017D6FC5
:10195800000E0001741500017E6F000E0001751560
:1019680000017F6F000E000176150001806F7DC0B9
:1019780078F07EC079F07FC07AF080C07BF0050EE9
:10198800D8900001783779377A377B37E82EF8D73F
:1019980078C07DF079C07EF07AC07FF07BC080F09F
:1019A8007DC019FF020E00017C19D8A456D0000191
:1019B8007729D8A452D073C078F074C079F075C074
:1019C8007AF076C07BF0040E06D00001D8907B3305
:1019D8007A3379337833E82EF8D778C07DF079C038
:1019E8007EF07AC07FF07BC080F000017D5100015D
:1019F8007D6F7E6B7F6B806B7DC01CFF070E0001C7
:101A0800731500017D6F000E0001741500017E6FD3
:101A1800000E0001751500017F6F000E000176159C
:101A28000001806F7DC078F07EC079F07FC07AF0C9
:101A380080C07BF0050ED8900001783779377A3767
:101A48007B37E82EF8D778C07DF079C07EF07AC071
:101A58007FF07BC080F07DC01DFF00017C05D8A40D
:101A680087D0F70E00017719D8A482D000017351EE
:101A780000017D6F7E6B7F6B806B7DC01BFF000E4E
:101A88000001731500017D6FFF0E00017415000140
:101A98007E6F000E0001751500017F6F000E0001BA
:101AA80076150001806F7DC078F07EC079F07FC028
:101AB8007AF080C07BF079C078F07AC079F07BC08A
:101AC8007AF000017B6B78C07DF079C07EF07AC037
:101AD8007FF07BC080F07DC01AFF000175A103D0A4
:101AE8000F01198102D00F011991000175A303D0CC
:101AF8000F01198302D00F011993000175A503D0B6
:101B08000F01198B02D00F01199B000175A703D093
:101B18000F01198D02D00F01199D000175A903D07D
:101B28000F01198F02D00F01199F73C078F074C08C
:101B380079F075C07AF076C07BF0160E06D00001F9
:101B4800D8907B337A3379337833E82EF8D778C056
:101B58007DF079C07EF07AC07FF07BC080F0000114
:101B68007D5100017D6F7E6B7F6B806B7DC018FFA0
:101B7800020E00017C19D8A41200F70E0001771993
:101B8800D8A412000001735100017D6F7E6B7F6B3A
:101B9800806B7DC01FFF000E0001731500017D6F73
:101BA800FF0E0001741500017E6F000E000175150F
:101BB80000017F6F000E000176150001806F7DC067
:101BC80078F07EC079F07FC07AF080C07BF079C071
:101BD80078F07AC079F07BC07AF000017B6B78C02E
:101BE8007DF079C07EF07AC07FF07BC080F07DC048
:101BF8001EFF000175A103D00F011D8102D00F0146
:101C08001D91000175A303D00F011D8302D00F01A0
:101C18001D93000175A503D00F011D8B02D00F0184
:101C28001D9B000175A703D00F011D8D02D00F0168
:101C38001D9D000175A903D00F011D8F02D00F0152
:101C48001D9F73C078F074C079F075C07AF076C0C3
:101C58007BF0160E06D00001D8907B337A337933A7
:101C68007833E82EF8D778C07DF079C07EF07AC056
:101C78007FF07BC080F000017D5100017D6F7E6B9D
:101C88007F6B806B7DC01CFF120000018A6F800E85
:101C980027EC12F0000E706E000E716E000E726E60
:101CA80000018341E842C00B0001836F00018351AA
:101CB800701200018451701200018A5171120001E2
:101CC8008139E842F80B0001816F000181517112DE
:101CD800000185A5718C000185B1718E00018251CA
:101CE8007212000185B3728C00018551600B606E21
:101CF80000018551100BFF0AD8B4608460CF50FFF3
:101D0800000E0001736F000E746F000E756F000EE9
:101D1800766FF70E0001776F010E7AEC0CF0000E6B
:101D28000001736F000E746F000E756F000E766FF2
:101D3800F70E0001776F020E7AEC0CF00FD0F70E59
:101D480000018B6F07D000018B6900018C6928D0D6
:101D580000018B69F70E00018C6F22D09F0E0001E5
:101D6800866FFF0E0001876F00018551600B00012F
:101D7800886F896B00018651000188130001875123
:101D88000001891300018951000AD8A4E1D7000194
:101D98008851BF0AD8B4D7D7600AD8B4D0D7D8D713
:101DA800000E0001736F000E746F000E756F000E49
:101DB800766F8BC077F0000EABEC00F0000E0001E0
:101DC800736F000E746F000E756F000E766F8BC008
:101DD80077F0010EABEC00F0000E0001736F000EFF
:101DE800746F000E756F000E766F8CC077F0020E60
:101DF800ABEC00F0000E0001736F000E746F000E64
:101E0800756F000E766F8CC077F0030EABEC00F0A8
:101E1800000E0001736F000E746F000E756F000ED8
:101E2800766F8CC077F0040EABEC00F0000E00016A
:101E3800736F000E746F000E756F000E766F8CC096
:101E480077F0050EABEC00F0000E27EC12F0120054
:101E580076EC10F0C0EC11F044500001996F9A6BC9
:101E68009B6B9C6B82B0F6D799C073F09AC074F0E4
:101E78009BC075F09CC076F0BC0E0001776F020E17
:101E8800786F000E796F000E7A6F38EC11F073C01E
:101E98007FF074C080F075C081F076C082F05A0E71
:101EA8000001836F000E846F000E856F000E866F31
:101EB800BDEC0FF0D89000017F3500018D6F000157
:101EC800803500018E6F0001813500018F6F0001A0
:101ED80082350001906F400E00018D250001A16F31
:101EE800060E00018E210001A26F000E00018F2155
:101EF8000001A36F000E000190210001A46FA1C092
:101F08008DF0A2C08EF000018D1F8E1F8D4B8E2B81
:101F18008DC017F08EC018F0A1C08DF0A2C08EF051
:101F2800A3C08FF0A4C090F00001D89090338F33F5
:101F38008E338D3300018D1F8E1F8D4B8E2B200EFF
:101F480000018D25156E4E0E00018E21166E15C0EE
:101F58008DF016C08EF0D89000018D378E370001B5
:101F68008D1F8E1F8D4B8E2B8DC015F08EC016F0D9
:101F780071D7000E0001876F000E886F000E896F01
:101F8800000E8A6F00018351000184110001851140
:101F980000018611D8B442D0010E00018B6F08D021
:101FA8000001D890833784378537863700018B2B1B
:101FB800000186AFF5D70001D89087378837893771
:101FC8008A370001835100017F5D000184510001BF
:101FD8008059000185510001815900018651000195
:101FE8008259D8A012D00001835100017F5F0001FF
:101FF80084510001805B000185510001815B000173
:1020080086510001825B000187810001D8908633E8
:1020180085338433833300018B2FCDD787C07FF07E
:1020280088C080F089C081F08AC082F01200060062
:10203800E9CF67F0EACF68F0E1CF69F0E2CF6AF064
:10204800D9CF6BF0DACF6CF0F3CF6DF0F4CF6EF040
:10205800F6CF6FF0F7CF70F0F8CF71F0F5CF72F0E0
:1020680047A021D082A002D0010E01D0000EFF0AA5
:102078000001646F825000016419FE0B6419826EBE
:10208800D59E82A007D017C060F018C061F046EC5A
:1020980012F0D58E82B007D015C060F016C061F07E
:1020A80046EC12F0D58EF29472C0F5FF71C0F8FFBD
:1020B80070C0F7FF6FC0F6FF6EC0F4FF6DC0F3FF8E
:1020C8006CC0DAFF6BC0D9FF6AC0E2FF69C0E1FFEC
:1020D80068C0EAFF67C0E9FF66C0FBFF65C0FAFF9A
:1020E80048921100060E0001816F050E0001826FF3
:1020F800010E0001836F030E0001846F9D0E000125
:10210800856F040E49EC0EF0A492A490F294A1926B
:10211800A592A590F184A292D08EA382A380F28A80
:10212800A082F28EF28C800ED56E630EB36EC00E56
:10213800B26E010EB16E0C0E0001736FFD0E000140
:10214800746FDD0EBEEC10F0D58E8290000E896E95
:10215800FC0E926E000E8A6EFB0E936E000E8B6E56
:10216800000E946E000E8C6E000E956E000E8D6E35
:10217800966812000001776F000EC26E000EC06EE6
:102188000001D89073313C0BC26E73C075F000012A
:10219800753BF00E7517300E00017517000174516C
:1021A8000F0B00017511C16E77C075F00001D89052
:1021B80075370001D8907537380E0001751777C04C
:1021C80076F00001763B0F0E7617070E00017617A2
:1021D80000017751800B0001761100017511C06E66
:1021E800000173AF03D09E9C9D8CF28CC2801200BC
:1021F800000E0001786F000E776F00017551000125
:102208007611D8B42CD0010E0001796F06D00001E8
:10221800D890753776370001792B000176AFF7D75C
:102228000001D89077377837000175510001735D48
:102238000001765100017459D8A00AD000017551E7
:102248000001735F000176510001745B0001778122
:102258000001D890763375330001792FE1D777C024
:1022680073F078C074F01200000E00017B6F000E4E
:102278007C6F000E7D6F000E7E6F000173A110D081
:102288000001775100017B270001785100017C2370
:102298000001795100017D2300017A5100017E235C
:1022A8000001D8907737783779377A370001D89096
:1022B800763375337433733300017351000174112D
:1022C8000001751100017611D8A4D7D77BC073F02F
:1022D8007CC074F07DC075F07EC076F01200000EF0
:1022E8002D6E000E2C6E2A502B10D8B41CD0010E67
:1022F8002E6E04D0D8902A362B362E2A2BAEFAD73B
:10230800D8902C362D362A50285C2B502958D8A026
:1023180005D02A50285E2B50295A2C80D8902B3271
:102328002A322E2EEDD72CC028F02DC029F012000D
:1023380000EE91F02D0EEE6AE806FDE1476A00EE28
:1023480001F0210EEE6AE806FDE1C20EF66E240EDB
:10235800F76E000EF86E00EE40F010EE07F0090080
:10236800F5CFEEFFE550E150FAE148904892000EB3
:10237800F86E00012CEF0FF065EC12F04FEC12F044
:102388000009D8A4FBD73DEC12F073C0A5F074C0C7
:10239800A6F0010E0001A5250001736FFE0E0001D5
:1023A800A6210001746F000E0001766F2D0E756F67
:1023B800FCEC10F073C019F074C01AF0120015ECA0
:1023C80012F00009D8B4120047A216D09DC073F0CD
:1023D8009EC074F09FC075F0A0C076F0B60E0001E4
:1023E800776F000E0001786F080E0001796FBC0E40
:1023F80000017A6F2EEC06F0479212002250240258
:10240800F3CF26F0F4CF27F022502502F3502726E9
:1024180023502402F350272626C022F027C023F099
:102428001200010E0001736F0F0140A709D00F01C0
:1024380030A706D00F0120A703D0000E0001736F4C
:102448000001735112000001736F73C06FFF6E506B
:10245800E00B00017319D8B41200F9D7010E226EEF
:1024680060BE05D00F0150BF02D0000E226E225070
:102478001200C4500001756FC3500001736F75C01E
:1024880074F0120060C062F061C063F063C0D7FFEF
:1024980062C0D6FF1200C2A202D0010E1200000EC6
:1024A800120074A402D0010E1200000E120074A2D1
:1024B80002D0010E1200000E120078000200B414BF
:0624C8000100C2821200B7
:020000040020DA
:08000000FFFFFFFFFFFFFFFF00
:020000040030CA
:0E000000FF021F1EFF8281FF0FC00FE00F40A6
:00000001FF
