:04000000C1EF00F05C
:0E0008004682FACF65F0FBCF66F093ED13F061
:100018004680D8CF12F0E8CF13F0E0CF14F0FACF33
:1000280015F0FBCF16F0E9CF17F0EACF18F0E1CFC3
:1000380019F0E2CF1AF0D9CF1BF0DACF1CF0F3CFCA
:100048001DF0F4CF1EF0F6CF1FF0F7CF20F0F8CF59
:1000580021F0F5CF22F03CEC15F00009D8B469D0B6
:100068002C0E016E000E026E54EC0DF0050E2C18CD
:100078002D102E102F10D8A426D02CC023F02DC060
:1000880024F02EC025F02FC026F03AA002D04382DB
:1000980001D0439230C02BF02BC001F0026A44C05B
:1000A80003F045C004F00CEC15F001C007F002C0E5
:1000B80008F0000E0A6EB40E096E8CEC14F00750AE
:1000C8000001AB6F4380020E2C182D102E102F103C
:1000D800D8A42DD03A04D8A42AD082A202D0010EE6
:1000E80001D0000EFF0A116E114682501118FD0B47
:1000F8001118826E2CC023F02DC024F02EC025F0DC
:100108002FC026F04382020E3B6E23C001F024C0AC
:1001180002F025C003F026C004F03B0E056E000E69
:10012800066E080E076EBC0E086E0CEC0AF0A49062
:10013800A49222C0F5FF21C0F8FF20C0F7FF1FC01E
:10014800F6FF1EC0F4FF1DC0F3FF1CC0DAFF1BC082
:10015800D9FF1AC0E2FF19C0E1FF18C0EAFF17C0B3
:10016800E9FF16C0FBFF15C0FAFF14C0E0FF13C07B
:10017800E8FF12C0D8FF4690100060EF14F00001AD
:100188007C6F00017C510001D8A458D00001772968
:10019800D8A454D00F01019773C078F074C079F0D7
:1001A80075C07AF076C07BF0040E06D00001D890B6
:1001B8007B337A3379337833E82EF8D778C07DF0FB
:1001C80079C07EF07AC07FF07BC080F000017D515D
:1001D80000017D6F7E6B7F6B806B7DC000FF070E1B
:1001E8000001731500017D6F000E000174150001F8
:1001F8007E6F000E0001751500017F6F000E000173
:1002080076150001806F7DC078F07EC079F07FC0E0
:100218007AF080C07BF0050ED890000178377937E6
:100228007A377B37E82EF8D778C07DF079C07EF032
:100238007AC07FF07BC080F07DC001FF00017C05A3
:10024800D8A458D000017729D8A454D00F01059715
:1002580073C078F074C079F075C07AF076C07BF01E
:10026800040E06D00001D8907B337A337933783383
:10027800E82EF8D778C07DF079C07EF07AC07FF09C
:100288007BC080F000017D5100017D6F7E6B7F6B2C
:10029800806B7DC004FF070E0001731500017D6FA0
:1002A800000E0001741500017E6F000E0001751527
:1002B80000017F6F000E000176150001806F7DC080
:1002C80078F07EC079F07FC07AF080C07BF0050EB0
:1002D800D8900001783779377A377B37E82EF8D706
:1002E80078C07DF079C07EF07AC07FF07BC080F066
:1002F8007DC005FF020E00017C19D8A458D000016A
:100308007729D8A454D00F01099773C078F074C026
:1003180079F075C07AF076C07BF0040E06D0000143
:10032800D8907B337A3379337833E82EF8D778C08E
:100338007DF079C07EF07AC07FF07BC080F000014C
:100348007D5100017D6F7E6B7F6B806B7DC008FFE8
:10035800070E0001731500017D6F000E0001741572
:1003680000017E6F000E0001751500017F6F000E01
:10037800000176150001806F7DC078F07EC079F0AD
:100388007FC07AF080C07BF0050ED89000017837E6
:1003980079377A377B37E82EF8D778C07DF079C07F
:1003A8007EF07AC07FF07BC080F07DC009FF030E2D
:1003B80000017C19D8A458D000017729D8A454D0BA
:1003C8000F010D9773C078F074C079F075C07AF09A
:1003D80076C07BF0040E06D00001D8907B337A33C8
:1003E80079337833E82EF8D778C07DF079C07EF07D
:1003F8007AC07FF07BC080F000017D5100017D6FE5
:100408007E6B7F6B806B7DC00CFF070E0001731540
:1004180000017D6F000E0001741500017E6F000E53
:100428000001751500017F6F000E000176150001AF
:10043800806F7DC078F07EC079F07FC07AF080C090
:100448007BF0050ED8900001783779377A377B37FB
:10045800E82EF8D778C07DF079C07EF07AC07FF0BA
:100468007BC080F07DC00DFF040E00017C19D8A46C
:1004780058D000017729D8A454D00F01119773C020
:1004880078F074C079F075C07AF076C07BF0040E0D
:1004980006D00001D8907B337A3379337833E82E4D
:1004A800F8D778C07DF079C07EF07AC07FF07BC045
:1004B80080F000017D5100017D6F7E6B7F6B806B4A
:1004C8007DC010FF070E0001731500017D6F000E3F
:1004D8000001741500017E6F000E00017515000102
:1004E8007F6F000E000176150001806F7DC078F0E7
:1004F8007EC079F07FC07AF080C07BF0050ED8907E
:100508000001783779377A377B37E82EF8D778C003
:100518007DF079C07EF07AC07FF07BC080F07DC02E
:1005280011FF050E00017C19D8A458D000017729C5
:10053800D8A454D00F01159773C078F074C079F01F
:1005480075C07AF076C07BF0040E06D00001D89012
:100558007B337A3379337833E82EF8D778C07DF057
:1005680079C07EF07AC07FF07BC080F000017D51B9
:1005780000017D6F7E6B7F6B806B7DC014FF070E63
:100588000001731500017D6F000E00017415000154
:100598007E6F000E0001751500017F6F000E0001CF
:1005A80076150001806F7DC078F07EC079F07FC03D
:1005B8007AF080C07BF0050ED89000017837793743
:1005C8007A377B37E82EF8D778C07DF079C07EF08F
:1005D8007AC07FF07BC080F07DC015FF00017C51A0
:1005E8000001D8A489D0F70E00017719D8A484D0C7
:1005F8000F0101870001735100017D6F7E6B7F6BD6
:10060800806B7DC003FF000E0001731500017D6F34
:10061800FF0E0001741500017E6F000E00017515B4
:1006280000017F6F000E000176150001806F7DC00C
:1006380078F07EC079F07FC07AF080C07BF079C016
:1006480078F07AC079F07BC07AF000017B6B78C0D3
:100658007DF079C07EF07AC07FF07BC080F07DC0ED
:1006680002FF000175A103D00F01018102D00F0123
:100678000191000175A303D00F01018302D00F017E
:100688000193000175A503D00F01018B02D00F0162
:10069800019B000175A703D00F01018D02D00F0146
:1006A800019D000175A903D00F01018F02D00F0130
:1006B800019F73C078F074C079F075C07AF076C085
:1006C8007BF0160E06D00001D8907B337A3379334D
:1006D8007833E82EF8D778C07DF079C07EF07AC0FC
:1006E8007FF07BC080F000017D5100017D6F7E6B43
:1006F8007F6B806B7DC000FF00017C05D8A489D08A
:10070800F70E00017719D8A484D00F0105870001DE
:10071800735100017D6F7E6B7F6B806B7DC007FF1F
:10072800000E0001731500017D6FFF0E00017415A6
:1007380000017E6F000E0001751500017F6F000E2D
:10074800000176150001806F7DC078F07EC079F0D9
:100758007FC07AF080C07BF079C078F07AC079F0F9
:100768007BC07AF000017B6B78C07DF079C07EF0A9
:100778007AC07FF07BC080F07DC006FF000175A1C4
:1007880003D00F01058102D00F010591000175A367
:1007980003D00F01058302D00F010593000175A551
:1007A80003D00F01058B02D00F01059B000175A72F
:1007B80003D00F01058D02D00F01059D000175A919
:1007C80003D00F01058F02D00F01059F73C078F089
:1007D80074C079F075C07AF076C07BF0160E06D03A
:1007E8000001D8907B337A3379337833E82EF8D701
:1007F80078C07DF079C07EF07AC07FF07BC080F051
:1008080000017D5100017D6F7E6B7F6B806B7DC029
:1008180004FF020E00017C19D8A489D0F70E00014C
:100828007719D8A484D00F010987000173510001FA
:100838007D6F7E6B7F6B806B7DC00BFF000E0001B0
:10084800731500017D6FFF0E0001741500017E6FA6
:10085800000E0001751500017F6F000E000176156E
:100868000001806F7DC078F07EC079F07FC07AF09B
:1008780080C07BF079C078F07AC079F07BC07AF0DC
:1008880000017B6B78C07DF079C07EF07AC07FF084
:100898007BC080F07DC00AFF000175A103D00F0165
:1008A800098102D00F010991000175A303D00F013E
:1008B800098302D00F010993000175A503D00F0128
:1008C800098B02D00F01099B000175A703D00F0106
:1008D800098D02D00F01099D000175A903D00F01F0
:1008E800098F02D00F01099F73C078F074C079F0A6
:1008F80075C07AF076C07BF0160E06D00001D8904D
:100908007B337A3379337833E82EF8D778C07DF0A3
:1009180079C07EF07AC07FF07BC080F000017D5105
:1009280000017D6F7E6B7F6B806B7DC008FF030EBF
:1009380000017C19D8A489D0F70E00017719D8A432
:1009480084D00F010D870001735100017D6F7E6B0C
:100958007F6B806B7DC00FFF000E000173150001D7
:100968007D6FFF0E0001741500017E6F000E0001FF
:10097800751500017F6F000E000176150001806F6C
:100988007DC078F07EC079F07FC07AF080C07BF0BF
:1009980079C078F07AC079F07BC07AF000017B6B7F
:1009A80078C07DF079C07EF07AC07FF07BC080F09F
:1009B8007DC00EFF000175A103D00F010D8102D08B
:1009C8000F010D91000175A303D00F010D8302D013
:1009D8000F010D93000175A503D00F010D8B02D0F7
:1009E8000F010D9B000175A703D00F010D8D02D0DB
:1009F8000F010D9D000175A903D00F010D8F02D0C5
:100A08000F010D9F73C078F074C079F075C07AF04B
:100A180076C07BF0160E06D00001D8907B337A336F
:100A280079337833E82EF8D778C07DF079C07EF036
:100A38007AC07FF07BC080F000017D5100017D6F9E
:100A48007E6B7F6B806B7DC00CFF040E00017C19F0
:100A5800D8A489D0F70E00017719D8A484D00F0143
:100A680011870001735100017D6F7E6B7F6B806B76
:100A78007DC013FF000E0001731500017D6FFF0E8E
:100A88000001741500017E6F000E0001751500014C
:100A98007F6F000E000176150001806F7DC078F031
:100AA8007EC079F07FC07AF080C07BF079C078F0A2
:100AB8007AC079F07BC07AF000017B6B78C07DF05A
:100AC80079C07EF07AC07FF07BC080F07DC012FFD5
:100AD800000175A103D00F01118102D00F011191FE
:100AE800000175A303D00F01118302D00F011193E8
:100AF800000175A503D00F01118B02D00F01119BC6
:100B0800000175A703D00F01118D02D00F01119DAF
:100B1800000175A903D00F01118F02D00F01119F99
:100B280073C078F074C079F075C07AF076C07BF045
:100B3800160E06D00001D8907B337A337933783398
:100B4800E82EF8D778C07DF079C07EF07AC07FF0C3
:100B58007BC080F000017D5100017D6F7E6B7F6B53
:100B6800806B7DC010FF050E00017C19D8A412000F
:100B7800F70E00017719D8A412000F01158700019C
:100B8800735100017D6F7E6B7F6B806B7DC017FF9B
:100B9800000E0001731500017D6FFF0E0001741532
:100BA80000017E6F000E0001751500017F6F000EB9
:100BB800000176150001806F7DC078F07EC079F065
:100BC8007FC07AF080C07BF079C078F07AC079F085
:100BD8007BC07AF000017B6B78C07DF079C07EF035
:100BE8007AC07FF07BC080F07DC016FF000175A140
:100BF80003D00F01158102D00F011591000175A3D3
:100C080003D00F01158302D00F011593000175A5BC
:100C180003D00F01158B02D00F01159B000175A79A
:100C280003D00F01158D02D00F01159D000175A984
:100C380003D00F01158F02D00F01159F73C078F0F4
:100C480074C079F075C07AF076C07BF0160E06D0C5
:100C58000001D8907B337A3379337833E82EF8D78C
:100C680078C07DF079C07EF07AC07FF07BC080F0DC
:100C780000017D5100017D6F7E6B7F6B806B7DC0B5
:100C880014FF12000F0140B73FD179C045FF0001A2
:100C98007AAD03D00F01458D02D00F01459D0001AB
:100CA8007AA779D00001735100017F6F806B816B47
:100CB800826B7FC044FF000E0001731500017F6F37
:100CC800FF0E000174150001806F000E00017515FC
:100CD8000001816F000E000176150001826F7FC050
:100CE8007BF080C07CF081C07DF082C07EF07CC04B
:100CF8007BF07DC07CF07EC07DF000017E6B7BC008
:100D08007FF07CC080F07DC081F07EC082F07FC023
:100D180043FF000E0F01426F0F014287000175A1CA
:100D280002D00F014281000175A302D00F01428356
:100D3800000175A502D00F01428B000175A702D0F2
:100D48000F01428D000175A902D00F01428F73C0B7
:100D58007BF074C07CF075C07DF076C07EF0160E16
:100D680006D00001D8907E337D337C337B33E82E68
:100D7800F8D77BC07FF07CC080F07DC081F07EC05A
:100D880082F000017F5100017F6F806B816B826B65
:100D98007FC041FF59D00F01429773C07BF074C0E8
:100DA8007CF075C07DF076C07EF0040E06D00001A0
:100DB800D8907E337D337C337B33E82EF8D77BC0E5
:100DC8007FF07CC080F07DC081F07EC082F00001A1
:100DD8007F5100017F6F806B816B826B7FC041FF09
:100DE800070E0001731500017F6F000E00017415D6
:100DF8000001806F000E000175150001816F000E63
:100E0800000176150001826F7FC07BF080C07CF006
:100E180081C07DF082C07EF0050ED89000017B373E
:100E28007C377D377E37E82EF8D77BC07FF07CC0D3
:100E380080F07DC081F07EC082F00F0142511F0B0F
:100E48000F01426F7FC042FF00017AA103D00F015A
:100E5800408102D00F01409100017AA303D00F0115
:100E6800408302D00F01409377C0D9FF78C0DAFFE2
:100E7800DF500F01466F000120EE01F07751D926AF
:100E88007851DA22DF500F01476F000120EE02F09F
:100E98007751D9267851DA22DF500F01486F0001C7
:100EA80020EE03F07751D9267851DA22DF500F016E
:100EB800496F000120EE04F07751D9267851DA22E3
:100EC800DF500F014A6F000120EE05F07751D92657
:100ED8007851DA22DF500F014B6F000120EE06F047
:100EE8007751D9267851DA22DF500F014C6F000173
:100EF80020EE07F07751D9267851DA22DF500F011A
:100F08004D6F0F01408712000F0130B73FD179C0F4
:100F180035FF00017AAD03D00F01358D02D00F01E6
:100F2800359D00017AA779D00001735100017F6FC8
:100F3800806B816B826B7FC034FF000E00017315DC
:100F480000017F6FFF0E000174150001806F000E15
:100F5800000175150001816F000E00017615000172
:100F6800826F7FC07BF080C07CF081C07DF082C042
:100F78007EF07CC07BF07DC07CF07EC07DF00001FF
:100F88007E6B7BC07FF07CC080F07DC081F07EC02E
:100F980082F07FC033FF000E0F01326F0F013287DE
:100FA800000175A102D00F013281000175A302D0A2
:100FB8000F013283000175A502D00F01328B0001A9
:100FC80075A702D00F01328D000175A902D00F015B
:100FD800328F73C07BF074C07CF075C07DF076C032
:100FE8007EF0160E06D00001D8907E337D337C3318
:100FF8007B33E82EF8D77BC07FF07CC080F07DC0C3
:1010080081F07EC082F000017F5100017F6F806B0C
:10101800816B826B7FC031FF59D00F01329773C04B
:101028007BF074C07CF075C07DF076C07EF0040E55
:1010380006D00001D8907E337D337C337B33E82E95
:10104800F8D77BC07FF07CC080F07DC081F07EC087
:1010580082F000017F5100017F6F806B816B826B92
:101068007FC031FF070E0001731500017F6F000E6E
:10107800000174150001806F000E00017515000154
:10108800816F000E000176150001826F7FC07BF032
:1010980080C07CF081C07DF082C07EF0050ED890C3
:1010A80000017B377C377D377E37E82EF8D77BC049
:1010B8007FF07CC080F07DC081F07EC082F00F019F
:1010C80032511F0B0F01326F7FC032FF00017AA12E
:1010D80003D00F01308102D00F01309100017AA3B3
:1010E80003D00F01308302D00F01309377C0D9FFAE
:1010F80078C0DAFFDF500F01366F000120EE01F0F3
:101108007751D9267851DA22DF500F01376F000165
:1011180020EE02F07751D9267851DA22DF500F01FC
:10112800386F000120EE03F07751D9267851DA2282
:10113800DF500F01396F000120EE04F07751D926F6
:101148007851DA22DF500F013A6F000120EE05F0E6
:101158007751D9267851DA22DF500F013B6F000111
:1011680020EE06F07751D9267851DA22DF500F01A8
:101178003C6F000120EE07F07751D9267851DA222A
:10118800DF500F013D6F0F01308712000F0120B7AC
:10119800120079C025FF00017AAD03D00F01258D1B
:1011A80002D00F01259D00017AA779D00001735163
:1011B80000017F6F806B816B826B7FC024FF000E04
:1011C8000001731500017F6FFF0E00017415000107
:1011D800806F000E000175150001816F000E00017F
:1011E80076150001826F7FC07BF080C07CF081C0E3
:1011F8007DF082C07EF07CC07BF07DC07CF07EC03C
:101208007DF000017E6B7BC07FF07CC080F07DC0EC
:1012180081F07EC082F07FC023FF000E0F01226F95
:101228000F012287000175A102D00F012281000160
:1012380075A302D00F012283000175A502D00F010A
:10124800228B000175A702D00F01228D000175A91C
:1012580002D00F01228F73C07BF074C07CF075C080
:101268007DF076C07EF0160E06D00001D8907E3351
:101278007D337C337B33E82EF8D77BC07FF07CC08E
:1012880080F07DC081F07EC082F000017F510001B6
:101298007F6F806B816B826B7FC021FF59D00F01FC
:1012A800229773C07BF074C07CF075C07DF076C067
:1012B8007EF0040E06D00001D8907E337D337C3357
:1012C8007B33E82EF8D77BC07FF07CC080F07DC0F0
:1012D80081F07EC082F000017F5100017F6F806B3A
:1012E800816B826B7FC021FF070E0001731500011F
:1012F8007F6F000E000174150001806F000E000161
:1013080075150001816F000E000176150001826FCE
:101318007FC07BF080C07CF081C07DF082C07EF011
:10132800050ED89000017B377C377D377E37E82E55
:10133800F8D77BC07FF07CC080F07DC081F07EC094
:1013480082F00F0122511F0B0F01226F7FC022FF75
:1013580000017AA103D00F01208102D00F01209152
:1013680000017AA303D00F01208302D00F0120933C
:1013780077C0D9FF78C0DAFFDF500F01266F000170
:1013880020EE01F07751D9267851DA22DF500F018B
:10139800276F000120EE02F07751D9267851DA2222
:1013A800DF500F01286F000120EE03F07751D92696
:1013B8007851DA22DF500F01296F000120EE04F086
:1013C8007751D9267851DA22DF500F012A6F0001B0
:1013D80020EE05F07751D9267851DA22DF500F0137
:1013E8002B6F000120EE06F07751D9267851DA22CA
:1013F800DF500F012C6F000120EE07F07751D9263E
:101408007851DA22DF500F012D6F0F01208712006B
:101418000F0140B715D107C045FF08AC03D00F0135
:10142800458D02D00F01459D08A666D001500D6E6E
:101438000E6A0F6A106A0DC044FF000E01140D6E8B
:10144800FF0E02140E6E000E03140F6E000E04142D
:10145800106E0DC009F00EC00AF00FC00BF010C0DE
:101468000CF00AC009F00BC00AF00CC00BF00C6AB3
:1014780009C00DF00AC00EF00BC00FF00CC010F040
:101488000DC043FF000E0F01426F0F01428703A0FA
:1014980002D00F01428103A202D00F01428303A4AC
:1014A80002D00F01428B03A602D00F01428D03A880
:1014B80002D00F01428F01C009F002C00AF003C038
:1014C8000BF004C00CF0160E05D0D8900C320B327D
:1014D8000A320932E82EF9D709C00DF00AC00EF019
:1014E8000BC00FF00CC010F00D500D6E0E6A0F6A95
:1014F800106A0DC041FF4DD00F01429701C009F09D
:1015080002C00AF003C00BF004C00CF0040E05D0B2
:10151800D8900C320B320A320932E82EF9D709C0BA
:101528000DF00AC00EF00BC00FF00CC010F00D50FB
:101538000D6E0E6A0F6A106A0DC041FF070E011486
:101548000D6E000E02140E6E000E03140F6E000EC8
:101558000414106E0DC009F00EC00AF00FC00BF095
:1015680010C00CF0050ED89009360A360B360C362A
:10157800E82EF9D709C00DF00AC00EF00BC00FF025
:101588000CC010F00F0142511F0B0F01426F0DC02C
:1015980042FF08A003D00F01408102D00F01409103
:1015A80008A203D00F01408302D00F01409305C069
:1015B800D9FF06C0DAFFDF500F01466F20EE01F0B9
:1015C8000550D9260650DA22DF500F01476F20EE6A
:1015D80002F00550D9260650DA22DF500F01486F75
:1015E80020EE03F00550D9260650DA22DF500F010D
:1015F800496F20EE04F00550D9260650DA22DF5054
:101608000F014A6F20EE05F00550D9260650DA2260
:10161800DF500F014B6F20EE06F00550D92606501B
:10162800DA22DF500F014C6F20EE07F00550D92663
:101638000650DA22DF500F014D6F0F01408712006C
:101648000F0130B715D107C035FF08AC03D00F0123
:10165800358D02D00F01359D08A666D001500D6E5C
:101668000E6A0F6A106A0DC034FF000E01140D6E69
:10167800FF0E02140E6E000E03140F6E000E0414FB
:10168800106E0DC009F00EC00AF00FC00BF010C0AC
:101698000CF00AC009F00BC00AF00CC00BF00C6A81
:1016A80009C00DF00AC00EF00BC00FF00CC010F00E
:1016B8000DC033FF000E0F01326F0F01328703A0F8
:1016C80002D00F01328103A202D00F01328303A49A
:1016D80002D00F01328B03A602D00F01328D03A86E
:1016E80002D00F01328F01C009F002C00AF003C016
:1016F8000BF004C00CF0160E05D0D8900C320B324B
:101708000A320932E82EF9D709C00DF00AC00EF0E6
:101718000BC00FF00CC010F00D500D6E0E6A0F6A62
:10172800106A0DC031FF4DD00F01329701C009F08A
:1017380002C00AF003C00BF004C00CF0040E05D080
:10174800D8900C320B320A320932E82EF9D709C088
:101758000DF00AC00EF00BC00FF00CC010F00D50C9
:101768000D6E0E6A0F6A106A0DC031FF070E011464
:101778000D6E000E02140E6E000E03140F6E000E96
:101788000414106E0DC009F00EC00AF00FC00BF063
:1017980010C00CF0050ED89009360A360B360C36F8
:1017A800E82EF9D709C00DF00AC00EF00BC00FF0F3
:1017B8000CC010F00F0132511F0B0F01326F0DC01A
:1017C80032FF08A003D00F01308102D00F01309101
:1017D80008A203D00F01308302D00F01309305C057
:1017E800D9FF06C0DAFFDF500F01366F20EE01F097
:1017F8000550D9260650DA22DF500F01376F20EE48
:1018080002F00550D9260650DA22DF500F01386F52
:1018180020EE03F00550D9260650DA22DF500F01DA
:10182800396F20EE04F00550D9260650DA22DF5031
:101838000F013A6F20EE05F00550D9260650DA223E
:10184800DF500F013B6F20EE06F00550D9260650F9
:10185800DA22DF500F013C6F20EE07F00550D92641
:101868000650DA22DF500F013D6F0F01308712005A
:101878000F0120B7120007C025FF08AC03D00F01E5
:10188800258D02D00F01259D08A666D001500D6E4A
:101898000E6A0F6A106A0DC024FF000E01140D6E47
:1018A800FF0E02140E6E000E03140F6E000E0414C9
:1018B800106E0DC009F00EC00AF00FC00BF010C07A
:1018C8000CF00AC009F00BC00AF00CC00BF00C6A4F
:1018D80009C00DF00AC00EF00BC00FF00CC010F0DC
:1018E8000DC023FF000E0F01226F0F01228703A0F6
:1018F80002D00F01228103A202D00F01228303A488
:1019080002D00F01228B03A602D00F01228D03A85B
:1019180002D00F01228F01C009F002C00AF003C0F3
:101928000BF004C00CF0160E05D0D8900C320B3218
:101938000A320932E82EF9D709C00DF00AC00EF0B4
:101948000BC00FF00CC010F00D500D6E0E6A0F6A30
:10195800106A0DC021FF4DD00F01229701C009F078
:1019680002C00AF003C00BF004C00CF0040E05D04E
:10197800D8900C320B320A320932E82EF9D709C056
:101988000DF00AC00EF00BC00FF00CC010F00D5097
:101998000D6E0E6A0F6A106A0DC021FF070E011442
:1019A8000D6E000E02140E6E000E03140F6E000E64
:1019B8000414106E0DC009F00EC00AF00FC00BF031
:1019C80010C00CF0050ED89009360A360B360C36C6
:1019D800E82EF9D709C00DF00AC00EF00BC00FF0C1
:1019E8000CC010F00F0122511F0B0F01226F0DC008
:1019F80022FF08A003D00F01208102D00F012091FF
:101A080008A203D00F01208302D00F01209305C044
:101A1800D9FF06C0DAFFDF500F01266F20EE01F074
:101A28000550D9260650DA22DF500F01276F20EE25
:101A380002F00550D9260650DA22DF500F01286F30
:101A480020EE03F00550D9260650DA22DF500F01A8
:101A5800296F20EE04F00550D9260650DA22DF500F
:101A68000F012A6F20EE05F00550D9260650DA221C
:101A7800DF500F012B6F20EE06F00550D9260650D7
:101A8800DA22DF500F012C6F20EE07F00550D9261F
:101A98000650DA22DF500F012D6F0F012087120048
:101AA800000E0B6E74BE0B8074BC0B820F0150AF1E
:101AB80043D101C0D9FF02C0DAFFDE6ADE6ADE6AFE
:101AC800DD6A20EE04F00150D9260250DA2256CF02
:101AD800DFFF20EE05F00150D9260250DA2257CF59
:101AE800DFFF20EE06F00150D9260250DA2258CF47
:101AF800DFFF20EE07F00150D9260250DA2259CF35
:101B0800DFFF20EE08F00150D9260250DA225ACF22
:101B1800DFFF20EE09F00150D9260250DA225BCF10
:101B2800DFFF20EE0AF00150D9260250DA225CCFFE
:101B3800DFFF20EE0BF00150D9260250DA225DCFEC
:101B4800DFFF20EE0EF00150D9260250DA220F01F5
:101B580055AD02D0010E01D0000EDF6E20EE0DF063
:101B68000150D9260250DA220F0155510F0BDF6EB2
:101B780020EE0CF00150D9260250DA220F0152A7AC
:101B880002D0010E01D0000EDF6E0F0152B744D013
:101B980051CF03F0046A056A066A030ED89003362B
:101BA800043605360636E82EF9D701C0D9FF02C03B
:101BB800DAFF03C0DEFF04C0DEFF05C0DEFF06C09B
:101BC800DEFF0F015239E842070B070B0C6E01C00C
:101BD800D9FF02C0DAFFDECF03F0DECF04F0DECF9C
:101BE80005F0DECF06F00C500324076E000E04202B
:101BF800086E000E0520096E000E06200A6E01C050
:101C0800D9FF02C0DAFF07C0DEFF08C0DEFF09C047
:101C1800DEFF0AC0DEFF8DD054CF03F0046A056AE8
:101C2800066A01C0D9FF02C0DAFF03C0DEFF04C0A4
:101C3800DEFF05C0DEFF06C0DEFF53CF03F0046AF7
:101C4800056A066A05C006F004C005F003C004F082
:101C5800036A01C0D9FF02C0DAFF0350DE26045030
:101C6800DE220550DE220650DE220F0152A10CD0E2
:101C780001C0D9FF02C0DAFF000EDE12000EDE122C
:101C8800010EDE12000EDE120F0152A30CD001C0AD
:101C9800D9FF02C0DAFF000EDE12000EDE12020EBD
:101CA800DE12000EDE120F0152AB0CD001C0D9FFBC
:101CB80002C0DAFF000EDE12000EDE12040EDE1283
:101CC800000EDE120F0152AD0CD001C0D9FF02C0C8
:101CD800DAFF000EDE12000EDE12080EDE12000E13
:101CE800DE120F0152AF0CD001C0D9FF02C0DAFFDB
:101CF800000EDE12000EDE12100EDE12000EDE12D4
:101D080051CF03F0046A056A066A150ED8900336A7
:101D1800043605360636E82EF9D701C0D9FF02C0C9
:101D2800DAFF0350DE120450DE120550DE120650B0
:101D3800DE120F01509F120060AE120001C0D9FFE1
:101D480002C0DAFFDE6ADE6ADE6ADD6A20EE04F0CF
:101D58000150D9260250DA2266CFDFFF20EE05F0C7
:101D68000150D9260250DA2267CFDFFF20EE06F0B5
:101D78000150D9260250DA2268CFDFFF20EE07F0A3
:101D88000150D9260250DA2269CFDFFF20EE08F091
:101D98000150D9260250DA226ACFDFFF20EE09F07F
:101DA8000150D9260250DA226BCFDFFF20EE0AF06D
:101DB8000150D9260250DA226CCFDFFF20EE0BF05B
:101DC8000150D9260250DA226DCFDFFF20EE0EF047
:101DD8000150D9260250DA2265AC02D0010E01D09A
:101DE800000EDF6E20EE0DF00150D9260250DA22E7
:101DF80065500F0BDF6E20EE0CF00150D926025013
:101E0800DA2262A602D0010E01D0000EDF6E62B6A1
:101E180043D061CF03F0046A056A066A030ED890BE
:101E28000336043605360636E82EF9D701C0D9FF41
:101E380002C0DAFF03C0DEFF04C0DEFF05C0DEFF1C
:101E480006C0DEFF6238E842070B070B0C6E01C0C4
:101E5800D9FF02C0DAFFDECF03F0DECF04F0DECF19
:101E680005F0DECF06F00C500324076E000E0420A8
:101E7800086E000E0520096E000E06200A6E01C0CD
:101E8800D9FF02C0DAFF07C0DEFF08C0DEFF09C0C5
:101E9800DEFF0AC0DEFF88D064CF03F0046A056A5B
:101EA800066A01C0D9FF02C0DAFF03C0DEFF04C022
:101EB800DEFF05C0DEFF06C0DEFF63CF03F0046A65
:101EC800056A066A05C006F004C005F003C004F000
:101ED800036A01C0D9FF02C0DAFF0350DE260450AE
:101EE800DE220550DE220650DE2262A00CD001C0A0
:101EF800D9FF02C0DAFF000EDE12000EDE12010E5C
:101F0800DE12000EDE1262A20CD001C0D9FF02C0A0
:101F1800DAFF000EDE12000EDE12020EDE12000ED6
:101F2800DE1262AA0CD001C0D9FF02C0DAFF000E8F
:101F3800DE12000EDE12040EDE12000EDE1262AC9D
:101F48000CD001C0D9FF02C0DAFF000EDE12000E6D
:101F5800DE12080EDE12000EDE1262AE0CD001C0D8
:101F6800D9FF02C0DAFF000EDE12000EDE12100EDC
:101F7800DE12000EDE1261CF03F0046A056A066AFB
:101F8800150ED8900336043605360636E82EF9D7EE
:101F980001C0D9FF02C0DAFF0350DE120450DE127E
:101FA8000550DE120650DE12609E120000017C6FA2
:101FB80000017C05D8A456D000017729D8A452D0B6
:101FC80073C078F074C079F075C07AF076C07BF091
:101FD800040E06D00001D8907B337A3379337833F6
:101FE800E82EF8D778C07DF079C07EF07AC07FF00F
:101FF8007BC080F000017D5100017D6F7E6B7F6B9F
:10200800806B7DC018FF070E0001731500017D6FFE
:10201800000E0001741500017E6F000E0001751599
:1020280000017F6F000E000176150001806F7DC0F2
:1020380078F07EC079F07FC07AF080C07BF0050E22
:10204800D8900001783779377A377B37E82EF8D778
:1020580078C07DF079C07EF07AC07FF07BC080F0D8
:102068007DC019FF020E00017C19D8A456D00001CA
:102078007729D8A452D073C078F074C079F075C0AD
:102088007AF076C07BF0040E06D00001D8907B333E
:102098007A3379337833E82EF8D778C07DF079C071
:1020A8007EF07AC07FF07BC080F000017D51000196
:1020B8007D6F7E6B7F6B806B7DC01CFF070E000100
:1020C800731500017D6F000E0001741500017E6F0D
:1020D800000E0001751500017F6F000E00017615D6
:1020E8000001806F7DC078F07EC079F07FC07AF003
:1020F80080C07BF0050ED8900001783779377A37A1
:102108007B37E82EF8D778C07DF079C07EF07AC0AA
:102118007FF07BC080F07DC01DFF00017C05D8A446
:1021280087D0F70E00017719D8A482D00001735127
:1021380000017D6F7E6B7F6B806B7DC01BFF000E87
:102148000001731500017D6FFF0E00017415000179
:102158007E6F000E0001751500017F6F000E0001F3
:1021680076150001806F7DC078F07EC079F07FC061
:102178007AF080C07BF079C078F07AC079F07BC0C3
:102188007AF000017B6B78C07DF079C07EF07AC070
:102198007FF07BC080F07DC01AFF000175A103D0DD
:1021A8000F01198102D00F011991000175A303D005
:1021B8000F01198302D00F011993000175A503D0EF
:1021C8000F01198B02D00F01199B000175A703D0CD
:1021D8000F01198D02D00F01199D000175A903D0B7
:1021E8000F01198F02D00F01199F73C078F074C0C6
:1021F80079F075C07AF076C07BF0160E06D0000133
:10220800D8907B337A3379337833E82EF8D778C08F
:102218007DF079C07EF07AC07FF07BC080F000014D
:102228007D5100017D6F7E6B7F6B806B7DC018FFD9
:10223800020E00017C19D8A41200F70E00017719CC
:10224800D8A412000001735100017D6F7E6B7F6B73
:10225800806B7DC01FFF000E0001731500017D6FAC
:10226800FF0E0001741500017E6F000E0001751548
:1022780000017F6F000E000176150001806F7DC0A0
:1022880078F07EC079F07FC07AF080C07BF079C0AA
:1022980078F07AC079F07BC07AF000017B6B78C067
:1022A8007DF079C07EF07AC07FF07BC080F07DC081
:1022B8001EFF000175A103D00F011D8102D00F017F
:1022C8001D91000175A303D00F011D8302D00F01DA
:1022D8001D93000175A503D00F011D8B02D00F01BE
:1022E8001D9B000175A703D00F011D8D02D00F01A2
:1022F8001D9D000175A903D00F011D8F02D00F018C
:102308001D9F73C078F074C079F075C07AF076C0FC
:102318007BF0160E06D00001D8907B337A337933E0
:102328007833E82EF8D778C07DF079C07EF07AC08F
:102338007FF07BC080F000017D5100017D6F7E6BD6
:102348007F6B806B7DC01CFF120000018A6F800EBE
:1023580031EC15F0000E706E000E716E000E726E8C
:1023680000018341E842C00B0001836F00018351E3
:10237800701200018451701200018A51711200011B
:102388008139E842F80B0001816F00018151711217
:10239800000185A5718C000185B1718E0001825103
:1023A8007212000185B3728C00018551600B606E5A
:1023B80000018551100BFF0AD8B4608460CF50FF2C
:1023C800000E0001736F000E746F000E756F000E23
:1023D800766FF70E0001776F010EDAEC0FF0000E42
:1023E8000001736F000E746F000E756F000E766F2C
:1023F800F70E0001776F020EDAEC0FF00FD0F70E30
:1024080000018B6F07D000018B6900018C6928D00F
:1024180000018B69F70E00018C6F22D09F0E00011E
:10242800866FFF0E0001876F00018551600B000168
:10243800886F896B0001865100018813000187515C
:102448000001891300018951000AD8A4E1D70001CD
:102458008851BF0AD8B4D7D7600AD8B4D0D7D8D74C
:10246800000E0001736F000E746F000E756F000E82
:10247800766F8BC077F0000EC3EC00F0000E000101
:10248800736F000E746F000E756F000E766F8BC041
:1024980077F0010EC3EC00F0000E0001736F000E20
:1024A800746F000E756F000E766F8CC077F0020E99
:1024B800C3EC00F0000E0001736F000E746F000E85
:1024C800756F000E766F8CC077F0030EC3EC00F0CA
:1024D800000E0001736F000E746F000E756F000E12
:1024E800766F8CC077F0040EC3EC00F0000E00018C
:1024F800736F000E746F000E756F000E766F8CC0D0
:1025080077F0050EC3EC00F0000E31EC15F0120068
:1025180029EC14F080828282010E00017A6FF40E99
:10252800796FD4EC14F080928292000E00017A6FD9
:10253800640E796FD4EC14F0000E00017A6F640E0B
:10254800796FD4EC14F00001AB510001A16FA26BBC
:10255800A36BA46B82B0F0D7A1C073F0A2C074F0D3
:10256800A3C075F0A4C076F0BC0E0001776F020E10
:10257800786F000E796F000E7A6FEEEC13F073C06F
:102588007FF074C080F075C081F076C082F05A0E7A
:102598000001836F000E846F000E856F000E866F3A
:1025A80035EC13F0D89000017F3500018D6F0001E4
:1025B800803500018E6F0001813500018F6F0001A9
:1025C80082350001906F400E00018D250001A56F36
:1025D800060E00018E210001A66F000E00018F215A
:1025E8000001A76F000E000190210001A86FA5C08F
:1025F8008DF0A6C08EF000018D1F8E1F8D4B8E2B87
:102608008DC029F08EC02AF0A5C08DF0A6C08EF02E
:10261800A7C08FF0A8C090F00001D89090338F33F6
:102628008E338D3300018D1F8E1F8D4B8E2B200E08
:1026380000018D25276E4E0E00018E21286E27C0C1
:102648008DF028C08EF0D89000018D378E370001AC
:102658008D1F8E1F8D4B8E2B8DC027F08EC028F0BE
:102668006BD7000E0001876F000E886F000E896F10
:10267800000E8A6F00018351000184110001851149
:1026880000018611D8B442D0010E00018B6F08D02A
:102698000001D890833784378537863700018B2B24
:1026A800000186AFF5D70001D8908737883789377A
:1026B8008A370001835100017F5D000184510001C8
:1026C800805900018551000181590001865100019E
:1026D8008259D8A012D00001835100017F5F000108
:1026E80084510001805B000185510001815B00017C
:1026F80086510001825B000187810001D8908633F2
:1027080085338433833300018B2FCDD787C07FF087
:1027180088C080F089C081F08AC082F0120006006B
:10272800E9CF67F0EACF68F0E1CF69F0E2CF6AF06D
:10273800D9CF6BF0DACF6CF0F3CF6DF0F4CF6EF049
:10274800F6CF6FF0F7CF70F0F8CF71F0F5CF72F0E9
:1027580043A021D082A002D0010E01D0000EFF0AB2
:102768000001646F825000016419FE0B6419826EC7
:10277800D59E82A007D029C060F02AC061F047EC3E
:1027880015F0D58E82B007D027C060F028C061F060
:1027980047EC15F0D58EF29472C0F5FF71C0F8FFC2
:1027A80070C0F7FF6FC0F6FF6EC0F4FF6DC0F3FF97
:1027B8006CC0DAFF6BC0D9FF6AC0E2FF69C0E1FFF5
:1027C80068C0EAFF67C0E9FF66C0FBFF65C0FAFFA3
:1027D80046921100000E00017B6F000E7C6F000E08
:1027E8007D6F000E7E6F000173A110D0000177513C
:1027F80000017B270001785100017C2300017951F9
:1028080000017D2300017A5100017E230001D89048
:102818007737783779377A370001D8907633753338
:102828007433733300017351000174110001751181
:1028380000017611D8A4D7D77BC073F07CC074F0A0
:102848007DC075F07EC076F01200D08E060E0001B5
:10285800816F050E0001826F010E0001836F030E68
:102868000001846F9D0E0001856F040EA9EC11F024
:10287800A492A490F294A592A590F184D08EA382FC
:10288800A380F28AF28EF28CD58E8290000E896E29
:10289800FD0E926E000E8A6EFB0E936E000E8B6E0E
:1028A800000E946E000E8C6E000E956E000E8D6EEE
:1028B8009668800ED56E120000EE91F01A0EEE6A40
:1028C800E806FDE1436A00EE23F0200EEE6AE80612
:1028D800FDE1BA0EF66E2A0EF76E000EF86E0900CC
:1028E800F5CFABF00900F5CFACF0B80EF66E2A0EB6
:1028F800F76E000EF86E0900F5CF44F00900F5CF29
:1029080045F046904692000EF86E00018CEF12F0EA
:10291800000E0C6E000E0B6E09500A10D8B41CD0B5
:10292800010E0D6E04D0D89009360A360D2A0AAE6B
:10293800FAD7D8900B360C360950075C0A5008585D
:10294800D8A005D00950075E0A50085A0B80D890C5
:102958000A3209320D2EEDD70BC007F00CC008F073
:1029680012001FEC15F00009D8B4120043A216D0CB
:1029780023C073F024C074F025C075F026C076F02B
:102988003B0E0001776F000E0001786F080E000102
:10299800796FBC0E00017A6F46EC06F04392120084
:1029A800ACC073F00001746B79C075F07AC076F032
:1029B800F1EC14F073C0A9F074C0AAF007D0500E5F
:1029C800E82EFED70001A907D8A0AA070001A9513F
:1029D8000001AA11D8B41200F2D700017351000106
:1029E8007503F3CF77F0F4CF78F00001735100014D
:1029F8007603F35000017827000174510001750334
:102A0800F3500001782777C073F078C074F0120093
:102A180001500302F3CF05F0F4CF06F00150040291
:102A2800F350062602500302F350062605C001F0B3
:102A380006C002F01200010E0001736F0F0140A7DB
:102A480009D00F0130A706D00F0120A703D0000E30
:102A58000001736F0001735112000001736F73C09E
:102A68006FFF6E50E00B00017319D8B41200F9D74C
:102A7800010E016E60BE05D00F0150BF02D0000EDE
:102A8800016E0150120060C062F061C063F063C063
:102A9800D7FF62C0D6FF120074A402D0010E120044
:102AA800000E120074A202D0010E1200000E1200D5
:042AB8007800B414DA
:020000040020DA
:08000000FFFFFFFFFFFFFFFF00
:020000040030CA
:0E000000FF021F1EFF8281FF0FC00FE00F40A6
:00000001FF
