:04000000B3EF00F06A
:0E0008004682FACF65F0FBCF66F082ED1AF06B
:100018004680D8CF32F0E8CF33F0E0CF34F0FACFD3
:1000280035F0FBCF36F0E9CF37F0EACF38F0E1CF43
:1000380039F0E2CF3AF0D9CF3BF0DACF3CF0F3CF4A
:100048003DF0F4CF3EF0F6CF3FF0F7CF40F0F8CFD9
:1000580041F0F5CF42F0A4A0A4B201D04FD072EC89
:100068001CF00009D8B448D0150E246E000E256E79
:1000780085EC0CF02304D8A40DD015C0D1F016C01F
:10008800D2F017C0D3F018C0D4F023A002D0458016
:1000980001D04590100E1818151016101710D8A476
:1000A80016D013C0DFF01350306E316A30500B5C3D
:1000B80031500C58D8B00BC013F01350306E316A61
:1000C8004350305C44503158D8B043C013F0030E4D
:1000D8001518161017101810D8A40ED019C013F040
:1000E800135009240001E76F05C0D5F006C0D6F00B
:1000F80007C0D7F008C0D8F0A490A492A1A20BD052
:10010800010E0526000E062207220822630EB36E92
:10011800C00EB26EA19242C0F5FF41C0F8FF40C0C8
:10012800F7FF3FC0F6FF3EC0F4FF3DC0F3FF3CC001
:10013800DAFF3BC0D9FF3AC0E2FF39C0E1FF38C05F
:10014800EAFF37C0E9FF36C0FBFF35C0FAFF34C00D
:10015800E0FF33C0E8FF32C0D8FF4690100090EFB0
:100168001BF000017C6F00017C510001D8A458D01D
:1001780000017729D8A454D00F01019773C078F0F3
:1001880074C079F075C07AF076C07BF0040E06D0A2
:100198000001D8907B337A3379337833E82EF8D757
:1001A80078C07DF079C07EF07AC07FF07BC080F0A7
:1001B80000017D5100017D6F7E6B7F6B806B7DC080
:1001C80000FF070E0001731500017D6F000E00018E
:1001D800741500017E6F000E0001751500017F6F18
:1001E800000E000176150001806F7DC078F07EC09A
:1001F80079F07FC07AF080C07BF0050ED8900001BE
:10020800783779377A377B37E82EF8D778C07DF09A
:1002180079C07EF07AC07FF07BC080F07DC001FF9E
:1002280000017C05D8A458D000017729D8A454D05F
:100238000F01059773C078F074C079F075C07AF033
:1002480076C07BF0040E06D00001D8907B337A3359
:1002580079337833E82EF8D778C07DF079C07EF00E
:100268007AC07FF07BC080F000017D5100017D6F76
:100278007E6B7F6B806B7DC004FF070E00017315DA
:1002880000017D6F000E0001741500017E6F000EE5
:100298000001751500017F6F000E00017615000141
:1002A800806F7DC078F07EC079F07FC07AF080C022
:1002B8007BF0050ED8900001783779377A377B378D
:1002C800E82EF8D778C07DF079C07EF07AC07FF04C
:1002D8007BC080F07DC005FF020E00017C19D8A408
:1002E80058D000017729D8A454D00F01099773C0BA
:1002F80078F074C079F075C07AF076C07BF0040E9F
:1003080006D00001D8907B337A3379337833E82EDE
:10031800F8D778C07DF079C07EF07AC07FF07BC0D6
:1003280080F000017D5100017D6F7E6B7F6B806BDB
:100338007DC008FF070E0001731500017D6F000ED8
:100348000001741500017E6F000E00017515000193
:100358007F6F000E000176150001806F7DC078F078
:100368007EC079F07FC07AF080C07BF0050ED8900F
:100378000001783779377A377B37E82EF8D778C095
:100388007DF079C07EF07AC07FF07BC080F07DC0C0
:1003980009FF030E00017C19D8A458D00001772961
:1003A800D8A454D00F010D9773C078F074C079F0B9
:1003B80075C07AF076C07BF0040E06D00001D890A4
:1003C8007B337A3379337833E82EF8D778C07DF0E9
:1003D80079C07EF07AC07FF07BC080F000017D514B
:1003E80000017D6F7E6B7F6B806B7DC00CFF070EFD
:1003F8000001731500017D6F000E000174150001E6
:100408007E6F000E0001751500017F6F000E000160
:1004180076150001806F7DC078F07EC079F07FC0CE
:100428007AF080C07BF0050ED890000178377937D4
:100438007A377B37E82EF8D778C07DF079C07EF020
:100448007AC07FF07BC080F07DC00DFF040E0001F4
:100458007C19D8A458D000017729D8A454D00F010A
:10046800119773C078F074C079F075C07AF076C0CF
:100478007BF0040E06D00001D8907B337A337933B1
:100488007833E82EF8D778C07DF079C07EF07AC04E
:100498007FF07BC080F000017D5100017D6F7E6B95
:1004A8007F6B806B7DC010FF070E00017315000184
:1004B8007D6F000E0001741500017E6F000E0001B3
:1004C800751500017F6F000E000176150001806F21
:1004D8007DC078F07EC079F07FC07AF080C07BF074
:1004E800050ED8900001783779377A377B37E82EB0
:1004F800F8D778C07DF079C07EF07AC07FF07BC0F5
:1005080080F07DC011FF050E00017C19D8A458D0D9
:1005180000017729D8A454D00F01159773C078F03B
:1005280074C079F075C07AF076C07BF0040E06D0FE
:100538000001D8907B337A3379337833E82EF8D7B3
:1005480078C07DF079C07EF07AC07FF07BC080F003
:1005580000017D5100017D6F7E6B7F6B806B7DC0DC
:1005680014FF070E0001731500017D6F000E0001D6
:10057800741500017E6F000E0001751500017F6F74
:10058800000E000176150001806F7DC078F07EC0F6
:1005980079F07FC07AF080C07BF0050ED89000011A
:1005A800783779377A377B37E82EF8D778C07DF0F7
:1005B80079C07EF07AC07FF07BC080F07DC015FFE7
:1005C80000017C510001D8A489D0F70E00017719E9
:1005D800D8A484D00F0101870001735100017D6FF9
:1005E8007E6B7F6B806B7DC003FF000E000173156F
:1005F80000017D6FFF0E0001741500017E6F000E73
:100608000001751500017F6F000E000176150001CD
:10061800806F7DC078F07EC079F07FC07AF080C0AE
:100628007BF079C078F07AC079F07BC07AF000016D
:100638007B6B78C07DF079C07EF07AC07FF07BC09C
:1006480080F07DC002FF000175A103D00F01018178
:1006580002D00F010191000175A303D00F0101839E
:1006680002D00F010193000175A503D00F01018B82
:1006780002D00F01019B000175A703D00F01018D66
:1006880002D00F01019D000175A903D00F01018F50
:1006980002D00F01019F73C078F074C079F075C063
:1006A8007AF076C07BF0160E06D00001D8907B3326
:1006B8007A3379337833E82EF8D778C07DF079C06B
:1006C8007EF07AC07FF07BC080F000017D51000190
:1006D8007D6F7E6B7F6B806B7DC000FF00017C05AA
:1006E800D8A489D0F70E00017719D8A484D00F01B7
:1006F80005870001735100017D6F7E6B7F6B806BF6
:100708007DC007FF000E0001731500017D6FFF0E0D
:100718000001741500017E6F000E000175150001BF
:100728007F6F000E000176150001806F7DC078F0A4
:100738007EC079F07FC07AF080C07BF079C078F015
:100748007AC079F07BC07AF000017B6B78C07DF0CD
:1007580079C07EF07AC07FF07BC080F07DC006FF54
:10076800000175A103D00F01058102D00F01059189
:10077800000175A303D00F01058302D00F01059373
:10078800000175A503D00F01058B02D00F01059B51
:10079800000175A703D00F01058D02D00F01059D3B
:1007A800000175A903D00F01058F02D00F01059F25
:1007B80073C078F074C079F075C07AF076C07BF0B9
:1007C800160E06D00001D8907B337A33793378330C
:1007D800E82EF8D778C07DF079C07EF07AC07FF037
:1007E8007BC080F000017D5100017D6F7E6B7F6BC7
:1007F800806B7DC004FF020E00017C19D8A489D04B
:10080800F70E00017719D8A484D00F0109870001D9
:10081800735100017D6F7E6B7F6B806B7DC00BFF1A
:10082800000E0001731500017D6FFF0E00017415A5
:1008380000017E6F000E0001751500017F6F000E2C
:10084800000176150001806F7DC078F07EC079F0D8
:100858007FC07AF080C07BF079C078F07AC079F0F8
:100868007BC07AF000017B6B78C07DF079C07EF0A8
:100878007AC07FF07BC080F07DC00AFF000175A1BF
:1008880003D00F01098102D00F010991000175A35E
:1008980003D00F01098302D00F010993000175A548
:1008A80003D00F01098B02D00F01099B000175A726
:1008B80003D00F01098D02D00F01099D000175A910
:1008C80003D00F01098F02D00F01099F73C078F080
:1008D80074C079F075C07AF076C07BF0160E06D039
:1008E8000001D8907B337A3379337833E82EF8D700
:1008F80078C07DF079C07EF07AC07FF07BC080F050
:1009080000017D5100017D6F7E6B7F6B806B7DC028
:1009180008FF030E00017C19D8A489D0F70E000146
:100928007719D8A484D00F010D87000173510001F5
:100938007D6F7E6B7F6B806B7DC00FFF000E0001AB
:10094800731500017D6FFF0E0001741500017E6FA5
:10095800000E0001751500017F6F000E000176156D
:100968000001806F7DC078F07EC079F07FC07AF09A
:1009780080C07BF079C078F07AC079F07BC07AF0DB
:1009880000017B6B78C07DF079C07EF07AC07FF083
:100998007BC080F07DC00EFF000175A103D00F0160
:1009A8000D8102D00F010D91000175A303D00F0135
:1009B8000D8302D00F010D93000175A503D00F011F
:1009C8000D8B02D00F010D9B000175A703D00F01FD
:1009D8000D8D02D00F010D9D000175A903D00F01E7
:1009E8000D8F02D00F010D9F73C078F074C079F09D
:1009F80075C07AF076C07BF0160E06D00001D8904C
:100A08007B337A3379337833E82EF8D778C07DF0A2
:100A180079C07EF07AC07FF07BC080F000017D5104
:100A280000017D6F7E6B7F6B806B7DC00CFF040EB9
:100A380000017C19D8A489D0F70E00017719D8A431
:100A480084D00F0111870001735100017D6F7E6B07
:100A58007F6B806B7DC013FF000E000173150001D2
:100A68007D6FFF0E0001741500017E6F000E0001FE
:100A7800751500017F6F000E000176150001806F6B
:100A88007DC078F07EC079F07FC07AF080C07BF0BE
:100A980079C078F07AC079F07BC07AF000017B6B7E
:100AA80078C07DF079C07EF07AC07FF07BC080F09E
:100AB8007DC012FF000175A103D00F01118102D082
:100AC8000F011191000175A303D00F01118302D00A
:100AD8000F011193000175A503D00F01118B02D0EE
:100AE8000F01119B000175A703D00F01118D02D0D2
:100AF8000F01119D000175A903D00F01118F02D0BC
:100B08000F01119F73C078F074C079F075C07AF046
:100B180076C07BF0160E06D00001D8907B337A336E
:100B280079337833E82EF8D778C07DF079C07EF035
:100B38007AC07FF07BC080F000017D5100017D6F9D
:100B48007E6B7F6B806B7DC010FF050E00017C19EA
:100B5800D8A41200F70E00017719D8A412000F01CB
:100B680015870001735100017D6F7E6B7F6B806B71
:100B78007DC017FF000E0001731500017D6FFF0E89
:100B88000001741500017E6F000E0001751500014B
:100B98007F6F000E000176150001806F7DC078F030
:100BA8007EC079F07FC07AF080C07BF079C078F0A1
:100BB8007AC079F07BC07AF000017B6B78C07DF059
:100BC80079C07EF07AC07FF07BC080F07DC016FFD0
:100BD800000175A103D00F01158102D00F011591F5
:100BE800000175A303D00F01158302D00F011593DF
:100BF800000175A503D00F01158B02D00F01159BBD
:100C0800000175A703D00F01158D02D00F01159DA6
:100C1800000175A903D00F01158F02D00F01159F90
:100C280073C078F074C079F075C07AF076C07BF044
:100C3800160E06D00001D8907B337A337933783397
:100C4800E82EF8D778C07DF079C07EF07AC07FF0C2
:100C58007BC080F000017D5100017D6F7E6B7F6B52
:100C6800806B7DC014FF12000F0140B73FD179C0DF
:100C780045FF00017AAD03D00F01458D02D00F0169
:100C8800459D00017AA779D00001735100017F6F5B
:100C9800806B816B826B7FC044FF000E000173156F
:100CA80000017F6FFF0E000174150001806F000EB8
:100CB800000175150001816F000E00017615000115
:100CC800826F7FC07BF080C07CF081C07DF082C0E5
:100CD8007EF07CC07BF07DC07CF07EC07DF00001A2
:100CE8007E6B7BC07FF07CC080F07DC081F07EC0D1
:100CF80082F07FC043FF000E0F01426F0F01428751
:100D0800000175A102D00F014281000175A302D034
:100D18000F014283000175A502D00F01428B00012B
:100D280075A702D00F01428D000175A902D00F01ED
:100D3800428F73C07BF074C07CF075C07DF076C0C4
:100D48007EF0160E06D00001D8907E337D337C33BA
:100D58007B33E82EF8D77BC07FF07CC080F07DC065
:100D680081F07EC082F000017F5100017F6F806BAF
:100D7800816B826B7FC041FF59D00F01429773C0CE
:100D88007BF074C07CF075C07DF076C07EF0040EF8
:100D980006D00001D8907E337D337C337B33E82E38
:100DA800F8D77BC07FF07CC080F07DC081F07EC02A
:100DB80082F000017F5100017F6F806B816B826B35
:100DC8007FC041FF070E0001731500017F6F000E01
:100DD800000174150001806F000E000175150001F7
:100DE800816F000E000176150001826F7FC07BF0D5
:100DF80080C07CF081C07DF082C07EF0050ED89066
:100E080000017B377C377D377E37E82EF8D77BC0EB
:100E18007FF07CC080F07DC081F07EC082F00F0141
:100E280042511F0B0F01426F7FC042FF00017AA1A0
:100E380003D00F01408102D00F01409100017AA335
:100E480003D00F01408302D00F01409377C0D9FF30
:100E580078C0DAFFDF500F01466F000120EE01F085
:100E68007751D9267851DA22DF500F01476F0001F8
:100E780020EE02F07751D9267851DA22DF500F019F
:100E8800486F000120EE03F07751D9267851DA2215
:100E9800DF500F01496F000120EE04F07751D92689
:100EA8007851DA22DF500F014A6F000120EE05F079
:100EB8007751D9267851DA22DF500F014B6F0001A4
:100EC80020EE06F07751D9267851DA22DF500F014B
:100ED8004C6F000120EE07F07751D9267851DA22BD
:100EE800DF500F014D6F0F01408712000F0130B71F
:100EF8003FD179C035FF00017AAD03D00F01358DA0
:100F080002D00F01359D00017AA779D000017351F5
:100F180000017F6F806B816B826B7FC034FF000E96
:100F28000001731500017F6FFF0E000174150001A9
:100F3800806F000E000175150001816F000E000121
:100F480076150001826F7FC07BF080C07CF081C085
:100F58007DF082C07EF07CC07BF07DC07CF07EC0DE
:100F68007DF000017E6B7BC07FF07CC080F07DC08F
:100F780081F07EC082F07FC033FF000E0F01326F18
:100F88000F013287000175A102D00F0132810001E3
:100F980075A302D00F013283000175A502D00F019D
:100FA800328B000175A702D00F01328D000175A99F
:100FB80002D00F01328F73C07BF074C07CF075C013
:100FC8007DF076C07EF0160E06D00001D8907E33F4
:100FD8007D337C337B33E82EF8D77BC07FF07CC031
:100FE80080F07DC081F07EC082F000017F51000159
:100FF8007F6F806B816B826B7FC031FF59D00F018F
:10100800329773C07BF074C07CF075C07DF076C0F9
:101018007EF0040E06D00001D8907E337D337C33F9
:101028007B33E82EF8D77BC07FF07CC080F07DC092
:1010380081F07EC082F000017F5100017F6F806BDC
:10104800816B826B7FC031FF070E000173150001B1
:101058007F6F000E000174150001806F000E000103
:1010680075150001816F000E000176150001826F71
:101078007FC07BF080C07CF081C07DF082C07EF0B4
:10108800050ED89000017B377C377D377E37E82EF8
:10109800F8D77BC07FF07CC080F07DC081F07EC037
:1010A80082F00F0132511F0B0F01326F7FC032FFE8
:1010B80000017AA103D00F01308102D00F013091D5
:1010C80000017AA303D00F01308302D00F013093BF
:1010D80077C0D9FF78C0DAFFDF500F01366F000103
:1010E80020EE01F07751D9267851DA22DF500F012E
:1010F800376F000120EE02F07751D9267851DA22B5
:10110800DF500F01386F000120EE03F07751D92628
:101118007851DA22DF500F01396F000120EE04F018
:101128007751D9267851DA22DF500F013A6F000142
:1011380020EE05F07751D9267851DA22DF500F01D9
:101148003B6F000120EE06F07751D9267851DA225C
:10115800DF500F013C6F000120EE07F07751D926D0
:101168007851DA22DF500F013D6F0F0130871200EE
:101178000F0120B7120079C025FF00017AAD03D016
:101188000F01258D02D00F01259D00017AA779D086
:101198000001735100017F6F806B816B826B7FC090
:1011A80024FF000E0001731500017F6FFF0E000180
:1011B80074150001806F000E000175150001816F24
:1011C800000E000176150001826F7FC07BF080C0A1
:1011D8007CF081C07DF082C07EF07CC07BF07DC059
:1011E8007CF07EC07DF000017E6B7BC07FF07CC010
:1011F80080F07DC081F07EC082F07FC023FF000EAA
:101208000F01226F0F012287000175A102D00F0183
:101218002281000175A302D00F012283000175A568
:1012280002D00F01228B000175A702D00F01228D79
:10123800000175A902D00F01228F73C07BF074C022
:101248007CF075C07DF076C07EF0160E06D00001E9
:10125800D8907E337D337C337B33E82EF8D77BC040
:101268007FF07CC080F07DC081F07EC082F00001FC
:101278007F5100017F6F806B816B826B7FC021FF84
:1012880059D00F01229773C07BF074C07CF075C0F1
:101298007DF076C07EF0040E06D00001D8907E3333
:1012A8007D337C337B33E82EF8D77BC07FF07CC05E
:1012B80080F07DC081F07EC082F000017F51000186
:1012C8007F6F806B816B826B7FC021FF070E0001EF
:1012D800731500017F6F000E000174150001806F07
:1012E800000E000175150001816F000E00017615D2
:1012F8000001826F7FC07BF080C07CF081C07DF0F0
:1013080082C07EF0050ED89000017B377C377D3790
:101318007E37E82EF8D77BC07FF07CC080F07DC098
:1013280081F07EC082F00F0122511F0B0F01226F46
:101338007FC022FF00017AA103D00F01208102D0D3
:101348000F01209100017AA303D00F01208302D05E
:101358000F01209377C0D9FF78C0DAFFDF500F0163
:10136800266F000120EE01F07751D9267851DA2254
:10137800DF500F01276F000120EE02F07751D926C8
:101388007851DA22DF500F01286F000120EE03F0B8
:101398007751D9267851DA22DF500F01296F0001E1
:1013A80020EE04F07751D9267851DA22DF500F0168
:1013B8002A6F000120EE05F07751D9267851DA22FC
:1013C800DF500F012B6F000120EE06F07751D92670
:1013D8007851DA22DF500F012C6F000120EE07F060
:1013E8007751D9267851DA22DF500F012D6F0F017E
:1013F80020871200B1EC19F08268000E00017A6FA4
:10140800640E796F01EC1CF0000E826E000E000174
:101418007A6F640E796F01EC1CF0DD0ED76EA00EAA
:10142800D66ED58E450E0E6E880E0D6EBFEC1BF077
:10143800D5C018F1D6C019F1D7C01AF1D8C01BF120
:101448000101181F191F1A1F1B1F182B000E192323
:101458001A231B2305500101182501011C6F065092
:101468000101192101011D6F075001011A21010114
:101478001E6F085001011B2101011F6F01011F513F
:1014880001011E1101011D1105E1030E01011C5D81
:10149800D8A026D10001E9510101186F196B01018B
:1014A800181F191F184B192B0001E75101011A6F5A
:1014B8001B6B0101185101011A2701011951010182
:1014C8001B2301011BBF81D001011B5104E1010154
:1014D8001A05D8A07AD00001E9510101186F196BDB
:1014E8000101181F191F184B192B0001E7510101A1
:1014F8001A6F1B6B0101185101011A2701011951BB
:1015080001011B2301011BBF0AD001011B5105E189
:10151800330E01011A5DD8A002D0140E23D00001A9
:10152800E9510101186F196B0101181F191F184B98
:10153800192B0001E75101011A6F1B6B01011851AA
:1015480001011A270101195101011B2301011BBFC8
:1015580019D001011B5105E1150E01011A5DD8A032
:1015680011D0050E0001CD250001CD6F000E000140
:10157800CE210001CE6F000E0001CF210001CF6FF8
:10158800000E47D00001E9510101186F196B0101E4
:10159800181F191F184B192B0001E75101011A6F69
:1015A8001B6B0101185101011A2701011951010191
:1015B8001B2301011BBF83D001011B5104E1050E50
:1015C80001011A5DD8B082D07AD00001E75101013B
:1015D800186F196B0101181F191F184B192B0001DF
:1015E800E95101011A6F1B6B0101185101011A27FA
:1015F8000101195101011B2301011BBF0FD001017A
:101608001B5105E1330E01011A5DD8A007D0EC0E7D
:1016180028D00001D0210001D06F58D00001E75137
:101628000101186F196B0101181F191F184B192B8D
:101638000001E95101011A6F1B6B010118510101E9
:101648001A270101195101011B2301011BBF19D0E0
:1016580001011B5105E1150E01011A5DD8A011D039
:10166800FB0E0001CD250001CD6FFF0E0001CE213C
:101678000001CE6FFF0E0001CF210001CF6FFF0EDA
:10168800C8D70001E7510101186F196B0101181F34
:10169800191F184B192B0001E95101011A6F1B6B17
:1016A8000101185101011A270101195101011B23D8
:1016B80001011BBF04D001011B5108E180D70001C3
:1016C800E7510001CD6FCE6BCF6BD06BCDC0E9F089
:1016D80005C0D5F006C0D6F007C0D7F008C0D8F0CE
:1016E80082B000D1000E00019E6F000E9F6F000EA9
:1016F800A06F3F0EA16F5A0E0001836F000E846F1A
:10170800000E856F000E866FCDC073F0CEC074F0EA
:10171800CFC075F0D0C076F0BC0E0001776F020E16
:10172800786F000E796F000E7A6F55EC1BF073C05E
:101738007FF074C080F075C081F076C082F024EC30
:101748001AF0200E00017F2500018C6F030E0001A6
:10175800802100018D6F000E0001812100018E6F34
:10176800000E0001822100018F6F000E61EC17F05E
:101778008CC09AF08DC09BF08EC09CF08FC09DF0FD
:10178800B2EC13F09AC010F19BC011F19CC012F199
:101798009DC013F12BEC19F010C1D9F011C1DAF08A
:1017A80012C1DBF013C1DCF0D9C018F1DAC019F1AD
:1017B8000101181F191F184B192B18C10FF019C157
:1017C80010F0000E0101046F400E056F9C0E066FAD
:1017D800460E076F000E00019E6F000E9F6F000EF1
:1017E800A06F3F0EA16FD9C08CF0DAC08DF0DBC0BE
:1017F8008EF0DCC08FF0000E61EC17F08CC09AF010
:101808008DC09BF08EC09CF08FC09DF05FEC11F0F6
:101818009AC0B3F09BC0B4F09CC0B5F09DC0B6F0C0
:101828001EEC1CF0B3C000F1B4C001F1B5C002F168
:10183800B6C003F10BEC0FF000C110F101C111F1BA
:1018480002C112F103C113F12BEC19F010C10DF014
:1018580011C10EF0000E0101046F000E056F800E1D
:10186800066F470E076F000E00019E6F000E9F6FF8
:10187800000EA06F3F0EA16F0DC08CF00EC08DF052
:1018880000018E6B8F6B000E61EC17F08CC09AF024
:101898008DC09BF08EC09CF08FC09DF0B2EC13F011
:1018A8009AC0B3F09BC0B4F09CC0B5F09DC0B6F030
:1018B8001EEC1CF0B3C000F1B4C001F1B5C002F1D8
:1018C800B6C003F10BEC0FF000C110F101C111F12A
:1018D80002C112F103C113F12BEC19F010C10DF084
:1018E80011C10EF045B0E2EC1BF095EC1CF0E806D7
:1018F800D8B405D09BEC1CF0E806D8A497D5808A0C
:1019080095D5000E2E6E74BE2E8074BC2E820F01EB
:1019180050AF43D124C0D9FF25C0DAFFDE6ADE6AA2
:10192800DE6ADD6A20EE04F02450D9262550DA223A
:1019380056CFDFFF20EE05F02450D9262550DA22B5
:1019480057CFDFFF20EE06F02450D9262550DA22A3
:1019580058CFDFFF20EE07F02450D9262550DA2291
:1019680059CFDFFF20EE08F02450D9262550DA227F
:101978005ACFDFFF20EE09F02450D9262550DA226D
:101988005BCFDFFF20EE0AF02450D9262550DA225B
:101998005CCFDFFF20EE0BF02450D9262550DA2249
:1019A8005DCFDFFF20EE0EF02450D9262550DA2235
:1019B8000F0155AD02D0010E01D0000EDF6E20EEF2
:1019C8000DF02450D9262550DA220F0155510F0B5E
:1019D800DF6E20EE0CF02450D9262550DA220F01B4
:1019E80052A702D0010E01D0000EDF6E0F0152B7D0
:1019F80044D051CF26F0276A286A296A030ED89066
:101A08002636273628362936E82EF9D724C0D9FFB6
:101A180025C0DAFF26C0DEFF27C0DEFF28C0DEFFB4
:101A280029C0DEFF0F015239E842070B070B2F6E62
:101A380024C0D9FF25C0DAFFDECF26F0DECF27F09D
:101A4800DECF28F0DECF29F02F5026242A6E000E94
:101A580027202B6E000E28202C6E000E29202D6EBC
:101A680024C0D9FF25C0DAFF2AC0DEFF2BC0DEFF65
:101A78002CC0DEFF2DC0DEFF8DD054CF26F0276AA4
:101A8800286A296A24C0D9FF25C0DAFF26C0DEFFEC
:101A980027C0DEFF28C0DEFF29C0DEFF53CF26F0B7
:101AA800276A286A296A28C029F027C028F026C092
:101AB80027F0266A24C0D9FF25C0DAFF2650DE2683
:101AC8002750DE222850DE222950DE220F0152A1A3
:101AD8000CD024C0D9FF25C0DAFF000EDE12000E9C
:101AE800DE12010EDE12000EDE120F0152A30CD020
:101AF80024C0D9FF25C0DAFF000EDE12000EDE1268
:101B0800020EDE12000EDE120F0152AB0CD024C002
:101B1800D9FF25C0DAFF000EDE12000EDE12040E19
:101B2800DE12000EDE120F0152AD0CD024C0D9FF18
:101B380025C0DAFF000EDE12000EDE12080EDE12DD
:101B4800000EDE120F0152AF0CD024C0D9FF25C001
:101B5800DAFF000EDE12000EDE12100EDE12000E8C
:101B6800DE1251CF26F0276A286A296A150ED89006
:101B78002636273628362936E82EF9D724C0D9FF45
:101B880025C0DAFF2650DE122750DE122850DE125A
:101B98002950DE120F01509F120060AE120024C0BF
:101BA800D9FF25C0DAFFDE6ADE6ADE6ADD6A20EE6A
:101BB80004F02450D9262550DA2266CFDFFF20EE24
:101BC80005F02450D9262550DA2267CFDFFF20EE12
:101BD80006F02450D9262550DA2268CFDFFF20EE00
:101BE80007F02450D9262550DA2269CFDFFF20EEEE
:101BF80008F02450D9262550DA226ACFDFFF20EEDC
:101C080009F02450D9262550DA226BCFDFFF20EEC9
:101C18000AF02450D9262550DA226CCFDFFF20EEB7
:101C28000BF02450D9262550DA226DCFDFFF20EEA5
:101C38000EF02450D9262550DA2265AC02D0010EC8
:101C480001D0000EDF6E20EE0DF02450D92625506D
:101C5800DA2265500F0BDF6E20EE0CF02450D926E7
:101C68002550DA2262A602D0010E01D0000EDF6EE6
:101C780062B643D061CF26F0276A286A296A030E24
:101C8800D8902636273628362936E82EF9D724C0A4
:101C9800D9FF25C0DAFF26C0DEFF27C0DEFF28C037
:101CA800DEFF29C0DEFF6238E842070B070B2F6E04
:101CB80024C0D9FF25C0DAFFDECF26F0DECF27F01B
:101CC800DECF28F0DECF29F02F5026242A6E000E12
:101CD80027202B6E000E28202C6E000E29202D6E3A
:101CE80024C0D9FF25C0DAFF2AC0DEFF2BC0DEFFE3
:101CF8002CC0DEFF2DC0DEFF88D064CF26F0276A17
:101D0800286A296A24C0D9FF25C0DAFF26C0DEFF69
:101D180027C0DEFF28C0DEFF29C0DEFF63CF26F024
:101D2800276A286A296A28C029F027C028F026C00F
:101D380027F0266A24C0D9FF25C0DAFF2650DE2600
:101D48002750DE222850DE222950DE2262A00CD045
:101D580024C0D9FF25C0DAFF000EDE12000EDE1205
:101D6800010EDE12000EDE1262A20CD024C0D9FFD2
:101D780025C0DAFF000EDE12000EDE12020EDE12A1
:101D8800000EDE1262AA0CD024C0D9FF25C0DAFFEB
:101D9800000EDE12000EDE12040EDE12000EDE123F
:101DA80062AC0CD024C0D9FF25C0DAFF000EDE12C9
:101DB800000EDE12080EDE12000EDE1262AE0CD02D
:101DC80024C0D9FF25C0DAFF000EDE12000EDE1295
:101DD800100EDE12000EDE1261CF26F0276A286A86
:101DE800296A150ED8902636273628362936E82E41
:101DF800F9D724C0D9FF25C0DAFF2650DE122750B4
:101E0800DE122850DE122950DE12609E12000101F7
:101E18000351800B0001B76F010103510325000135
:101E2800B96F010102AF02D00001B9810001B951B7
:101E38000001D8B412D00001B929D8A409D0000EE5
:101E48000101006F000E016F000E026F000E036F9C
:101E58000101028F000E010108D0000E0101006F80
:101E6800000E016F000E026F000E036F0101075193
:101E7800800B0001B86F0001B7510001B819D8B440
:101E880002D00001B78D0101075107250001B86F85
:101E9800010106AF02D00001B8810001B85100016C
:101EA800D8B412D00001B829D8A409D0000E010175
:101EB800046F000E056F000E066F000E076F01011C
:101EC800068F000E010108D0000E0101046F000EFC
:101ED800056F000E066F000E076F0001B951000173
:101EE800B85DD8B024D00001B7AD03D0800E000192
:101EF800B71BB9C0BAF0B8C0B9F0BAC0B8F000C1E1
:101F0800BAF004C100F1BAC004F101C1BAF005C1C8
:101F180001F1BAC005F102C1BAF006C102F1BAC0B6
:101F280006F103C1BAF007C103F1BAC007F1000E08
:101F38000001BA6F0001B9510101086F096B010175
:101F4800081F091F084B092B0001B85101010A6F2E
:101F58000B6B0101085101010A2701010951010117
:101F68000B2301010BBF3DD001010B5105E11A0EF6
:101F780001010A5DD8A035D001010051010101110C
:101F88000101021101010311D8B402D0010E01D0E0
:101F9800000E0001BA6F000E0101006F000E016F04
:101FA800000E026F000E036FB8C0B9F020D0000118
:101FB800BAA107D00001D890BA3101090001BA6F5F
:101FC80003D00001D890BA33010100A102D000016A
:101FD800BA8F0101033503330233013300330001A3
:101FE800B92B0001B8510001B95DD8A0E0D70001B4
:101FF800B7BD3FD00001B9510001D8A40AD0000EE6
:102008000101006F000E016F000E026F000E036FDA
:1020180012000101045101010027010105510101CC
:1020280001230101065101010223010107510101A8
:102038000323010103A1CCD00001BAA109D00001FA
:10204800D890BA330001BA5101090001BA6F03D020
:102058000001D890BA33010100A102D00001BA8F63
:102068000101033503330233013300330001B92B77
:10207800AFD0010104510101005D010105510101C9
:102088000159010106510101025901010351800A58
:102098000101086F01010751800A01010859D8B0F0
:1020A80050D000C108F101C109F102C10AF103C110
:1020B8000BF10101081F091F0A1F0B1F082B000E37
:1020C80009230A230B2301010451010108250101F9
:1020D8000C6F010105510101092101010D6F010179
:1020E800065101010A2101010E6F01010751010189
:1020F8000B2101010F6FFF0E01010C250101006F7B
:10210800FF0E01010D210101016FFF0E01010E21DA
:102118000101026FFF0E01010F210101036F800E03
:102128000001B71B0001BA6D0001BA510001D8A423
:1021380018D0010E01010027000E012302230323FA
:1021480010D0010104510101005F01010551010195
:10215800015B010106510101025B01010751010107
:10216800035B01010051010101110101021101018B
:102178000311D8A42AD00001BA510001D8A425D04F
:10218800000E0101006F000E016F000E026F000EBD
:10219800036F12000101D890003701370237033767
:1021A8000001BAAF02D0010100810001BAA103D039
:1021B800D880000102D00001D890BA370001B95187
:1021C8000001D8B402D00001B907010102AFE2D77B
:1021D800000E0001B86F0001BAAF0DD0BAC008F107
:1021E8007F0E01010817D8A403D0010100A103D074
:1021F800010E0001B86F0001B8510001D8B426D013
:10220800010E01010027000E01230223032301010F
:1022180003A11CD000C108F101C109F102C10AF1F2
:1022280003C10BF101010B350B330A3309330833B2
:1022380008C100F109C101F10AC102F10BC103F1A2
:102248000001B929D8B402D00001B92B0001B9297D
:10225800D8B405D00001B9510001D8A411D0000E9E
:102268000101006F000E016F000E026F000E036F78
:102278000001B9510001D8A403D0000E0001B76FC6
:102288000001B9A103D00101028F02D00101029F10
:102298000001D890B9310101036F0001B7AF02D036
:1022A8000101038F00C100F101C101F102C102F176
:1022B80003C103F1120000019D51800B0001A66FBC
:1022C80000019D519D250001AC6F00019CAF02D01B
:1022D8000001AC810001AC510001D8B410D000015C
:1022E800AC29D8A409D0000E00019A6F000E9B6F8C
:1022F800000E9C6F000E9D6F00019C8F09D0000E90
:1023080000019A6F000E9B6F000E9C6F000E9D6F70
:102318000001A151800B0001A61B0001A151A125BC
:102328000001AB6F0001A0AF02D00001AB8100013A
:10233800AB510001D8B410D00001AB29D8A409D002
:10234800000E00019E6F000E9F6F000EA06F000E22
:10235800A16F0001A08F09D0000E00019E6F000E32
:102368009F6F000EA06F000EA16F0001AB5100011E
:10237800D8B405D00001AC510001D8A40AD0000E91
:1023880000019A6F000E9B6F000E9C6F000E9D6FF0
:1023980012000001A05100019A03F3CFB1F0F4CF6D
:1023A800B2F00001B1510001A76FA86BA96BAA6B2D
:1023B8000001B2510001AD6FAE6BAF6BB06B0001A5
:1023C8009F5100019B03F3CFB1F0F4CFB2F00001AD
:1023D800B1510001A727000EA823A923AA230001B1
:1023E800B2510001AD27000EAE23AF23B023000188
:1023F8009E5100019C03F3CFB1F0F4CFB2F000017D
:10240800B1510001A727000EA823A923AA23000180
:10241800B2510001AD27000EAE23AF23B023A9C0EF
:10242800AAF0A8C0A9F0A7C0A8F00001A76B0001F6
:102438009E5100019B03F3CFB1F0F4CFB2F000013D
:10244800B1510001A7270001B2510001A823000ED5
:102458000001A923000E0001AA2300019F510001D9
:102468009A03F3CFB1F0F4CFB2F00001B1510001FB
:10247800A7270001B2510001A823000E0001A923DB
:10248800000E0001AA23A9C0AAF0A8C0A9F0A7C0FD
:10249800A8F00001A76B00019E5100019A03F3CF39
:1024A800B1F0F4CFB2F00001B1510001A72700014B
:1024B800B2510001A823000E0001A923000E00015B
:1024C800AA230001A05100019B03F3CFB1F0F4CF80
:1024D800B2F00001B1510001AD270001B251000175
:1024E800AE23000E0001AF23000E0001B02300014F
:1024F8009F5100019C03F3CFB1F0F4CFB2F000017B
:10250800B1510001AD270001B2510001AE23000E08
:102518000001AF23000E0001B0230001A05100010B
:102528009C03F3CFB1F0F4CFB2F00001B151000138
:10253800A26F0001B2510001A36F0001A46B00015A
:10254800A56BA4C0A5F0A3C0A4F0A2C0A3F000018D
:10255800A26B0001A2510001AD270001A3510001A7
:10256800AE230001A4510001AF230001A5510001D1
:10257800B023A7C0A2F0A8C0A3F0A9C0A4F0AAC025
:10258800A5F0190E06D00001D890A533A433A333C3
:10259800A233E82EF8D70001A2510001AD270001AF
:1025A800A3510001AE230001A4510001AF23000193
:1025B800A5510001B023A9C0AAF0A8C0A9F0A7C0DE
:1025C800A8F00001A76B0001AB51ACC0A2F000015C
:1025D800A36B0001A227000EA323820E0001A225EF
:1025E8000001B16FFF0E0001A3210001B26F15D0E9
:1025F8000001D890AD37AE37AF37B0370001AAAF7A
:1026080002D00001AD810001D890A737A837A937BB
:10261800AA370001B107D8A0B2070001AFAFE8D7C9
:10262800000E0001AB6F0001AAAF24D0FF0E00011D
:10263800A7150001A26FFF0E0001A8150001A36FE6
:10264800FF0E0001A9150001A46F7F0E0001AA1555
:102658000001A56F0001A2510001A3110001A411FE
:102668000001A511D8A403D00001ADA103D0010E2B
:102678000001AB6F0001AB510001D8B423D0010EAB
:102688000001AD27000EAE23AF23B0230001B0A197
:1026980019D0ADC0A2F0AEC0A3F0AFC0A4F0B0C0D6
:1026A800A5F00001A535A533A433A333A233A2C0F6
:1026B800ADF0A3C0AEF0A4C0AFF0A5C0B0F000016B
:1026C800B14BB22B0001B2BF10D00001B25104E1EE
:1026D8000001B129D8A009D0000E0001AD6F000E8D
:1026E800AE6F800EAF6F7F0E2BD00001B2BF07D048
:1026F8000001B25111E10001B105D8B00DD0000EB2
:102708000001AD6F000EAE6F000EAF6F000EB06F20
:10271800000E0001A66F15D0B1C0ACF0FF0E00018D
:10272800AD17FF0EAE177F0EAF17000EB0170001E2
:10273800ACA102D00001AF8F0001D890AC310001EC
:10274800B06F0001A6510001B013ADC09AF0AEC041
:102758009BF0AFC09CF0B0C09DF0120000019D51ED
:10276800800B0001A66F00019D519D250001B16FEE
:1027780000019CAF02D00001B1810001B1510001FC
:10278800D8B412D00001B129D8A409D0000E000194
:102798009A6F000E9B6F000E9C6F000E9D6F0001DC
:1027A8009C8F000E000108D0000E00019A6F000EE9
:1027B8009B6F000E9C6F000E9D6F0001A151800B56
:1027C8000001A61B0001A151A1250001B26F000163
:1027D800A0AF02D00001B2810001B2510001D8B40B
:1027E80012D00001B229D8A409D0000E00019E6FB2
:1027F800000E9F6F000EA06F000EA16F0001A08F4A
:10280800000E000108D0000E00019E6F000E9F6FA1
:10281800000EA06F000EA16F00019E5100019F11D4
:102828000001A0110001A111D8A417D0000E0001C9
:102838009A6F000E9B6F000E9C6F000E9D6F00013B
:10284800800E9C137F0E9D139AC09AF09BC09BF03C
:102858009CC09CF09DC09DF012000001B151000188
:10286800D8A412D0000E00019A6F000E9B6F000EC4
:102878009C6F000E9D6F9AC09AF09BC09BF09CC005
:102888009CF09DC09DF012000001B2510001A26FA2
:10289800A36B0001A21FA31FA24BA32B0001B151E0
:1028A8000001A46FA56B0001A2510001A42700013B
:1028B800A3510001A5237F0E0001A4250001AB6FE1
:1028C800000E0001A5210001AC6F9AC0A7F09BC0C3
:1028D800A8F09CC0A9F09DC0AAF0000E00019A6F54
:1028E800000E9B6F000E9C6F000E9D6F000E000186
:1028F800AD6F000EAE6F000EAF6F000EB06F000E22
:102908000001B26F42D00001B2510001D8B417D013
:102918000001D890A737A837A937AA370001D8905F
:102928009A379B379C379D370001B0AF02D0000122
:102938009A810001D890AD37AE37AF37B037000174
:102948009E510001A75D00019F510001A859000197
:10295800A0510001A9590001A1510001AA59D8A00C
:1029680012D00001B08D00019E510001A75F000147
:102978009F510001A85B0001A0510001A95B000163
:10298800A1510001AA5B0001B22B190E0001B2652A
:10299800BAD70001A7510001A8110001A91100012F
:1029A800AA11D8B418D00001AD8115D00001D89073
:1029B8009A379B379C379D370001B0AF02D0000192
:1029C8009A810001D890AD37AE37AF37B0370001E4
:1029D800AB07D8A0AC0700019CAFE8D7000E0001F8
:1029E800B26F0001B0AF24D0FF0E0001AD15000199
:1029F800A26FFF0E0001AE150001A36FFF0E0001CC
:102A0800AF150001A46F7F0E0001B0150001A56F7E
:102A18000001A2510001A3110001A4110001A51198
:102A2800D8A403D000019AA103D0010E0001B26F0F
:102A38000001B2510001D8B423D0010E00019A2739
:102A4800000E9B239C239D2300019DA119D09AC0B1
:102A5800A2F09BC0A3F09CC0A4F09DC0A5F000010B
:102A6800A535A533A433A333A233A2C09AF0A3C0DB
:102A78009BF0A4C09CF0A5C09DF00001AB4BAC2B13
:102A88000001ACBF14D00001AC5104E10001AB2936
:102A9800D8A00DD0000E0001AC6FAB69000E00018C
:102AA8009A6F000E9B6F000E9C6F000E9D6F0001C9
:102AB800ACBF07D00001AC5115E10001AB05D8B09F
:102AC80011D0000E0001AC6F000EAB6F000E0001BC
:102AD8009A6F000E9B6F000E9C6F000E9D6F000E8C
:102AE8000001A66FABC0B1F00001B1A103D0000195
:102AF8009C8F02D000019C9F0001D890B131000149
:102B08009D6F0001A65100019D139AC09AF09BC0C9
:102B18009BF09CC09CF09DC09DF0120000017C6F52
:102B280000017C05D8A456D000017729D8A452D03A
:102B380073C078F074C079F075C07AF076C07BF015
:102B4800040E06D00001D8907B337A33793378337A
:102B5800E82EF8D778C07DF079C07EF07AC07FF093
:102B68007BC080F000017D5100017D6F7E6B7F6B23
:102B7800806B7DC018FF070E0001731500017D6F83
:102B8800000E0001741500017E6F000E000175151E
:102B980000017F6F000E000176150001806F7DC077
:102BA80078F07EC079F07FC07AF080C07BF0050EA7
:102BB800D8900001783779377A377B37E82EF8D7FD
:102BC80078C07DF079C07EF07AC07FF07BC080F05D
:102BD8007DC019FF020E00017C19D8A456D000014F
:102BE8007729D8A452D073C078F074C079F075C032
:102BF8007AF076C07BF0040E06D00001D8907B33C3
:102C08007A3379337833E82EF8D778C07DF079C0F5
:102C18007EF07AC07FF07BC080F000017D5100011A
:102C28007D6F7E6B7F6B806B7DC01CFF070E000184
:102C3800731500017D6F000E0001741500017E6F91
:102C4800000E0001751500017F6F000E000176155A
:102C58000001806F7DC078F07EC079F07FC07AF087
:102C680080C07BF0050ED8900001783779377A3725
:102C78007B37E82EF8D778C07DF079C07EF07AC02F
:102C88007FF07BC080F07DC01DFF00017C05D8A4CB
:102C980087D0F70E00017719D8A482D000017351AC
:102CA80000017D6F7E6B7F6B806B7DC01BFF000E0C
:102CB8000001731500017D6FFF0E000174150001FE
:102CC8007E6F000E0001751500017F6F000E000178
:102CD80076150001806F7DC078F07EC079F07FC0E6
:102CE8007AF080C07BF079C078F07AC079F07BC048
:102CF8007AF000017B6B78C07DF079C07EF07AC0F5
:102D08007FF07BC080F07DC01AFF000175A103D061
:102D18000F01198102D00F011991000175A303D089
:102D28000F01198302D00F011993000175A503D073
:102D38000F01198B02D00F01199B000175A703D051
:102D48000F01198D02D00F01199D000175A903D03B
:102D58000F01198F02D00F01199F73C078F074C04A
:102D680079F075C07AF076C07BF0160E06D00001B7
:102D7800D8907B337A3379337833E82EF8D778C014
:102D88007DF079C07EF07AC07FF07BC080F00001D2
:102D98007D5100017D6F7E6B7F6B806B7DC018FF5E
:102DA800020E00017C19D8A41200F70E0001771951
:102DB800D8A412000001735100017D6F7E6B7F6BF8
:102DC800806B7DC01FFF000E0001731500017D6F31
:102DD800FF0E0001741500017E6F000E00017515CD
:102DE80000017F6F000E000176150001806F7DC025
:102DF80078F07EC079F07FC07AF080C07BF079C02F
:102E080078F07AC079F07BC07AF000017B6B78C0EB
:102E18007DF079C07EF07AC07FF07BC080F07DC005
:102E28001EFF000175A103D00F011D8102D00F0103
:102E38001D91000175A303D00F011D8302D00F015E
:102E48001D93000175A503D00F011D8B02D00F0142
:102E58001D9B000175A703D00F011D8D02D00F0126
:102E68001D9D000175A903D00F011D8F02D00F0110
:102E78001D9F73C078F074C079F075C07AF076C081
:102E88007BF0160E06D00001D8907B337A33793365
:102E98007833E82EF8D778C07DF079C07EF07AC014
:102EA8007FF07BC080F000017D5100017D6F7E6B5B
:102EB8007F6B806B7DC01CFF12000001946F0001C6
:102EC80094510001D8B41ED000018FAF1BD08CC024
:102ED80090F08DC091F08EC092F08FC093F00001F9
:102EE800901F911F921F931F902B000E91239223E6
:102EF800932390C096F091C097F092C098F093C039
:102F080099F008D08CC096F08DC097F08EC098F0DC
:102F18008FC099F000018C5100018D1100018E11B4
:102F280000018F11D8A40AD0000E00018C6F000E8A
:102F38008D6F000E8E6F000E8F6F1200960E0001BF
:102F4800956F08D00001952B0001D89099339833DC
:102F580097339633000E000196150001906F000E0E
:102F6800000197150001916F000E000198150001EE
:102F7800926FFE0E000199150001936F00019051A8
:102F8800000191110001921100019311D8B410D0E1
:102F9800D9D70001952B010E00019627000E972323
:102FA800982399230001D89099339833973396330F
:102FB800000E000196150001906F000E0001971594
:102FC8000001916F000E000198150001926FFF0E2D
:102FD800000199150001936F0001905100019111B2
:102FE8000001921100019311D8B409D0D2D7000181
:102FF80095070001D8909637973798379937000189
:1030080098BF04D0020E00019561F1D7000195B177
:1030180009D0FF0E00019617FF0E97177F0E98171D
:10302800FF0E99170001D890953395C090F00001D4
:10303800916B926B936B90C093F00001926B916BC4
:10304800906B00019051000196130001915100010D
:103058009713000192510001981300019351000148
:103068009913000194510001D8B405D000018FAF25
:1030780002D00001998F96C08CF097C08DF098C04F
:103088008EF099C08FF0120000018A6F800E67ECF5
:103098001CF0000E706E000E716E000E726E000154
:1030A8008341E842C00B0001836F00018351701215
:1030B80000018451701200018A5171120001813996
:1030C800E842F80B0001816F000181517112000183
:1030D80085A5718C000185B1718E00018251721233
:1030E800000185B3728C00018551600B606E000190
:1030F8008551100BFF0AD8B4608460CF50FF000ED2
:103108000001736F000E746F000E756F000E766FFE
:10311800F70E0001776F010E92EC15F0000E00011A
:10312800736F000E746F000E756F000E766FF70EDA
:103138000001776F020E92EC15F00FD0F70E000128
:103148008B6F07D000018B6900018C6928D00001C2
:103158008B69F70E00018C6F22D09F0E0001866FDD
:10316800FF0E0001876F00018551600B0001886F19
:10317800896B000186510001881300018751000105
:10318800891300018951000AD8A4E1D700018851A8
:10319800BF0AD8B4D7D7600AD8B4D0D7D8D7000ECA
:1031A8000001736F000E746F000E756F000E766F5E
:1031B8008BC077F0000EB5EC00F0000E0001736FC5
:1031C800000E746F000E756F000E766F8BC077F06F
:1031D800010EB5EC00F0000E0001736F000E746F65
:1031E800000E756F000E766F8CC077F0020EB5EC8E
:1031F80000F0000E0001736F000E746F000E756F03
:10320800000E766F8CC077F0030EB5EC00F0000E60
:103218000001736F000E746F000E756F000E766FED
:103228008CC077F0040EB5EC00F0000E0001736F4F
:10323800000E746F000E756F000E766F8CC077F0FD
:10324800050EB5EC00F0000E67EC1CF01200010151
:10325800123513350001BC6F0001BC51D8A40AD047
:10326800000E0101106F000E116F000E126F000E9C
:10327800136F120010C114F111C115F112C116F12A
:1032880013C117F1200E06D00101D8901733163359
:1032980015331433E82EF8D7010114510001BB6F20
:1032A8000101128FFF0E01011017FF0E1117FF0EFB
:1032B8001217000E1317960E0001BC5F0001BCAF79
:1032C8001AD00001BC51800A970FD8B00AD0000E5E
:1032D8000101106F000E116F000E126F000E136FB8
:1032E80012000101D8901333123311331033000147
:1032F800BC3FF7D71BD01F0E0001BC6512D0000ED3
:103308000101106F000E116F000E126F000E136F87
:1033180012000101D8901037113712371337000106
:10332800BC070001BC510001D8A4F3D70001BB5170
:103338000001D8B409D00101131F121F111F106D0D
:10334800000E11231223132310C110F111C111F122
:1033580012C112F113C113F11200000E896EFC0E96
:10336800926E000E8A6EFB0E936E000E8B6E000E30
:10337800946E000E8C6E000E956E000E8D6E966823
:103388008268000E00017A6F640E796F01EC1CF000
:10339800000E826E000E00017A6F640E796F01ECE8
:1033A8001CF08268000E00017A6F640E796F01ECE0
:1033B8001CF0000E826E000E00017A6F640E796FA9
:1033C80001EC1CF0060E0001816F050E0001826FF2
:1033D800010E0001836F030E0001846F9D0E000132
:1033E800856F040E48EC18F0D08EA492A490A382A6
:1033F800A380A592A590F28EF28CF18CF184F294C0
:10340800F28A8268000E00017A6F640E796F01EC0F
:103418001CF0000E826E800ED56E010EB16EA19268
:10342800A292630EB36EC00EB26EA0820C0E0001A3
:10343800736FFD0E0001746FDD0EDBEC1AF01200E5
:10344800000E0001876F000E886F000E896F000E56
:103458008A6F000183510001841100018511000168
:103468008611D8B442D0010E00018B6F08D000013C
:10347800D890833784378537863700018B2B000136
:1034880086AFF5D70001D8908737883789378A37CC
:103498000001835100017F5D0001845100018059C2
:1034A80000018551000181590001865100018259AE
:1034B800D8A012D00001835100017F5F0001845120
:1034C8000001805B000185510001815B000186518C
:1034D8000001825B000187810001D8908633853323
:1034E8008433833300018B2FCDD787C07FF088C00A
:1034F80080F089C081F08AC082F012000600E9CF0E
:1035080067F0EACF68F0E1CF69F0E2CF6AF0D9CF8F
:103518006BF0DACF6CF0F3CF6DF0F4CF6EF0F6CF3E
:103528006FF0F7CF70F0F8CF71F0F5CF72F082A09E
:1035380002D0010E01D0000EFF0A0001646F825014
:1035480000016419FE0B6419826ED59E82A007D013
:103558000FC060F010C061F086EC1CF0D58E82B010
:1035680007D00DC060F00EC061F086EC1CF0D58E5F
:10357800F29472C0F5FF71C0F8FF70C0F7FF6FC01A
:10358800F6FF6EC0F4FF6DC0F3FF6CC0DAFF6BC0CE
:10359800D9FF6AC0E2FF69C0E1FF68C0EAFF67C0FF
:1035A800E9FF66C0FBFF65C0FAFF46921100000103
:1035B800776F000EC26E000EC06E0001D890733196
:1035C8003C0BC26E73C075F00001753BF00E7517A9
:1035D800300E00017517000174510F0B00017511B1
:1035E800C16E77C075F00001D89075370001D8908A
:1035F8007537380E0001751777C076F00001763BF5
:103608000F0E7617070E0001761700017751800B11
:103618000001761100017511C06E000173AF03D06F
:103628009E9C9D8CF28CC2801200000E0001786F67
:10363800000E776F0001755100017611D8B42CD0B7
:10364800010E0001796F06D00001D89075377637E2
:103658000001792B000176AFF7D70001D8907737B2
:103668007837000175510001735D00017651000142
:103678007459D8A00AD0000175510001735F000188
:1036880076510001745B000177810001D890763390
:1036980075330001792FE1D777C073F078C074F0E3
:1036A8001200000E00017B6F000E7C6F000E7D6F14
:1036B800000E7E6F000173A110D000017751000148
:1036C8007B270001785100017C230001795100011A
:1036D8007D2300017A5100017E230001D8907737BD
:1036E800783779377A370001D89076337533743361
:1036F8007333000173510001741100017511000149
:103708007611D8A4D7D77BC073F07CC074F07DC085
:1037180075F07EC076F0120000EEBDF02A0EEE6A5B
:10372800E806FDE1456A00EE01F0230EEE6AE806C0
:10373800FDE1460EF66E390EF76E000EF86E0900C2
:10374800F5CFE7F00900F5CFE8F00900F5CFE9F08B
:10375800490EF66E390EF76E000EF86E0900F5CFB9
:1037680043F00900F5CF44F046904692000EF86EFB
:103778000001FEEF09F0A1EC1CF08FEC1CF0000931
:10378800D8A4FBD77DEC1CF073C0DDF074C0DEF06C
:10379800010E0001DD250001736FFE0E0001DE2120
:1037A8000001746F000E0001766F2D0E756F19EC15
:1037B8001BF073C009F074C00AF0120055EC1CF03D
:1037C8000009D8B4120045A016D0D1C073F0D2C0F9
:1037D80074F0D3C075F0D4C076F0DF0E0001776FB7
:1037E800000E0001786F080E0001796FBC0E000111
:1037F8007A6F38EC06F045901200E8C073F00001CB
:10380800746B79C075F07AC076F03AEC1CF073C02E
:10381800EAF074C0EBF007D0500EE82EFED7000196
:10382800EA07D8A0EB070001EA510001EB11D8B470
:103838001200F2D70001B3510001B4110001B51113
:103848000001B611D8B409D0000E0001B31B000E58
:10385800B41B000EB51B800EB61BB3C0B3F0B4C0CA
:10386800B4F0B5C0B5F0B6C0B6F01200000173519F
:1038780000017503F3CF77F0F4CF78F000017351AE
:1038880000017603F350000178270001745100010C
:103898007503F3500001782777C073F078C074F08F
:1038A8001200010E0001736F0F0140A709D00F012C
:1038B80030A706D00F0120A703D0000E0001736FB8
:1038C8000001735112000001736F73C06FFF6E50D7
:1038D800E00B00017319D8B41200F9D7010E246E59
:1038E80060BE05D00F0150BF02D0000E246E2450D8
:1038F8001200C4500001756FC3500001736F75C08A
:1039080074F0120060C062F061C063F063C0D7FF5A
:1039180062C0D6FF1200C2A202D0010E1200000E31
:10392800120074A402D0010E1200000E120074A23C
:1039380002D0010E1200000E1200C2821200B41052
:0439480001B40000C6
:020000040020DA
:08000000FFFFFFFFFFFFFFFF00
:020000040030CA
:0E000000FF021F1EFF8281FF0FC00FE00F40A6
:00000001FF
