:04000000C4EF00F059
:0E0008004C82FACF65F0FBCF66F097ED13F057
:100018004C80D8CF34F0E8CF35F0E0CF36F0FACFC7
:1000280037F0FBCF38F0E9CF39F0EACF3AF0E1CF3B
:100038003BF0E2CF3CF0D9CF3DF0DACF3EF0F3CF42
:100048003FF0F4CF40F0F6CF41F0F7CF42F0F8CFD1
:1000580043F0F5CF44F0E7EC15F00009D8B46AD0C6
:10006800140E236E000E246E57EC0DF0050E1418B6
:10007800151016101710D8A428D014C005F015C0F4
:1000880006F016C007F017C008F022A002D04B8275
:1000980001D04B9218C013F013500D24496E49C07B
:1000A80023F0246A45C025F046C026F0B7EC15F0C9
:1000B80023C029F024C02AF0000E2C6EB40E2B6E3B
:1000C80014EC15F02950496E4B80020E14181510C7
:1000D80016101710D8A42ED02204D8A42BD082A290
:1000E80002D0010E01D0000EFF0A336E3346825053
:1000F8003318FD0B3318826E14C005F015C006F0D6
:1001080016C007F017C008F04B82020E0001B56F49
:1001180005C023F006C024F007C025F008C026F06B
:10012800B50E276E000E286E080E296EBC0E2A6EBC
:100138000FEC0AF0A490A49244C0F5FF43C0F8FF66
:1001480042C0F7FF41C0F6FF40C0F4FF3FC0F3FFD5
:100158003EC0DAFF3DC0D9FF3CC0E2FF3BC0E1FF33
:100168003AC0EAFF39C0E9FF38C0FBFF37C0FAFFE1
:1001780036C0E0FF35C0E8FF34C0D8FF4C9010000F
:10018800E7EF14F000017C6F00017C510001D8A456
:1001980058D000017729D8A454D00F01019773C013
:1001A80078F074C079F075C07AF076C07BF0040EF0
:1001B80006D00001D8907B337A3379337833E82E30
:1001C800F8D778C07DF079C07EF07AC07FF07BC028
:1001D80080F000017D5100017D6F7E6B7F6B806B2D
:1001E8007DC000FF070E0001731500017D6F000E32
:1001F8000001741500017E6F000E000175150001E5
:100208007F6F000E000176150001806F7DC078F0C9
:100218007EC079F07FC07AF080C07BF0050ED89060
:100228000001783779377A377B37E82EF8D778C0E6
:100238007DF079C07EF07AC07FF07BC080F07DC011
:1002480001FF00017C05D8A458D000017729D8A463
:1002580054D00F01059773C078F074C079F075C059
:100268007AF076C07BF0040E06D00001D8907B337C
:100278007A3379337833E82EF8D778C07DF079C0AF
:100288007EF07AC07FF07BC080F000017D510001D4
:100298007D6F7E6B7F6B806B7DC004FF070E000156
:1002A800731500017D6F000E0001741500017E6F4B
:1002B800000E0001751500017F6F000E0001761514
:1002C8000001806F7DC078F07EC079F07FC07AF041
:1002D80080C07BF0050ED8900001783779377A37DF
:1002E8007B37E82EF8D778C07DF079C07EF07AC0E9
:1002F8007FF07BC080F07DC005FF020E00017C19F5
:10030800D8A458D000017729D8A454D00F01099750
:1003180073C078F074C079F075C07AF076C07BF05D
:10032800040E06D00001D8907B337A3379337833C2
:10033800E82EF8D778C07DF079C07EF07AC07FF0DB
:100348007BC080F000017D5100017D6F7E6B7F6B6B
:10035800806B7DC008FF070E0001731500017D6FDB
:10036800000E0001741500017E6F000E0001751566
:1003780000017F6F000E000176150001806F7DC0BF
:1003880078F07EC079F07FC07AF080C07BF0050EEF
:10039800D8900001783779377A377B37E82EF8D745
:1003A80078C07DF079C07EF07AC07FF07BC080F0A5
:1003B8007DC009FF030E00017C19D8A458D00001A4
:1003C8007729D8A454D00F010D9773C078F074C062
:1003D80079F075C07AF076C07BF0040E06D0000183
:1003E800D8907B337A3379337833E82EF8D778C0CE
:1003F8007DF079C07EF07AC07FF07BC080F000018C
:100408007D5100017D6F7E6B7F6B806B7DC00CFF23
:10041800070E0001731500017D6F000E00017415B1
:1004280000017E6F000E0001751500017F6F000E40
:10043800000176150001806F7DC078F07EC079F0EC
:100448007FC07AF080C07BF0050ED8900001783725
:1004580079377A377B37E82EF8D778C07DF079C0BE
:100468007EF07AC07FF07BC080F07DC00DFF040E67
:1004780000017C19D8A458D000017729D8A454D0F9
:100488000F01119773C078F074C079F075C07AF0D5
:1004980076C07BF0040E06D00001D8907B337A3307
:1004A80079337833E82EF8D778C07DF079C07EF0BC
:1004B8007AC07FF07BC080F000017D5100017D6F24
:1004C8007E6B7F6B806B7DC010FF070E000173157C
:1004D80000017D6F000E0001741500017E6F000E93
:1004E8000001751500017F6F000E000176150001EF
:1004F800806F7DC078F07EC079F07FC07AF080C0D0
:100508007BF0050ED8900001783779377A377B373A
:10051800E82EF8D778C07DF079C07EF07AC07FF0F9
:100528007BC080F07DC011FF050E00017C19D8A4A6
:1005380058D000017729D8A454D00F01159773C05B
:1005480078F074C079F075C07AF076C07BF0040E4C
:1005580006D00001D8907B337A3379337833E82E8C
:10056800F8D778C07DF079C07EF07AC07FF07BC084
:1005780080F000017D5100017D6F7E6B7F6B806B89
:100588007DC014FF070E0001731500017D6F000E7A
:100598000001741500017E6F000E00017515000141
:1005A8007F6F000E000176150001806F7DC078F026
:1005B8007EC079F07FC07AF080C07BF0050ED890BD
:1005C8000001783779377A377B37E82EF8D778C043
:1005D8007DF079C07EF07AC07FF07BC080F07DC06E
:1005E80015FF00017C510001D8A489D0F70E000145
:1005F8007719D8A484D00F01018700017351000135
:100608007D6F7E6B7F6B806B7DC003FF000E0001EA
:10061800731500017D6FFF0E0001741500017E6FD8
:10062800000E0001751500017F6F000E00017615A0
:100638000001806F7DC078F07EC079F07FC07AF0CD
:1006480080C07BF079C078F07AC079F07BC07AF00E
:1006580000017B6B78C07DF079C07EF07AC07FF0B6
:100668007BC080F07DC002FF000175A103D00F019F
:10067800018102D00F010191000175A303D00F0180
:10068800018302D00F010193000175A503D00F016A
:10069800018B02D00F01019B000175A703D00F0148
:1006A800018D02D00F01019D000175A903D00F0132
:1006B800018F02D00F01019F73C078F074C079F0E8
:1006C80075C07AF076C07BF0160E06D00001D8907F
:1006D8007B337A3379337833E82EF8D778C07DF0D6
:1006E80079C07EF07AC07FF07BC080F000017D5138
:1006F80000017D6F7E6B7F6B806B7DC000FF00010A
:100708007C05D8A489D0F70E00017719D8A484D025
:100718000F0105870001735100017D6F7E6B7F6BB0
:10072800806B7DC007FF000E0001731500017D6F0F
:10073800FF0E0001741500017E6F000E0001751593
:1007480000017F6F000E000176150001806F7DC0EB
:1007580078F07EC079F07FC07AF080C07BF079C0F5
:1007680078F07AC079F07BC07AF000017B6B78C0B2
:100778007DF079C07EF07AC07FF07BC080F07DC0CC
:1007880006FF000175A103D00F01058102D00F01FA
:100798000591000175A303D00F01058302D00F0155
:1007A8000593000175A503D00F01058B02D00F0139
:1007B800059B000175A703D00F01058D02D00F011D
:1007C800059D000175A903D00F01058F02D00F0107
:1007D800059F73C078F074C079F075C07AF076C060
:1007E8007BF0160E06D00001D8907B337A3379332C
:1007F8007833E82EF8D778C07DF079C07EF07AC0DB
:100808007FF07BC080F000017D5100017D6F7E6B21
:100818007F6B806B7DC004FF020E00017C19D8A499
:1008280089D0F70E00017719D8A484D00F01098761
:100838000001735100017D6F7E6B7F6B806B7DC003
:100848000BFF000E0001731500017D6FFF0E000104
:10085800741500017E6F000E0001751500017F6F91
:10086800000E000176150001806F7DC078F07EC013
:1008780079F07FC07AF080C07BF079C078F07AC0D8
:1008880079F07BC07AF000017B6B78C07DF079C08D
:100898007EF07AC07FF07BC080F07DC00AFF000147
:1008A80075A103D00F01098102D00F010991000140
:1008B80075A303D00F01098302D00F01099300012A
:1008C80075A503D00F01098B02D00F01099B000108
:1008D80075A703D00F01098D02D00F01099D0001F2
:1008E80075A903D00F01098F02D00F01099F73C0AA
:1008F80078F074C079F075C07AF076C07BF0160E87
:1009080006D00001D8907B337A3379337833E82ED8
:10091800F8D778C07DF079C07EF07AC07FF07BC0D0
:1009280080F000017D5100017D6F7E6B7F6B806BD5
:100938007DC008FF030E00017C19D8A489D0F70EEA
:1009480000017719D8A484D00F010D8700017351D5
:1009580000017D6F7E6B7F6B806B7DC00FFF000E8B
:100968000001731500017D6FFF0E00017415000171
:100978007E6F000E0001751500017F6F000E0001EB
:1009880076150001806F7DC078F07EC079F07FC059
:100998007AF080C07BF079C078F07AC079F07BC0BB
:1009A8007AF000017B6B78C07DF079C07EF07AC068
:1009B8007FF07BC080F07DC00EFF000175A103D0E1
:1009C8000F010D8102D00F010D91000175A303D015
:1009D8000F010D8302D00F010D93000175A503D0FF
:1009E8000F010D8B02D00F010D9B000175A703D0DD
:1009F8000F010D8D02D00F010D9D000175A903D0C7
:100A08000F010D8F02D00F010D9F73C078F074C0D5
:100A180079F075C07AF076C07BF0160E06D000012A
:100A2800D8907B337A3379337833E82EF8D778C087
:100A38007DF079C07EF07AC07FF07BC080F0000145
:100A48007D5100017D6F7E6B7F6B806B7DC00CFFDD
:100A5800040E00017C19D8A489D0F70E000177197B
:100A6800D8A484D00F0111870001735100017D6F54
:100A78007E6B7F6B806B7DC013FF000E00017315CA
:100A880000017D6FFF0E0001741500017E6F000EDE
:100A98000001751500017F6F000E00017615000139
:100AA800806F7DC078F07EC079F07FC07AF080C01A
:100AB8007BF079C078F07AC079F07BC07AF00001D9
:100AC8007B6B78C07DF079C07EF07AC07FF07BC008
:100AD80080F07DC012FF000175A103D00F011181C4
:100AE80002D00F011191000175A303D00F011183EA
:100AF80002D00F011193000175A503D00F01118BCE
:100B080002D00F01119B000175A703D00F01118DB1
:100B180002D00F01119D000175A903D00F01118F9B
:100B280002D00F01119F73C078F074C079F075C0BE
:100B38007AF076C07BF0160E06D00001D8907B3391
:100B48007A3379337833E82EF8D778C07DF079C0D6
:100B58007EF07AC07FF07BC080F000017D510001FB
:100B68007D6F7E6B7F6B806B7DC010FF050E000173
:100B78007C19D8A41200F70E00017719D8A4120026
:100B88000F0115870001735100017D6F7E6B7F6B2C
:100B9800806B7DC017FF000E0001731500017D6F8B
:100BA800FF0E0001741500017E6F000E000175151F
:100BB80000017F6F000E000176150001806F7DC077
:100BC80078F07EC079F07FC07AF080C07BF079C081
:100BD80078F07AC079F07BC07AF000017B6B78C03E
:100BE8007DF079C07EF07AC07FF07BC080F07DC058
:100BF80016FF000175A103D00F01158102D00F0166
:100C08001591000175A303D00F01158302D00F01C0
:100C18001593000175A503D00F01158B02D00F01A4
:100C2800159B000175A703D00F01158D02D00F0188
:100C3800159D000175A903D00F01158F02D00F0172
:100C4800159F73C078F074C079F075C07AF076C0DB
:100C58007BF0160E06D00001D8907B337A337933B7
:100C68007833E82EF8D778C07DF079C07EF07AC066
:100C78007FF07BC080F000017D5100017D6F7E6BAD
:100C88007F6B806B7DC014FF12000F0140B73FD10E
:100C980079C045FF00017AAD03D00F01458D02D020
:100CA8000F01459D00017AA779D000017351000119
:100CB8007F6F806B816B826B7FC044FF000E0001E9
:100CC800731500017F6FFF0E000174150001806F1E
:100CD800000E000175150001816F000E00017615E8
:100CE8000001826F7FC07BF080C07CF081C07DF006
:100CF80082C07EF07CC07BF07DC07CF07EC07DF041
:100D080000017E6B7BC07FF07CC080F07DC081F0ED
:100D18007EC082F07FC043FF000E0F01426F0F01BB
:100D28004287000175A102D00F014281000175A31D
:100D380002D00F014283000175A502D00F01428B3A
:100D4800000175A702D00F01428D000175A902D0DC
:100D58000F01428F73C07BF074C07CF075C07DF0CA
:100D680076C07EF0160E06D00001D8907E337D3313
:100D78007C337B33E82EF8D77BC07FF07CC080F0D3
:100D88007DC081F07EC082F000017F5100017F6F3D
:100D9800806B816B826B7FC041FF59D00F014297F6
:100DA80073C07BF074C07CF075C07DF076C07EF0B7
:100DB800040E06D00001D8907E337D337C337B331C
:100DC800E82EF8D77BC07FF07CC080F07DC081F032
:100DD8007EC082F000017F5100017F6F806B816BC4
:100DE800826B7FC041FF070E0001731500017F6F02
:100DF800000E000174150001806F000E00017515CA
:100E08000001816F000E000176150001826F7FC01E
:100E18007BF080C07CF081C07DF082C07EF0050E42
:100E2800D89000017B377C377D377E37E82EF8D79E
:100E38007BC07FF07CC080F07DC081F07EC082F0F6
:100E48000F0142511F0B0F01426F7FC042FF00018B
:100E58007AA103D00F01408102D00F014091000117
:100E68007AA303D00F01408302D00F01409377C0CB
:100E7800D9FF78C0DAFFDF500F01466F000120EE7E
:100E880001F07751D9267851DA22DF500F01476FE8
:100E9800000120EE02F07751D9267851DA22DF508E
:100EA8000F01486F000120EE03F07751D9267851E1
:100EB800DA22DF500F01496F000120EE04F077516C
:100EC800D9267851DA22DF500F014A6F000120EE4F
:100ED80005F07751D9267851DA22DF500F014B6F90
:100EE800000120EE06F07751D9267851DA22DF503A
:100EF8000F014C6F000120EE07F07751D926785189
:100F0800DA22DF500F014D6F0F01408712000F01E9
:100F180030B73FD179C035FF00017AAD03D00F015A
:100F2800358D02D00F01359D00017AA779D00001D7
:100F3800735100017F6F806B816B826B7FC034FFC0
:100F4800000E0001731500017F6FFF0E000174157C
:100F58000001806F000E000175150001816F000E01
:100F6800000176150001826F7FC07BF080C07CF0A5
:100F780081C07DF082C07EF07CC07BF07DC07CF0BB
:100F88007EC07DF000017E6B7BC07FF07CC080F06E
:100F98007DC081F07EC082F07FC033FF000E0F015C
:100FA800326F0F013287000175A102D00F01328123
:100FB800000175A302D00F013283000175A502D08C
:100FC8000F01328B000175A702D00F01328D00018D
:100FD80075A902D00F01328F73C07BF074C07CF00A
:100FE80075C07DF076C07EF0160E06D00001D89050
:100FF8007E337D337C337B33E82EF8D77BC07FF09C
:101008007CC080F07DC081F07EC082F000017F51FD
:1010180000017F6F806B816B826B7FC031FF59D07D
:101028000F01329773C07BF074C07CF075C07DF0FF
:1010380076C07EF0040E06D00001D8907E337D3352
:101048007C337B33E82EF8D77BC07FF07CC080F000
:101058007DC081F07EC082F000017F5100017F6F6A
:10106800806B816B826B7FC031FF070E00017315A7
:1010780000017F6F000E000174150001806F000EE3
:10108800000175150001816F000E00017615000141
:10109800826F7FC07BF080C07CF081C07DF082C011
:1010A8007EF0050ED89000017B377C377D377E3780
:1010B800E82EF8D77BC07FF07CC080F07DC081F03F
:1010C8007EC082F00F0132511F0B0F01326F7FC0BB
:1010D80032FF00017AA103D00F01308102D00F0145
:1010E800309100017AA303D00F01308302D00F01A1
:1010F800309377C0D9FF78C0DAFFDF500F01366F21
:10110800000120EE01F07751D9267851DA22DF501C
:101118000F01376F000120EE02F07751D926785180
:10112800DA22DF500F01386F000120EE03F077510B
:10113800D9267851DA22DF500F01396F000120EEED
:1011480004F07751D9267851DA22DF500F013A6F2F
:10115800000120EE05F07751D9267851DA22DF50C8
:101168000F013B6F000120EE06F07751D926785128
:10117800DA22DF500F013C6F000120EE07F07751B3
:10118800D9267851DA22DF500F013D6F0F013087E1
:1011980012000F0120B7120079C025FF00017AADB7
:1011A80003D00F01258D02D00F01259D00017AA7DC
:1011B80079D00001735100017F6F806B816B826B66
:1011C8007FC024FF000E0001731500017F6FFF0E22
:1011D800000174150001806F000E000175150001F3
:1011E800816F000E000176150001826F7FC07BF0D1
:1011F80080C07CF081C07DF082C07EF07CC07BF036
:101208007DC07CF07EC07DF000017E6B7BC07FF0EE
:101218007CC080F07DC081F07EC082F07FC023FF5B
:10122800000E0F01226F0F012287000175A102D065
:101238000F012281000175A302D00F012283000152
:1012480075A502D00F01228B000175A702D00F01EE
:10125800228D000175A902D00F01228F73C07BF087
:1012680074C07CF075C07DF076C07EF0160E06D096
:101278000001D8907E337D337C337B33E82EF8D75A
:101288007BC07FF07CC080F07DC081F07EC082F0A2
:1012980000017F5100017F6F806B816B826B7FC083
:1012A80021FF59D00F01229773C07BF074C07CF0E6
:1012B80075C07DF076C07EF0040E06D00001D8908F
:1012C8007E337D337C337B33E82EF8D77BC07FF0C9
:1012D8007CC080F07DC081F07EC082F000017F512B
:1012E80000017F6F806B816B826B7FC021FF070ECF
:1012F8000001731500017F6F000E000174150001D5
:10130800806F000E000175150001816F000E00014D
:1013180076150001826F7FC07BF080C07CF081C0B1
:101328007DF082C07EF0050ED89000017B377C37B7
:101338007D377E37E82EF8D77BC07FF07CC080F001
:101348007DC081F07EC082F00F0122511F0B0F017A
:10135800226F7FC022FF00017AA103D00F012081F4
:1013680002D00F01209100017AA303D00F0120833E
:1013780002D00F01209377C0D9FF78C0DAFFDF5081
:101388000F01266F000120EE01F07751D926785120
:10139800DA22DF500F01276F000120EE02F07751AB
:1013A800D9267851DA22DF500F01286F000120EE8C
:1013B80003F07751D9267851DA22DF500F01296FCF
:1013C800000120EE04F07751D9267851DA22DF5057
:1013D8000F012A6F000120EE05F07751D9267851C8
:1013E800DA22DF500F012B6F000120EE06F0775153
:1013F800D9267851DA22DF500F012C6F000120EE38
:1014080007F07751D9267851DA22DF500F012D6F76
:101418000F01208712000F0140B715D129C045FFE1
:101428002AAC03D00F01458D02D00F01459D2AA695
:1014380066D023502F6E306A316A326A2FC044FF5B
:10144800000E23142F6EFF0E2414306E000E251488
:10145800316E000E2614326E2FC02BF030C02CF0E7
:1014680031C02DF032C02EF02CC02BF02DC02CF046
:101478002EC02DF02E6A2BC02FF02CC030F02DC0BE
:1014880031F02EC032F02FC043FF000E0F01426F23
:101498000F01428725A002D00F01428125A202D068
:1014A8000F01428325A402D00F01428B25A602D04A
:1014B8000F01428D25A802D00F01428F23C02BF0C7
:1014C80024C02CF025C02DF026C02EF0160E05D015
:1014D800D8902E322D322C322B32E82EF9D72BC051
:1014E8002FF02CC030F02DC031F02EC032F02F502C
:1014F8002F6E306A316A326A2FC041FF4DD00F011A
:10150800429723C02BF024C02CF025C02DF026C014
:101518002EF0040E05D0D8902E322D322C322B32DC
:10152800E82EF9D72BC02FF02CC030F02DC031F0A9
:101538002EC032F02F502F6E306A316A326A2FC0B7
:1015480041FF070E23142F6E000E2414306E000E78
:101558002514316E000E2614326E2FC02BF030C0C9
:101568002CF031C02DF032C02EF0050ED8902B365D
:101578002C362D362E36E82EF9D72BC02FF02CC05E
:1015880030F02DC031F02EC032F00F0142511F0B48
:101598000F01426F2FC042FF2AA003D00F014081E4
:1015A80002D00F0140912AA203D00F01408302D03C
:1015B8000F01409327C0D9FF28C0DAFFDF500F0181
:1015C800466F20EE01F02750D9262850DA22DF5046
:1015D8000F01476F20EE02F02750D9262850DA2253
:1015E800DF500F01486F20EE03F02750D92628500E
:1015F800DA22DF500F01496F20EE04F02750D92678
:101608002850DA22DF500F014A6F20EE05F02750EC
:10161800D9262850DA22DF500F014B6F20EE06F052
:101628002750D9262850DA22DF500F014C6F20EEC0
:1016380007F02750D9262850DA22DF500F014D6FC6
:101648000F01408712000F0130B715D129C035FFAF
:101658002AAC03D00F01358D02D00F01359D2AA683
:1016680066D023502F6E306A316A326A2FC034FF39
:10167800000E23142F6EFF0E2414306E000E251456
:10168800316E000E2614326E2FC02BF030C02CF0B5
:1016980031C02DF032C02EF02CC02BF02DC02CF014
:1016A8002EC02DF02E6A2BC02FF02CC030F02DC08C
:1016B80031F02EC032F02FC033FF000E0F01326F11
:1016C8000F01328725A002D00F01328125A202D056
:1016D8000F01328325A402D00F01328B25A602D038
:1016E8000F01328D25A802D00F01328F23C02BF0B5
:1016F80024C02CF025C02DF026C02EF0160E05D0E3
:10170800D8902E322D322C322B32E82EF9D72BC01E
:101718002FF02CC030F02DC031F02EC032F02F50F9
:101728002F6E306A316A326A2FC031FF4DD00F01F7
:10173800329723C02BF024C02CF025C02DF026C0F2
:101748002EF0040E05D0D8902E322D322C322B32AA
:10175800E82EF9D72BC02FF02CC030F02DC031F077
:101768002EC032F02F502F6E306A316A326A2FC085
:1017780031FF070E23142F6E000E2414306E000E56
:101788002514316E000E2614326E2FC02BF030C097
:101798002CF031C02DF032C02EF0050ED8902B362B
:1017A8002C362D362E36E82EF9D72BC02FF02CC02C
:1017B80030F02DC031F02EC032F00F0132511F0B26
:1017C8000F01326F2FC032FF2AA003D00F013081E2
:1017D80002D00F0130912AA203D00F01308302D02A
:1017E8000F01309327C0D9FF28C0DAFFDF500F015F
:1017F800366F20EE01F02750D9262850DA22DF5024
:101808000F01376F20EE02F02750D9262850DA2230
:10181800DF500F01386F20EE03F02750D9262850EB
:10182800DA22DF500F01396F20EE04F02750D92655
:101838002850DA22DF500F013A6F20EE05F02750CA
:10184800D9262850DA22DF500F013B6F20EE06F030
:101858002750D9262850DA22DF500F013C6F20EE9E
:1018680007F02750D9262850DA22DF500F013D6FA4
:101878000F01308712000F0120B7120029C025FF81
:101888002AAC03D00F01258D02D00F01259D2AA671
:1018980066D023502F6E306A316A326A2FC024FF17
:1018A800000E23142F6EFF0E2414306E000E251424
:1018B800316E000E2614326E2FC02BF030C02CF083
:1018C80031C02DF032C02EF02CC02BF02DC02CF0E2
:1018D8002EC02DF02E6A2BC02FF02CC030F02DC05A
:1018E80031F02EC032F02FC023FF000E0F01226FFF
:1018F8000F01228725A002D00F01228125A202D044
:101908000F01228325A402D00F01228B25A602D025
:101918000F01228D25A802D00F01228F23C02BF0A2
:1019280024C02CF025C02DF026C02EF0160E05D0B0
:10193800D8902E322D322C322B32E82EF9D72BC0EC
:101948002FF02CC030F02DC031F02EC032F02F50C7
:101958002F6E306A316A326A2FC021FF4DD00F01D5
:10196800229723C02BF024C02CF025C02DF026C0D0
:101978002EF0040E05D0D8902E322D322C322B3278
:10198800E82EF9D72BC02FF02CC030F02DC031F045
:101998002EC032F02F502F6E306A316A326A2FC053
:1019A80021FF070E23142F6E000E2414306E000E34
:1019B8002514316E000E2614326E2FC02BF030C065
:1019C8002CF031C02DF032C02EF0050ED8902B36F9
:1019D8002C362D362E36E82EF9D72BC02FF02CC0FA
:1019E80030F02DC031F02EC032F00F0122511F0B04
:1019F8000F01226F2FC022FF2AA003D00F012081E0
:101A080002D00F0120912AA203D00F01208302D017
:101A18000F01209327C0D9FF28C0DAFFDF500F013C
:101A2800266F20EE01F02750D9262850DA22DF5001
:101A38000F01276F20EE02F02750D9262850DA220E
:101A4800DF500F01286F20EE03F02750D9262850C9
:101A5800DA22DF500F01296F20EE04F02750D92633
:101A68002850DA22DF500F012A6F20EE05F02750A8
:101A7800D9262850DA22DF500F012B6F20EE06F00E
:101A88002750D9262850DA22DF500F012C6F20EE7C
:101A980007F02750D9262850DA22DF500F012D6F82
:101AA8000F0120871200000E2D6E74BE2D8074BCAD
:101AB8002D820F0150AF43D123C0D9FF24C0DAFFD4
:101AC800DE6ADE6ADE6ADD6A20EE04F02350D9267B
:101AD8002450DA2256CFDFFF20EE05F02350D92616
:101AE8002450DA2257CFDFFF20EE06F02350D92604
:101AF8002450DA2258CFDFFF20EE07F02350D926F2
:101B08002450DA2259CFDFFF20EE08F02350D926DF
:101B18002450DA225ACFDFFF20EE09F02350D926CD
:101B28002450DA225BCFDFFF20EE0AF02350D926BB
:101B38002450DA225CCFDFFF20EE0BF02350D926A9
:101B48002450DA225DCFDFFF20EE0EF02350D92695
:101B58002450DA220F0155AD02D0010E01D0000E3B
:101B6800DF6E20EE0DF02350D9262450DA220F0123
:101B780055510F0BDF6E20EE0CF02350D926245060
:101B8800DA220F0152A702D0010E01D0000EDF6E3B
:101B98000F0152B744D051CF25F0266A276A286A28
:101BA800030ED8902536263627362836E82EF9D75C
:101BB80023C0D9FF24C0DAFF25C0DEFF26C0DEFF20
:101BC80027C0DEFF28C0DEFF0F015239E842070BAD
:101BD800070B2E6E23C0D9FF24C0DAFFDECF25F015
:101BE800DECF26F0DECF27F0DECF28F02E502524DA
:101BF800296E000E26202A6E000E27202B6E000E5E
:101C080028202C6E23C0D9FF24C0DAFF29C0DEFFAC
:101C18002AC0DEFF2BC0DEFF2CC0DEFF8DD054CFE4
:101C280025F0266A276A286A23C0D9FF24C0DAFF6C
:101C380025C0DEFF26C0DEFF27C0DEFF28C0DEFF8E
:101C480053CF25F0266A276A286A27C028F026C0BD
:101C580027F025C026F0256A23C0D9FF24C0DAFF63
:101C68002550DE262650DE222750DE222850DE228E
:101C78000F0152A10CD023C0D9FF24C0DAFF000EF7
:101C8800DE12000EDE12010EDE12000EDE120F0151
:101C980052A30CD023C0D9FF24C0DAFF000EDE12F5
:101CA800000EDE12020EDE12000EDE120F0152AB23
:101CB8000CD023C0D9FF24C0DAFF000EDE12000EBC
:101CC800DE12040EDE12000EDE120F0152AD0CD031
:101CD80023C0D9FF24C0DAFF000EDE12000EDE1288
:101CE800080EDE12000EDE120F0152AF0CD023C018
:101CF800D9FF24C0DAFF000EDE12000EDE12100E2D
:101D0800DE12000EDE1251CF25F0266A276A286AF5
:101D1800150ED8902536263627362836E82EF9D7D8
:101D280023C0D9FF24C0DAFF2550DE122650DE1268
:101D38002750DE122850DE120F01509F120060AEAD
:101D4800120023C0D9FF24C0DAFFDE6ADE6ADE6A29
:101D5800DD6A20EE04F02350D9262450DA2266CF1B
:101D6800DFFF20EE05F02350D9262450DA2267CF72
:101D7800DFFF20EE06F02350D9262450DA2268CF60
:101D8800DFFF20EE07F02350D9262450DA2269CF4E
:101D9800DFFF20EE08F02350D9262450DA226ACF3C
:101DA800DFFF20EE09F02350D9262450DA226BCF2A
:101DB800DFFF20EE0AF02350D9262450DA226CCF18
:101DC800DFFF20EE0BF02350D9262450DA226DCF06
:101DD800DFFF20EE0EF02350D9262450DA2265AC1E
:101DE80002D0010E01D0000EDF6E20EE0DF0235060
:101DF800D9262450DA2265500F0BDF6E20EE0CF046
:101E08002350D9262450DA2262A602D0010E01D02E
:101E1800000EDF6E62B643D061CF25F0266A276ACE
:101E2800286A030ED8902536263627362836E82E17
:101E3800F9D723C0D9FF24C0DAFF25C0DEFF26C0AA
:101E4800DEFF27C0DEFF28C0DEFF6238E842070B4E
:101E5800070B2E6E23C0D9FF24C0DAFFDECF25F092
:101E6800DECF26F0DECF27F0DECF28F02E50252457
:101E7800296E000E26202A6E000E27202B6E000EDB
:101E880028202C6E23C0D9FF24C0DAFF29C0DEFF2A
:101E98002AC0DEFF2BC0DEFF2CC0DEFF88D064CF57
:101EA80025F0266A276A286A23C0D9FF24C0DAFFEA
:101EB80025C0DEFF26C0DEFF27C0DEFF28C0DEFF0C
:101EC80063CF25F0266A276A286A27C028F026C02B
:101ED80027F025C026F0256A23C0D9FF24C0DAFFE1
:101EE8002550DE262650DE222750DE222850DE220C
:101EF80062A00CD023C0D9FF24C0DAFF000EDE1286
:101F0800000EDE12010EDE12000EDE1262A20CD0EE
:101F180023C0D9FF24C0DAFF000EDE12000EDE1245
:101F2800020EDE12000EDE1262AA0CD023C0D9FF08
:101F380024C0DAFF000EDE12000EDE12040EDE12DE
:101F4800000EDE1262AC0CD023C0D9FF24C0DAFF29
:101F5800000EDE12000EDE12080EDE12000EDE1279
:101F680062AE0CD023C0D9FF24C0DAFF000EDE1207
:101F7800000EDE12100EDE12000EDE1261CF25F00A
:101F8800266A276A286A150ED890253626362736F7
:101F98002836E82EF9D723C0D9FF24C0DAFF255008
:101FA800DE122650DE122750DE122850DE12609E06
:101FB800120000017C6F00017C05D8A456D00001F6
:101FC8007729D8A452D073C078F074C079F075C05E
:101FD8007AF076C07BF0040E06D00001D8907B33EF
:101FE8007A3379337833E82EF8D778C07DF079C022
:101FF8007EF07AC07FF07BC080F000017D51000147
:102008007D6F7E6B7F6B806B7DC018FF070E0001B4
:10201800731500017D6F000E0001741500017E6FBD
:10202800000E0001751500017F6F000E0001761586
:102038000001806F7DC078F07EC079F07FC07AF0B3
:1020480080C07BF0050ED8900001783779377A3751
:102058007B37E82EF8D778C07DF079C07EF07AC05B
:102068007FF07BC080F07DC019FF020E00017C1953
:10207800D8A456D000017729D8A452D073C078F0DC
:1020880074C079F075C07AF076C07BF0040E06D083
:102098000001D8907B337A3379337833E82EF8D738
:1020A80078C07DF079C07EF07AC07FF07BC080F088
:1020B80000017D5100017D6F7E6B7F6B806B7DC061
:1020C8001CFF070E0001731500017D6F000E000153
:1020D800741500017E6F000E0001751500017F6FF9
:1020E800000E000176150001806F7DC078F07EC07B
:1020F80079F07FC07AF080C07BF0050ED89000019F
:10210800783779377A377B37E82EF8D778C07DF07B
:1021180079C07EF07AC07FF07BC080F07DC01DFF63
:1021280000017C05D8A487D0F70E00017719D8A440
:1021380082D00001735100017D6F7E6B7F6B806BD5
:102148007DC01BFF000E0001731500017D6FFF0E9F
:102158000001741500017E6F000E00017515000165
:102168007F6F000E000176150001806F7DC078F04A
:102178007EC079F07FC07AF080C07BF079C078F0BB
:102188007AC079F07BC07AF000017B6B78C07DF073
:1021980079C07EF07AC07FF07BC080F07DC01AFFE6
:1021A800000175A103D00F01198102D00F01199107
:1021B800000175A303D00F01198302D00F011993F1
:1021C800000175A503D00F01198B02D00F01199BCF
:1021D800000175A703D00F01198D02D00F01199DB9
:1021E800000175A903D00F01198F02D00F01199FA3
:1021F80073C078F074C079F075C07AF076C07BF05F
:10220800160E06D00001D8907B337A3379337833B1
:10221800E82EF8D778C07DF079C07EF07AC07FF0DC
:102228007BC080F000017D5100017D6F7E6B7F6B6C
:10223800806B7DC018FF020E00017C19D8A4120023
:10224800F70E00017719D8A412000001735100019C
:102258007D6F7E6B7F6B806B7DC01FFF000E000162
:10226800731500017D6FFF0E0001741500017E6F6C
:10227800000E0001751500017F6F000E0001761534
:102288000001806F7DC078F07EC079F07FC07AF061
:1022980080C07BF079C078F07AC079F07BC07AF0A2
:1022A80000017B6B78C07DF079C07EF07AC07FF04A
:1022B8007BC080F07DC01EFF000175A103D00F0117
:1022C8001D8102D00F011D91000175A303D00F01DC
:1022D8001D8302D00F011D93000175A503D00F01C6
:1022E8001D8B02D00F011D9B000175A703D00F01A4
:1022F8001D8D02D00F011D9D000175A903D00F018E
:102308001D8F02D00F011D9F73C078F074C079F043
:1023180075C07AF076C07BF0160E06D00001D89012
:102328007B337A3379337833E82EF8D778C07DF069
:1023380079C07EF07AC07FF07BC080F000017D51CB
:1023480000017D6F7E6B7F6B806B7DC01CFF120070
:1023580000018A6F800EDCEC15F0000E706E000E26
:10236800716E000E726E00018341E842C00B0001DD
:10237800836F0001835170120001845170120001B3
:102388008A51711200018139E842F80B0001816F0E
:10239800000181517112000185A5718C000185B180
:1023A800718E000182517212000185B3728C000196
:1023B8008551600B606E00018551100BFF0AD8B47F
:1023C800608460CF50FF000E0001736F000E746FC1
:1023D800000E756F000E766FF70E0001776F010E15
:1023E800DDEC0FF0000E0001736F000E746F000E2D
:1023F800756F000E766FF70E0001776F020EDDEC39
:102408000FF00FD0F70E00018B6F07D000018B691A
:1024180000018C6928D000018B69F70E00018C6FD0
:1024280022D09F0E0001866FFF0E0001876F00010A
:102438008551600B0001886F896B0001865100018E
:102448008813000187510001891300018951000A8E
:10245800D8A4E1D700018851BF0AD8B4D7D7600AF9
:10246800D8B4D0D7D8D7000E0001736F000E746FA0
:10247800000E756F000E766F8BC077F0000EC6ECFD
:1024880000F0000E0001736F000E746F000E756F80
:10249800000E766F8BC077F0010EC6EC00F0000ED0
:1024A8000001736F000E746F000E756F000E766F6B
:1024B8008CC077F0020EC6EC00F0000E0001736FBE
:1024C800000E746F000E756F000E766F8CC077F07B
:1024D800030EC6EC00F0000E0001736F000E746F5F
:1024E800000E756F000E766F8CC077F0040EC6EC88
:1024F80000F0000E0001736F000E746F000E756F10
:10250800000E766F8CC077F0050EC6EC00F0000E5A
:10251800DCEC15F01200F2EC13F080828282010EDE
:1025280000017A6FF40E796F7FEC15F08092829239
:10253800000E00017A6F640E796F7FEC15F0000EC3
:1025480000017A6F640E796F7FEC15F03DEC15F0A1
:1025580049500001A16FA26BA36BA46B82B0EFD7A7
:10256800A1C073F0A2C074F0A3C075F0A4C076F047
:10257800BC0E0001776F020E786F000E796F000EA7
:102588007A6FACEC14F073C07FF074C080F075C043
:1025980081F076C082F05A0E0001836F000E846FBE
:1025A800000E856F000E866F39EC13F0D89000018D
:1025B8007F3500018D6F0001803500018E6F0001AD
:1025C800813500018F6F000182350001906F400E48
:1025D80000018D250001AD6F060E00018E2100015E
:1025E800AE6F000E00018F210001AF6F000E0001D9
:1025F80090210001B06FADC08DF0AEC08EF000012B
:102608008D1F8E1F8D4B8E2B8DC00BF08EC00CF046
:10261800ADC08DF0AEC08EF0AFC08FF0B0C090F0FE
:102628000001D89090338F338E338D3300018D1F86
:102638008E1F8D4B8E2B200E00018D25096E4E0EA0
:1026480000018E210A6E09C08DF00AC08EF0D89064
:1026580000018D378E3700018D1F8E1F8D4B8E2BFD
:102668008DC009F08EC00AF06AD7000E0001876F8E
:10267800000E886F000E896F000E8A6F000183516B
:10268800000184110001851100018611D8B442D0DF
:10269800010E00018B6F08D00001D8908337843772
:1026A8008537863700018B2B000186AFF5D70001EF
:1026B800D8908737883789378A37000183510001D6
:1026C8007F5D00018451000180590001855100019E
:1026D80081590001865100018259D8A012D0000109
:1026E800835100017F5F000184510001805B00017C
:1026F80085510001815B000186510001825B000168
:1027080087810001D8908633853384338333000171
:102718008B2FCDD787C07FF088C080F089C081F02B
:102728008AC082F012000600E9CF67F0EACF68F0AD
:10273800E1CF69F0E2CF6AF0D9CF6BF0DACF6CF075
:10274800F3CF6DF0F4CF6EF0F6CF6FF0F7CF70F0F7
:10275800F8CF71F0F5CF72F04BA021D082A002D053
:10276800010E01D0000EFF0A0001646F82500001C3
:102778006419FE0B6419826ED59E82A007D00BC027
:1027880060F00CC061F0FBEC15F0D58E82B007D07C
:1027980009C060F00AC061F0FBEC15F0D58EF29428
:1027A80072C0F5FF71C0F8FF70C0F7FF6FC0F6FF89
:1027B8006EC0F4FF6DC0F3FF6CC0DAFF6BC0D9FFC9
:1027C8006AC0E2FF69C0E1FF68C0EAFF67C0E9FFCD
:1027D80066C0FBFF65C0FAFF4C921100D08E060E52
:1027E8000001816F050E0001826F010E0001836FE9
:1027F800030E0001846F9D0E0001856F040EACEC82
:1028080011F0A492A490F294A592A590F184D08E90
:10281800A382A380F28AF28EF28C040E0001736FF9
:10282800FE0E0001746FDD0E32EC14F0D58E82902E
:10283800000E896EFD0E926E000E8A6EFB0E936E70
:10284800000E8B6E000E946E000E8C6E000E956E50
:10285800000E8D6E9668800ED56E12000001776F9F
:10286800000EC26E000EC06E0001D89073313C0B92
:10287800C26E73C075F00001753BF00E7517300E0F
:1028880000017517000174510F0B00017511C16E1D
:1028980077C075F00001D89075370001D89075376A
:1028A800380E0001751777C076F00001763B0F0EE1
:1028B8007617070E0001761700017751800B00018B
:1028C800761100017511C06E000173AF03D09E9C94
:1028D8009D8CF28CC2801200000E0001786F000EF1
:1028E800776F0001755100017611D8B42CD0010E14
:1028F8000001796F06D00001D8907537763700014E
:10290800792B000176AFF7D70001D8907737783761
:10291800000175510001735D000176510001745981
:10292800D8A00AD0000175510001735F00017651EB
:102938000001745B000177810001D890763375330C
:102948000001792FE1D777C073F078C074F01200D6
:10295800000E00017B6F000E7C6F000E7D6F000E75
:102968007E6F000173A110D00001775100017B2711
:102978000001785100017C230001795100017D2379
:1029880000017A5100017E230001D890773778370B
:1029980079377A370001D8907633753374337333C7
:1029A80000017351000174110001751100017611C5
:1029B800D8A4D7D77BC073F07CC074F07DC075F005
:1029C8007EC076F0120000EE91F02C0EEE6AE8065A
:1029D800FDE14B6A00EE01F0220EEE6AE806FDE129
:1029E800360EF66E2C0EF76E000EF86E0900F5CF57
:1029F800BDF02C0EF66E2C0EF76E000EF86E00EE83
:102A080045F010EE06F00900F5CFEEFFE550E15075
:102A1800FAE14C904C92000EF86E00018FEF12F024
:102A2800000E2E6E000E2D6E2B502C10D8B41CD01C
:102A3800010E2F6E04D0D8902B362C362F2A2CAEB0
:102A4800FAD7D8902D362E362B50295C2C502A5880
:102A5800D8A005D02B50295E2C502A5A2D80D8900A
:102A68002C322B322F2EEDD72DC029F02EC02AF074
:102A7800120019EC16F004EC16F00009D8A4FBD7E4
:102A8800F2EC15F073C0B1F074C0B2F0010E0001A1
:102A9800B1250001736FFE0E0001B2210001746FB1
:102AA800000E0001766F2D0E756F70EC14F073C078
:102AB8000DF074C00EF01200CAEC15F00009D8B47D
:102AC80012004BA216D005C073F006C074F007C000
:102AD80075F008C076F0B50E0001776F000E0001A2
:102AE800786F080E0001796FBC0E00017A6F49EC0F
:102AF80006F04B921200BDC073F00001746B79C0F0
:102B080075F07AC076F09CEC15F073C0B3F074C021
:102B1800B4F007D0500EE82EFED70001B307D8A0B6
:102B2800B4070001B3510001B411D8B41200F2D7B0
:102B38000001735100017503F3CF77F0F4CF78F0FB
:102B48000001735100017603F3500001782700015A
:102B5800745100017503F3500001782777C073F0B2
:102B680078C074F0120023502502F3CF27F0F4CF79
:102B780028F023502602F350282624502502F3502B
:102B8800282627C023F028C024F01200010E0001D7
:102B9800736F0F0140A709D00F0130A706D00F01AE
:102BA80020A703D0000E0001736F000173511200BB
:102BB8000001736F73C06FFF6E50E00B0001731953
:102BC800D8B41200F9D7010E236E60BE05D00F01EC
:102BD80050BF02D0000E236E23501200C4500001D3
:102BE800756FC3500001736F75C074F0120060C038
:102BF80062F061C063F063C0D7FF62C0D6FF120005
:102C0800C2A202D0010E1200000E120074A402D05B
:102C1800010E1200000E120074A202D0010E120062
:102C2800000E120078000200B401C28212001400E3
:020000040020DA
:08000000FFFFFFFFFFFFFFFF00
:020000040030CA
:0E000000FF021F1EFF8281FF0FC00FE00F40A6
:00000001FF
