:04000000DAEF00F043
:10000800FACF64F0FBCF65F0E9CF66F0BAED10F0F7
:10001800D8CF14F0E8CF15F0E0CF16F0FACF17F0EC
:10002800FBCF18F0E9CF19F0EACF1AF0E1CF1BF0B7
:10003800E2CF1CF0D9CF1DF0DACF1EF0F3CF1FF0BE
:10004800F4CF20F0F6CF21F0F7CF22F0F8CF23F04D
:10005800F5CF24F0AEEC12F00009D8B484D0300EFD
:10006800016E000E026EC3EC09F0070E3018311055
:1000780032103310D8A457D030C025F031C026F044
:1000880032C027F033C028F04B923EB04B8234C0C8
:100098002FF02F50116E126A2D50115C1250800AE9
:1000A800136E2E50800A1358D8B005D0000E486E33
:1000B800000E476E00D02FC047F0486A47C001F0D5
:1000C80048C002F049C003F04AC004F08EEC12F0B8
:1000D80001C007F002C008F0000E0A6EB40E096EE7
:1000E800FCEC11F02D500724476E2E500820486E66
:1000F80048BE0BD0485004E1B50E475CD8A005D0E7
:10010800000E486EB40E476E00D048BE05D0485069
:1001180008E14704D8B005D0000E486E000E476EBF
:1001280000D04B8000D0030E30183110321033103D
:10013800D8A416D08272020E3F6E030E016E000E16
:10014800026E000E036E000E046E3F0E056E000E6A
:10015800066E080E076EBC0E086E71EC06F000D035
:10016800A490A49200D024C0F5FF23C0F8FF22C0B9
:10017800F7FF21C0F6FF20C0F4FF1FC0F3FF1EC029
:10018800DAFF1DC0D9FF1CC0E2FF1BC0E1FF1AC087
:10019800EAFF19C0E9FF18C0FBFF17C0FAFF16C035
:1001A800E0FF15C0E8FF14C0D8FF10002AEF12F0D6
:1001B80000017B6F00017B510001D8A459D00001D8
:1001C8007629D8A455D00F01019772C077F073C073
:1001D80078F074C079F075C07AF0040E06D000018A
:1001E800D8907A33793378337733E82EF8D777C0D5
:1001F8007CF078C07DF079C07EF07AC07FF0000195
:100208007C5100017C6F7D6B7E6B7F6B7CC000FF37
:10021800070E0001721500017C6F000E00017315B6
:1002280000017D6F000E0001741500017E6F000E45
:100238000001751500017F6F7CC077F07DC078F0F4
:100248007EC079F07FC07AF0050ED890000177372C
:10025800783779377A37E82EF8D777C07CF078C0C6
:100268007DF079C07EF07AC07FF07CC001FF00D0BD
:1002780000017B05D8A459D000017629D8A455D00F
:100288000F01059772C077F073C078F074C079F0E9
:1002980075C07AF0040E06D00001D8907A3379330D
:1002A80078337733E82EF8D777C07CF078C07DF0C4
:1002B80079C07EF07AC07FF000017C5100017C6F2C
:1002C8007D6B7E6B7F6B7CC004FF070E000172158F
:1002D80000017C6F000E0001731500017D6F000E98
:1002E8000001741500017E6F000E000175150001F4
:1002F8007F6F7CC077F07DC078F07EC079F07FC0DA
:100308007AF0050ED89000017737783779377A3741
:10031800E82EF8D777C07CF078C07DF079C07EF001
:100328007AC07FF07CC005FF00D0020E00017B1967
:10033800D8A459D000017629D8A455D00F0109971F
:1003480072C077F073C078F074C079F075C07AF035
:10035800040E06D00001D8907A3379337833773396
:10036800E82EF8D777C07CF078C07DF079C07EF0B1
:100378007AC07FF000017C5100017C6F7D6B7E6B41
:100388007F6B7CC008FF070E0001721500017C6FAF
:10039800000E0001731500017D6F000E0001741539
:1003A80000017E6F000E0001751500017F6F7CC093
:1003B80077F07DC078F07EC079F07FC07AF0050EC6
:1003C800D89000017737783779377A37E82EF8D719
:1003D80077C07CF078C07DF079C07EF07AC07FF07D
:1003E8007CC009FF00D0030E00017B19D8A459D0A6
:1003F80000017629D8A455D00F010D9772C077F067
:1004080073C078F074C079F075C07AF0040E06D025
:100418000001D8907A33793378337733E82EF8D7D8
:1004280077C07CF078C07DF079C07EF07AC07FF02C
:1004380000017C5100017C6F7D6B7E6B7F6B7CC003
:100448000CFF070E0001721500017C6F000E000101
:10045800731500017D6F000E0001741500017E6F99
:10046800000E0001751500017F6F7CC077F07DC01C
:1004780078F07EC079F07FC07AF0050ED890000140
:100488007737783779377A37E82EF8D777C07CF01E
:1004980078C07DF079C07EF07AC07FF07CC00DFF17
:1004A80000D0040E00017B19D8A459D00001762988
:1004B800D8A455D00F01119772C077F073C078F0A7
:1004C80074C079F075C07AF0040E06D00001D89097
:1004D8007A33793378337733E82EF8D777C07CF0DE
:1004E80078C07DF079C07EF07AC07FF000017C5141
:1004F80000017C6F7D6B7E6B7F6B7CC010FF070EED
:100508000001721500017C6F000E000173150001D7
:100518007D6F000E0001741500017E6F000E000152
:10052800751500017F6F7CC077F07DC078F07EC0C4
:1005380079F07FC07AF0050ED890000177377837C8
:1005480079377A37E82EF8D777C07CF078C07DF015
:1005580079C07EF07AC07FF07CC011FF00D0050E14
:1005680000017B19D8A459D000017629D8A455D008
:100578000F01159772C077F073C078F074C079F0E6
:1005880075C07AF0040E06D00001D8907A3379331A
:1005980078337733E82EF8D777C07CF078C07DF0D1
:1005A80079C07EF07AC07FF000017C5100017C6F39
:1005B8007D6B7E6B7F6B7CC014FF070E000172158C
:1005C80000017C6F000E0001731500017D6F000EA5
:1005D8000001741500017E6F000E00017515000101
:1005E8007F6F7CC077F07DC078F07EC079F07FC0E7
:1005F8007AF0050ED89000017737783779377A374F
:10060800E82EF8D777C07CF078C07DF079C07EF00E
:100618007AC07FF07CC015FF00D000017B5100013B
:10062800D8A48BD0F70E00017619D8A486D00F0174
:1006380001870001725100017C6F7D6B7E6B7F6BBF
:100648007CC003FF000E0001721500017C6FFF0ED5
:100658000001731500017D6F000E00017415000183
:100668007E6F000E0001751500017F6F7CC077F06A
:100678007DC078F07EC079F07FC07AF078C077F0DE
:1006880079C078F07AC079F000017A6B77C07CF095
:1006980078C07DF079C07EF07AC07FF07CC002FF20
:1006A800000174A103D00F01018102D00F01019153
:1006B800000174A303D00F01018302D00F0101933D
:1006C800000174A503D00F01018B02D00F01019B1B
:1006D800000174A703D00F01018D02D00F01019D05
:1006E800000174A903D00F01018F03D00F01019FEE
:1006F80000D072C077F073C078F074C079F075C01C
:100708007AF0160E06D00001D8907A337933783310
:100718007733E82EF8D777C07CF078C07DF079C0C1
:100728007EF07AC07FF000017C5100017C6F7D6B08
:100738007E6B7F6B7CC000FF00D000017B05D8A4D6
:100748008BD0F70E00017619D8A486D00F01058743
:100758000001725100017C6F7D6B7E6B7F6B7CC0EA
:1007680007FF000E0001721500017C6FFF0E0001EB
:10077800731500017D6F000E0001741500017E6F76
:10078800000E0001751500017F6F7CC077F07DC0F9
:1007980078F07EC079F07FC07AF078C077F079C0C1
:1007A80078F07AC079F000017A6B77C07CF078C075
:1007B8007DF079C07EF07AC07FF07CC006FF000132
:1007C80074A103D00F01058102D00F01059100012A
:1007D80074A303D00F01058302D00F010593000114
:1007E80074A503D00F01058B02D00F01059B0001F2
:1007F80074A703D00F01058D02D00F01059D0001DC
:1008080074A903D00F01058F03D00F01059F00D0F5
:1008180072C077F073C078F074C079F075C07AF060
:10082800160E06D00001D8907A33793378337733AF
:10083800E82EF8D777C07CF078C07DF079C07EF0DC
:100848007AC07FF000017C5100017C6F7D6B7E6B6C
:100858007F6B7CC004FF00D0020E00017B19D8A476
:100868008BD0F70E00017619D8A486D00F0109871E
:100878000001725100017C6F7D6B7E6B7F6B7CC0C9
:100888000BFF000E0001721500017C6FFF0E0001C6
:10089800731500017D6F000E0001741500017E6F55
:1008A800000E0001751500017F6F7CC077F07DC0D8
:1008B80078F07EC079F07FC07AF078C077F079C0A0
:1008C80078F07AC079F000017A6B77C07CF078C054
:1008D8007DF079C07EF07AC07FF07CC00AFF00010D
:1008E80074A103D00F01098102D00F010991000101
:1008F80074A303D00F01098302D00F0109930001EB
:1009080074A503D00F01098B02D00F01099B0001C8
:1009180074A703D00F01098D02D00F01099D0001B2
:1009280074A903D00F01098F03D00F01099F00D0CC
:1009380072C077F073C078F074C079F075C07AF03F
:10094800160E06D00001D8907A337933783377338E
:10095800E82EF8D777C07CF078C07DF079C07EF0BB
:100968007AC07FF000017C5100017C6F7D6B7E6B4B
:100978007F6B7CC008FF00D0030E00017B19D8A450
:100988008BD0F70E00017619D8A486D00F010D87F9
:100998000001725100017C6F7D6B7E6B7F6B7CC0A8
:1009A8000FFF000E0001721500017C6FFF0E0001A1
:1009B800731500017D6F000E0001741500017E6F34
:1009C800000E0001751500017F6F7CC077F07DC0B7
:1009D80078F07EC079F07FC07AF078C077F079C07F
:1009E80078F07AC079F000017A6B77C07CF078C033
:1009F8007DF079C07EF07AC07FF07CC00EFF0001E8
:100A080074A103D00F010D8102D00F010D910001D7
:100A180074A303D00F010D8302D00F010D930001C1
:100A280074A503D00F010D8B02D00F010D9B00019F
:100A380074A703D00F010D8D02D00F010D9D000189
:100A480074A903D00F010D8F03D00F010D9F00D0A3
:100A580072C077F073C078F074C079F075C07AF01E
:100A6800160E06D00001D8907A337933783377336D
:100A7800E82EF8D777C07CF078C07DF079C07EF09A
:100A88007AC07FF000017C5100017C6F7D6B7E6B2A
:100A98007F6B7CC00CFF00D0040E00017B19D8A42A
:100AA8008BD0F70E00017619D8A486D00F011187D4
:100AB8000001725100017C6F7D6B7E6B7F6B7CC087
:100AC80013FF000E0001721500017C6FFF0E00017C
:100AD800731500017D6F000E0001741500017E6F13
:100AE800000E0001751500017F6F7CC077F07DC096
:100AF80078F07EC079F07FC07AF078C077F079C05E
:100B080078F07AC079F000017A6B77C07CF078C011
:100B18007DF079C07EF07AC07FF07CC012FF0001C2
:100B280074A103D00F01118102D00F0111910001AE
:100B380074A303D00F01118302D00F011193000198
:100B480074A503D00F01118B02D00F01119B000176
:100B580074A703D00F01118D02D00F01119D000160
:100B680074A903D00F01118F03D00F01119F00D07A
:100B780072C077F073C078F074C079F075C07AF0FD
:100B8800160E06D00001D8907A337933783377334C
:100B9800E82EF8D777C07CF078C07DF079C07EF079
:100BA8007AC07FF000017C5100017C6F7D6B7E6B09
:100BB8007F6B7CC010FF00D0050E00017B19D8A404
:100BC8008BD0F70E00017619D8A486D00F011587AF
:100BD8000001725100017C6F7D6B7E6B7F6B7CC066
:100BE80017FF000E0001721500017C6FFF0E000157
:100BF800731500017D6F000E0001741500017E6FF2
:100C0800000E0001751500017F6F7CC077F07DC074
:100C180078F07EC079F07FC07AF078C077F079C03C
:100C280078F07AC079F000017A6B77C07CF078C0F0
:100C38007DF079C07EF07AC07FF07CC016FF00019D
:100C480074A103D00F01158102D00F011591000185
:100C580074A303D00F01158302D00F01159300016F
:100C680074A503D00F01158B02D00F01159B00014D
:100C780074A703D00F01158D02D00F01159D000137
:100C880074A903D00F01158F03D00F01159F00D051
:100C980072C077F073C078F074C079F075C07AF0DC
:100CA800160E06D00001D8907A337933783377332B
:100CB800E82EF8D777C07CF078C07DF079C07EF058
:100CC8007AC07FF000017C5100017C6F7D6B7E6BE8
:100CD8007F6B7CC014FF00D012000F0140B718D101
:100CE80007C045FF08AC03D00F01458D02D00F01A6
:100CF800459D08A667D001500D6E0E6A0F6A106AEE
:100D08000DC044FF000E01140D6EFF0E02140E6E8E
:100D1800000E03140F6E000E0414106E0DC009F0BF
:100D28000EC00AF00FC00BF010C00CF00AC009F09A
:100D38000BC00AF00CC00BF00C6A09C00DF00AC019
:100D48000EF00BC00FF00CC010F00DC043FF000EEA
:100D58000F01426F0F01428703A002D00F014281A9
:100D680003A202D00F01428303A402D00F01428BD9
:100D780003A602D00F01428D03A803D00F01428FB2
:100D880000D001C009F002C00AF003C00BF004C093
:100D98000CF0160E05D0D8900C320B320A320932FC
:100DA800E82EF9D709C00DF00AC00EF00BC00FF0FD
:100DB8000CC010F00D500D6E0E6A0F6A106A0DC04F
:100DC80041FF4ED00F01429701C009F002C00AF05E
:100DD80003C00BF004C00CF0040E05D0D8900C3200
:100DE8000B320A320932E82EF9D709C00DF00AC0D1
:100DF8000EF00BC00FF00CC010F00D500D6E0E6A07
:100E08000F6A106A0DC041FF070E01140D6E000E27
:100E180002140E6E000E03140F6E000E0414106EF2
:100E28000DC009F00EC00AF00FC00BF010C00CF096
:100E3800050ED89009360A360B360C36E82EF9D747
:100E480009C00DF00AC00EF00BC00FF00CC010F076
:100E58000F0142511F0B0F01426F0DC042FF00D01E
:100E680008A003D00F01408102D00F01409108A2D1
:100E780003D00F01408303D00F01409300D005C079
:100E8800D9FF06C0DAFFDF500F01466F20EE01F0F0
:100E98000550D9260650DA22DF500F01476F20EEA1
:100EA80002F00550D9260650DA22DF500F01486FAC
:100EB80020EE03F00550D9260650DA22DF500F0144
:100EC800496F20EE04F00550D9260650DA22DF508B
:100ED8000F014A6F20EE05F00550D9260650DA2298
:100EE800DF500F014B6F20EE06F00550D926065053
:100EF800DA22DF500F014C6F20EE07F00550D9269B
:100F08000650DA22DF500F014D6F0F01408736D2AD
:100F18000F0130B718D107C035FF08AC03D00F0157
:100F2800358D02D00F01359D08A667D001500D6E92
:100F38000E6A0F6A106A0DC034FF000E01140D6EA0
:100F4800FF0E02140E6E000E03140F6E000E041432
:100F5800106E0DC009F00EC00AF00FC00BF010C0E3
:100F68000CF00AC009F00BC00AF00CC00BF00C6AB8
:100F780009C00DF00AC00EF00BC00FF00CC010F045
:100F88000DC033FF000E0F01326F0F01328703A02F
:100F980002D00F01328103A202D00F01328303A4D1
:100FA80002D00F01328B03A602D00F01328D03A8A5
:100FB80003D00F01328F00D001C009F002C00AF03F
:100FC80003C00BF004C00CF0160E05D0D8900C32FC
:100FD8000B320A320932E82EF9D709C00DF00AC0DF
:100FE8000EF00BC00FF00CC010F00D500D6E0E6A15
:100FF8000F6A106A0DC031FF4ED00F01329701C041
:1010080009F002C00AF003C00BF004C00CF0040E93
:1010180005D0D8900C320B320A320932E82EF9D7B3
:1010280009C00DF00AC00EF00BC00FF00CC010F094
:101038000D500D6E0E6A0F6A106A0DC031FF070E53
:1010480001140D6E000E02140E6E000E03140F6EC6
:10105800000E0414106E0DC009F00EC00AF00FC087
:101068000BF010C00CF0050ED89009360A360B3676
:101078000C36E82EF9D709C00DF00AC00EF00BC0E7
:101088000FF00CC010F00F0132511F0B0F01326F1F
:101098000DC032FF00D008A003D00F01308102D06C
:1010A8000F01309108A203D00F01308303D00F0144
:1010B800309300D005C0D9FF06C0DAFFDF500F011A
:1010C800366F20EE01F00550D9260650DA22DF509F
:1010D8000F01376F20EE02F00550D9260650DA22AC
:1010E800DF500F01386F20EE03F00550D926065067
:1010F800DA22DF500F01396F20EE04F00550D926AF
:101108000650DA22DF500F013A6F20EE05F0055045
:10111800D9260650DA22DF500F013B6F20EE06F089
:101128000550D9260650DA22DF500F013C6F20EE19
:1011380007F00550D9260650DA22DF500F013D6F1F
:101148000F0130871BD10F0120B718D107C025FF29
:1011580008AC03D00F01258D02D00F01259D08A6EC
:1011680067D001500D6E0E6A0F6A106A0DC024FF19
:10117800000E01140D6EFF0E02140E6E000E031405
:101188000F6E000E0414106E0DC009F00EC00AF0A8
:101198000FC00BF010C00CF00AC009F00BC00AF029
:1011A8000CC00BF00C6A09C00DF00AC00EF00BC0A1
:1011B8000FF00CC010F00DC023FF000E0F01226FBE
:1011C8000F01228703A002D00F01228103A202D0BF
:1011D8000F01228303A402D00F01228B03A602D0A1
:1011E8000F01228D03A803D00F01228F00D001C068
:1011F80009F002C00AF003C00BF004C00CF0160E90
:1012080005D0D8900C320B320A320932E82EF9D7C1
:1012180009C00DF00AC00EF00BC00FF00CC010F0A2
:101228000D500D6E0E6A0F6A106A0DC021FF4ED068
:101238000F01229701C009F002C00AF003C00BF0A9
:1012480004C00CF0040E05D0D8900C320B320A32D0
:101258000932E82EF9D709C00DF00AC00EF00BC00C
:101268000FF00CC010F00D500D6E0E6A0F6A106A68
:101278000DC021FF070E01140D6E000E02140E6E34
:10128800000E03140F6E000E0414106E0DC009F04A
:101298000EC00AF00FC00BF010C00CF0050ED8906D
:1012A80009360A360B360C36E82EF9D709C00DF088
:1012B8000AC00EF00BC00FF00CC010F00F01225145
:1012C8001F0B0F01226F0DC022FF00D008A003D012
:1012D8000F01208102D00F01209108A203D00F0135
:1012E800208303D00F01209300D005C0D9FF06C08A
:1012F800DAFFDF500F01266F20EE01F00550D926E6
:101308000650DA22DF500F01276F20EE02F0055059
:10131800D9260650DA22DF500F01286F20EE03F09D
:101328000550D9260650DA22DF500F01296F20EE2A
:1013380004F00550D9260650DA22DF500F012A6F33
:1013480020EE05F00550D9260650DA22DF500F01AD
:101358002B6F20EE06F00550D9260650DA22DF5012
:101368000F012C6F20EE07F00550D9260650DA221F
:10137800DF500F012D6F0F01208700D01200000EE3
:101388000B6E74AE02D00B8000D074AC02D00B820E
:1013980000D00F0150AF49D101C0D9FF02C0DAFF18
:1013A800DE6ADE6ADE6ADD6A20EE04F00150D926C4
:1013B8000250DA2256CFDFFF20EE05F00150D92681
:1013C8000250DA2257CFDFFF20EE06F00150D9266F
:1013D8000250DA2258CFDFFF20EE07F00150D9265D
:1013E8000250DA2259CFDFFF20EE08F00150D9264B
:1013F8000250DA225ACFDFFF20EE09F00150D92639
:101408000250DA225BCFDFFF20EE0AF00150D92626
:101418000250DA225CCFDFFF20EE0BF00150D92614
:101428000250DA225DCFDFFF20EE0EF00150D92600
:101438000250DA220F0155AD02D0010E01D0000E84
:10144800DF6E20EE0DF00150D9260250DA220F018E
:1014580055510F0BDF6E20EE0CF00150D9260250CB
:10146800DA220F0152A702D0010E01D0000EDF6E62
:101478000F0152B744D051CF03F0046A056A066AD7
:10148800030ED8900336043605360636E82EF9D70B
:1014980001C0D9FF02C0DAFF03C0DEFF04C0DEFFCF
:1014A80005C0DEFF06C0DEFF0F015239E842070B18
:1014B800070B0C6E01C0D9FF02C0DAFFDECF03F0C4
:1014C800DECF04F0DECF05F0DECF06F00C500324AB
:1014D800076E000E0420086E000E0520096E000E2F
:1014E80006200A6E01C0D9FF02C0DAFF07C0DEFF7E
:1014F80008C0DEFF09C0DEFF0AC0DEFF93D054CF6C
:1015080003F0046A056A066A01C0D9FF02C0DAFF5F
:1015180003C0DEFF04C0DEFF05C0DEFF06C0DEFF3D
:1015280053CF03F0046A056A066A05C006F004C0D2
:1015380005F003C004F0036A01C0D9FF02C0DAFF56
:101548000350DE260450DE220550DE220650DE223D
:101558000F0152A10DD001C0D9FF02C0DAFF000E61
:10156800DE12000EDE12010EDE12000EDE1200D0B8
:101578000F0152A30DD001C0D9FF02C0DAFF000E3F
:10158800DE12000EDE12020EDE12000EDE1200D097
:101598000F0152AB0DD001C0D9FF02C0DAFF000E17
:1015A800DE12000EDE12040EDE12000EDE1200D075
:1015B8000F0152AD0DD001C0D9FF02C0DAFF000EF5
:1015C800DE12000EDE12080EDE12000EDE1200D051
:1015D8000F0152AF0DD001C0D9FF02C0DAFF000ED3
:1015E800DE12000EDE12100EDE12000EDE1200D029
:1015F80051CF03F0046A056A066A150ED8900336BF
:10160800043605360636E82EF9D701C0D9FF02C0E0
:10161800DAFF0350DE120450DE120550DE120650C7
:10162800DE1200D00F01509F40D160AE3ED101C004
:10163800D9FF02C0DAFFDE6ADE6ADE6ADD6A20EE02
:1016480004F00150D9260250DA2266CFDFFF20EEDF
:1016580005F00150D9260250DA2267CFDFFF20EECD
:1016680006F00150D9260250DA2268CFDFFF20EEBB
:1016780007F00150D9260250DA2269CFDFFF20EEA9
:1016880008F00150D9260250DA226ACFDFFF20EE97
:1016980009F00150D9260250DA226BCFDFFF20EE85
:1016A8000AF00150D9260250DA226CCFDFFF20EE73
:1016B8000BF00150D9260250DA226DCFDFFF20EE61
:1016C8000EF00150D9260250DA2265AC02D0010E84
:1016D80001D0000EDF6E20EE0DF00150D926025029
:1016E800DA2265500F0BDF6E20EE0CF00150D92680
:1016F8000250DA2262A602D0010E01D0000EDF6E7F
:1017080062B643D061CF03F0046A056A066A030E25
:10171800D8900336043605360636E82EF9D701C0C8
:10172800D9FF02C0DAFF03C0DEFF04C0DEFF05C038
:10173800DEFF06C0DEFF6238E842070B070B0C6EBF
:1017480001C0D9FF02C0DAFFDECF03F0DECF04F01C
:10175800DECF05F0DECF06F00C500324076E000E36
:101768000420086E000E0520096E000E06200A6E81
:1017780001C0D9FF02C0DAFF07C0DEFF08C0DEFFE4
:1017880009C0DEFF0AC0DEFF8ED064CF03F0046A12
:10179800056A066A01C0D9FF02C0DAFF03C0DEFF8E
:1017A80004C0DEFF05C0DEFF06C0DEFF63CF03F026
:1017B800046A056A066A05C006F004C005F003C09D
:1017C80004F0036A01C0D9FF02C0DAFF0350DE2625
:1017D8000450DE220550DE220650DE2262A00DD023
:1017E80001C0D9FF02C0DAFF000EDE12000EDE12C1
:1017F800010EDE12000EDE1200D062A20DD001C072
:10180800D9FF02C0DAFF000EDE12000EDE12020E51
:10181800DE12000EDE1200D062AA0DD001C0D9FF80
:1018280002C0DAFF000EDE12000EDE12040EDE1217
:10183800000EDE1200D062AC0DD001C0D9FF02C08C
:10184800DAFF000EDE12000EDE12080EDE12000EA7
:10185800DE1200D062AE0DD001C0D9FF02C0DAFF9F
:10186800000EDE12000EDE12100EDE12000EDE1268
:1018780000D061CF03F0046A056A066A150ED89095
:101888000336043605360636E82EF9D701C0D9FFE7
:1018980002C0DAFF0350DE120450DE120550DE12D9
:1018A8000650DE1200D0609E00D0120000017B6F4F
:1018B80000017B05D8A457D000017629D8A453D0BD
:1018C80072C077F073C078F074C079F075C07AF0A0
:1018D800040E06D00001D8907A3379337833773301
:1018E800E82EF8D777C07CF078C07DF079C07EF01C
:1018F8007AC07FF000017C5100017C6F7D6B7E6BAC
:101908007F6B7CC018FF070E0001721500017C6F09
:10191800000E0001731500017D6F000E00017415A3
:1019280000017E6F000E0001751500017F6F7CC0FD
:1019380077F07DC078F07EC079F07FC07AF0050E30
:10194800D89000017737783779377A37E82EF8D783
:1019580077C07CF078C07DF079C07EF07AC07FF0E7
:101968007CC019FF00D0020E00017B19D8A457D003
:1019780000017629D8A453D072C077F073C078F0EC
:1019880074C079F075C07AF0040E06D00001D890C2
:101998007A33793378337733E82EF8D777C07CF009
:1019A80078C07DF079C07EF07AC07FF000017C516C
:1019B80000017C6F7D6B7E6B7F6B7CC01CFF070E0C
:1019C8000001721500017C6F000E00017315000103
:1019D8007D6F000E0001741500017E6F000E00017E
:1019E800751500017F6F7CC077F07DC078F07EC0F0
:1019F80079F07FC07AF0050ED890000177377837F4
:101A080079377A37E82EF8D777C07CF078C07DF040
:101A180079C07EF07AC07FF07CC01DFF00D0000145
:101A28007B05D8A489D0F70E00017619D8A484D0F4
:101A38000001725100017C6F7D6B7E6B7F6B7CC0F7
:101A48001BFF000E0001721500017C6FFF0E0001E4
:101A5800731500017D6F000E0001741500017E6F83
:101A6800000E0001751500017F6F7CC077F07DC006
:101A780078F07EC079F07FC07AF078C077F079C0CE
:101A880078F07AC079F000017A6B77C07CF078C082
:101A98007DF079C07EF07AC07FF07CC01AFF00012B
:101AA80074A103D00F01198102D00F01199100010F
:101AB80074A303D00F01198302D00F0119930001F9
:101AC80074A503D00F01198B02D00F01199B0001D7
:101AD80074A703D00F01198D02D00F01199D0001C1
:101AE80074A903D00F01198F03D00F01199F00D0DB
:101AF80072C077F073C078F074C079F075C07AF06E
:101B0800160E06D00001D8907A33793378337733BC
:101B1800E82EF8D777C07CF078C07DF079C07EF0E9
:101B28007AC07FF000017C5100017C6F7D6B7E6B79
:101B38007F6B7CC018FF00D0020E00017B19D8A46F
:101B480089D0F70E00017619D8A484D0000172510B
:101B580000017C6F7D6B7E6B7F6B7CC01FFF000E6E
:101B68000001721500017C6FFF0E00017315000162
:101B78007D6F000E0001741500017E6F000E0001DC
:101B8800751500017F6F7CC077F07DC078F07EC04E
:101B980079F07FC07AF078C077F079C078F07AC0B1
:101BA80079F000017A6B77C07CF078C07DF079C05D
:101BB8007EF07AC07FF07CC01EFF000174A103D0C4
:101BC8000F011D8102D00F011D91000174A303D0E4
:101BD8000F011D8302D00F011D93000174A503D0CE
:101BE8000F011D8B02D00F011D9B000174A703D0AC
:101BF8000F011D8D02D00F011D9D000174A903D096
:101C08000F011D8F03D00F011D9F00D072C077F008
:101C180073C078F074C079F075C07AF0160E06D0EB
:101C28000001D8907A33793378337733E82EF8D7B0
:101C380077C07CF078C07DF079C07EF07AC07FF004
:101C480000017C5100017C6F7D6B7E6B7F6B7CC0DB
:101C58001CFF00D012000001896F800EA2EC12F068
:101C6800000E706E000E716E000E726E00018241E1
:101C7800E842C00B0001826F00018251701200011E
:101C88008351701200018951711200018039E842B4
:101C9800F80B0001806F000180517112000184A5CA
:101CA800718C000184A102D0718E00D00001815195
:101CB8007212000184A302D0728C00D000018451FA
:101CC800600B606E00018451100BFF0AD8B4608469
:101CD80060CF50FF000E0001726F000E736F000E90
:101CE800746F000E756FF70E0001766F010E5AECD7
:101CF8000CF0000E0001726F000E736F000E746F0F
:101D0800000E756FF70E0001766F020E5AEC0CF09C
:101D18000FD0F70E00018A6F07D000018A69000111
:101D28008B6928D000018A69F70E00018B6F22D0D9
:101D38009F0E0001856FFF0E0001866F0001845120
:101D4800600B0001876F886B0001855100018713C4
:101D5800000186510001881300018851000AD8A4A7
:101D6800E1D700018751BF0AD8B4D7D7600AD8B4E1
:101D7800D0D7D8D7000E0001726F000E736F000E17
:101D8800746F000E756F8AC076F0000EDCEC00F000
:101D9800000E0001726F000E736F000E746F000E5C
:101DA800756F8AC076F0010EDCEC00F0000E0001C1
:101DB800726F000E736F000E746F000E756F8BC01C
:101DC80076F0020EDCEC00F0000E0001726F000EDF
:101DD800736F000E746F000E756F8BC076F0030E74
:101DE800DCEC00F0000E0001726F000E736F000E45
:101DF800746F000E756F8BC076F0040EDCEC00F08B
:101E0800000E0001726F000E736F000E746F000EEB
:101E1800756F8BC076F0050EDCEC00F0000EA2ECBE
:101E280012F0120007EC11F000D0000E0001796FDB
:101E3800050E786F55EC12F0C2EC11F047C094F023
:101E480048C095F00001000E95BFFF0E966F976F82
:101E580082B085D094C072F095C073F096C074F0CB
:101E680097C075F0BC0E0001766F020E776F000EFA
:101E7800786F000E796F85EC11F072C07EF073C038
:101E88007FF074C080F075C081F05A0E0001826F37
:101E9800000E836F000E846F000E856F57EC10F0F4
:101EA800D89000017E3500018C6F00017F3500015C
:101EB8008D6F0001803500018E6F000181350001B2
:101EC8008F6F400E00018C250001986F060E0001EF
:101ED8008D210001996F000E00018E2100019A6F7B
:101EE800000E00018F2100019B6F98C08CF099C0F3
:101EF8008DF000018C1F8D1F8C4B8D2B8CC02BF00F
:101F08008DC02CF098C08CF099C08DF09AC08EF0DE
:101F18009BC08FF00001D8908F338E338D338C3374
:101F280000018C1F8D1F8C4B8D2B200E00018C25E2
:101F3800296E4E0E00018D212A6E29C08CF02AC010
:101F48008DF0D89000018C378D3700018C1F8D1FC4
:101F58008C4B8D2B8CC029F08DC02AF000D0D4EC8E
:101F680012F0E806D8B405D0DBEC12F0E806D8A4E5
:101F78005CD780825AD7DAEF00F0000E00017B6F41
:101F8800000179AF0DD00001791F781F771F766D9A
:101F9800000E772378237923010E00017B6F00D090
:101FA800000175AF0DD00001751F741F731F726D8E
:101FB800000E732374237523010E00017B1B00D0D0
:101FC800000E00017C6F000E7D6F000E7E6F000E0C
:101FD8007F6F00017651000177110001781100012F
:101FE8007911D8B447D0010E00017A6F09D00001E9
:101FF800D890763777377837793700017A2B00D041
:10200800000179BF02D0F3D700D00001D8907C3707
:102018007D377E377F37000176510001725D000100
:10202800775100017359000178510001745900017A
:10203800795100017559D8A013D0000176510001DB
:10204800725F000177510001735B00017851000154
:10205800745B000179510001755B00017C8100D03F
:102068000001D890793378337733763300017A2FAB
:10207800CCD700D000017B510001D8B40AD00001B0
:102088007F1F7E1F7D1F7C6D000E7D237E237F2397
:1020980000D07CC072F07DC073F07EC074F07FC049
:1020A80075F000D01200000E0001866F000E876FD9
:1020B800000E886F000E896F0001825100018311A4
:1020C8000001841100018511D8B447D0010E000128
:1020D8008A6F09D00001D8908237833784378537D3
:1020E80000018A2B00D0000185BF02D0F3D700D0B1
:1020F8000001D890863787378837893700018251A1
:1021080000017E5D0001835100017F590001845167
:10211800000180590001855100018159D8A013D0D0
:102128000001825100017E5F0001835100017F5B45
:10213800000184510001805B000185510001815B31
:102148000001868100D00001D89085338433833321
:10215800823300018A2FCCD700D086C07EF087C09A
:102168007FF088C080F089C081F012000600EACFB5
:1021780067F0E1CF68F0E2CF69F0D9CF6AF0DACF43
:102188006BF0F3CF6CF0F4CF6DF0F6CF6EF0F7CFC5
:102198006FF0F8CF70F0F5CF71F04BA016D08270C9
:1021A800D59E82A008D02BC060F02CC061F0C4EC92
:1021B80012F0D58E00D082B008D029C060F02AC0B5
:1021C80061F0C4EC12F0D58E00D0F29471C0F5FF26
:1021D80070C0F8FF6FC0F7FF6EC0F6FF6DC0F4FF68
:1021E8006CC0F3FF6BC0DAFF6AC0D9FF69C0E2FFB9
:1021F80068C0E1FF67C0EAFF66C0E9FF65C0FBFF92
:1022080064C0FAFF1100D08E060E0001806F050E23
:102218000001816F010E0001826F030E0001836FC0
:102228009D0E0001846F040E2FEC0EF0A492A49072
:10223800F294A592A590F184D08EA382A380F28A0D
:10224800F28EF28C040E0001726FFE0E0001736FA5
:10225800DD0E47EC11F0D58E8290000E896EFD0ED2
:10226800926E000E8A6EFB0E936E000E8B6E000E41
:10227800946E000E8C6E000E956E000E8D6E966834
:10228800800ED56E12000001766F000EC26E000E31
:10229800C06E0001D89072313C0BC26E72C074F0EF
:1022A8000001743BF00E7417300E00017417000122
:1022B80073510F0B00017411C16E76C074F00001E8
:1022C800D89074370001D8907437380E000174170D
:1022D80076C075F00001753B0F0E7517070E0001EB
:1022E800751700017651800B0001751100017411FA
:1022F800C06E000172AF03D09E9C9D8CF28CC28090
:102308001200000E00017A6F000E7B6F000E7C6FCA
:10231800000E7D6F00D0000172A111D0000176512E
:1023280000017A270001775100017B2300017851D1
:1023380000017C230001795100017D2300D00001B8
:10234800D89076377737783779370001D890753352
:102358007433733372330001725100017311000139
:10236800741100017511D8A4D6D77AC072F07BC059
:1023780073F07CC074F07DC075F01200E4EC12F0CC
:1023880000D0CDEC12F00009D8A4FBD7BAEC12F0BB
:10239800000172C090F0000173C091F00001000EBE
:1023A80091BFFF0E926F936F010E000190250001FF
:1023B800726FFE0E000191210001736FFF0E000184
:1023C80092210001746FFF0E000193210001756FC7
:1023D8001E0E0001766F000E776F000E786F000EEC
:1023E800796FC1EC0FF072C02DF073C02EF012009F
:1023F800000E0C6E000E0B6E09500A10D8B421D0D6
:10240800010E0D6E05D0D89009360A360D2A00D077
:102418000ABE02D0F8D700D0D8900B360C36095037
:10242800075C0A500858D8A006D00950075E0A5021
:10243800085A0B8000D0D8900A3209320D2EECD7FA
:1024480000D00BC007F00CC008F0120000EE90F0AE
:102458000E0EEE6AE806FDE14B6A00EE25F0220E4C
:10246800EE6AE806FDE1CC0EF66E250EF76E000E5C
:10247800F86E0900F5CF9EF0C40EF66E250EF76EC5
:10248800000EF86E00EE47F010EE04F00900F5CFEC
:10249800EEFFE550E150FAE1000EF86E000116EF8C
:1024A8000FF09EC072F00001736B78C074F079C0B1
:1024B80075F072EC12F072C09CF073C09DF007D0FA
:1024C800500EE82EFED700019C07D8A09D070001FA
:1024D8009C5100019D11D8A4F3D71200000172513C
:1024E80000017403F3CF76F0F4CF77F00001725156
:1024F80000017503F35000017727000173510001B3
:102508007403F3500001772776C072F077C073F038
:1025180000D0120001500302F3CF05F0F4CF06F00B
:1025280001500402F350062602500302F350062617
:1025380005C001F006C002F000D012000001726F61
:1025480072C06FFF00D06E50E00B00017219D8A462
:10255800FAD71200010E016E60BE05D00F0150BF00
:1025680002D0000E016E015000D01200C4500001CC
:10257800746FC3500001726F74C073F000D0120002
:1025880060C062F061C063F063C0D7FF62C0D6FF6D
:102598001200C2A202D0010E02D0000E00D012001A
:1025A80074A402D0010E02D0000E00D0120074A252
:1025B80002D0010E02D0000E00D012005A006E00A8
:0625C800C28212001000A7
:020000040020DA
:08000000FFFFFFFFFFFFFFFF00
:020000040030CA
:0E000000FF021F1EFF8081FF0FC00FE00F40A8
:00000001FF
