:04000000AAEF00F073
:0E0008004B82FACF65F0FBCF66F069ED10F089
:100018004B80D8CF32F0E8CF33F0E0CF34F0FACFCE
:1000280035F0FBCF36F0E9CF37F0EACF38F0E1CF43
:1000380039F0E2CF3AF0D9CF3BF0DACF3CF0F3CF4A
:100048003DF0F4CF3EF0F6CF3FF0F7CF40F0F8CFD9
:1000580041F0F5CF42F0A4A0A4B201D046D07CEC88
:1000680012F00009D8B43FD0160E256E000E266E89
:10007800F5EC09F02404D8A40DD016C0A5F017C0DB
:10008800A6F018C0A7F019C0A8F024A002D04A8092
:1000980001D04A90100E1918161017101810D8B45D
:1000A80015C0B3F0060E1618171018101910D8A49A
:1000B8001AD01AC015F015500D24476E47C025F008
:1000C800266A43C027F044C028F04CEC12F025C043
:1000D8002BF026C02CF0000E2E6EB40E2D6EBDEC4B
:1000E80011F02B50476EA490A492A1A20BD0010E40
:1000F8000526000E062207220822630EB36EC00EE4
:10010800B26EA19242C0F5FF41C0F8FF40C0F7FFB0
:100118003FC0F6FF3EC0F4FF3DC0F3FF3CC0DAFF2E
:100128003BC0D9FF3AC0E2FF39C0E1FF38C0EAFF5F
:1001380037C0E9FF36C0FBFF35C0FAFF34C0E0FF27
:1001480033C0E8FF32C0D8FF4B901000E6EF11F043
:1001580000017C6F00017C510001D8A458D0000137
:100168007729D8A454D00F01019773C078F074C0D0
:1001780079F075C07AF076C07BF0040E06D00001E5
:10018800D8907B337A3379337833E82EF8D778C030
:100198007DF079C07EF07AC07FF07BC080F00001EE
:1001A8007D5100017D6F7E6B7F6B806B7DC000FF92
:1001B800070E0001731500017D6F000E0001741514
:1001C80000017E6F000E0001751500017F6F000EA3
:1001D800000176150001806F7DC078F07EC079F04F
:1001E8007FC07AF080C07BF0050ED8900001783788
:1001F80079377A377B37E82EF8D778C07DF079C021
:100208007EF07AC07FF07BC080F07DC001FF0001E6
:100218007C05D8A458D000017729D8A454D00F0160
:10022800059773C078F074C079F075C07AF076C01D
:100238007BF0040E06D00001D8907B337A337933F3
:100248007833E82EF8D778C07DF079C07EF07AC090
:100258007FF07BC080F000017D5100017D6F7E6BD7
:100268007F6B806B7DC004FF070E000173150001D2
:100278007D6F000E0001741500017E6F000E0001F5
:10028800751500017F6F000E000176150001806F63
:100298007DC078F07EC079F07FC07AF080C07BF0B6
:1002A800050ED8900001783779377A377B37E82EF2
:1002B800F8D778C07DF079C07EF07AC07FF07BC037
:1002C80080F07DC005FF020E00017C19D8A458D02B
:1002D80000017729D8A454D00F01099773C078F08A
:1002E80074C079F075C07AF076C07BF0040E06D041
:1002F8000001D8907B337A3379337833E82EF8D7F6
:1003080078C07DF079C07EF07AC07FF07BC080F045
:1003180000017D5100017D6F7E6B7F6B806B7DC01E
:1003280008FF070E0001731500017D6F000E000124
:10033800741500017E6F000E0001751500017F6FB6
:10034800000E000176150001806F7DC078F07EC038
:1003580079F07FC07AF080C07BF0050ED89000015C
:10036800783779377A377B37E82EF8D778C07DF039
:1003780079C07EF07AC07FF07BC080F07DC009FF35
:10038800030E00017C19D8A458D000017729D8A4FD
:1003980054D00F010D9773C078F074C079F075C010
:1003A8007AF076C07BF0040E06D00001D8907B333B
:1003B8007A3379337833E82EF8D778C07DF079C06E
:1003C8007EF07AC07FF07BC080F000017D51000193
:1003D8007D6F7E6B7F6B806B7DC00CFF070E00010D
:1003E800731500017D6F000E0001741500017E6F0A
:1003F800000E0001751500017F6F000E00017615D3
:100408000001806F7DC078F07EC079F07FC07AF0FF
:1004180080C07BF0050ED8900001783779377A379D
:100428007B37E82EF8D778C07DF079C07EF07AC0A7
:100438007FF07BC080F07DC00DFF040E00017C19A9
:10044800D8A458D000017729D8A454D00F01119707
:1004580073C078F074C079F075C07AF076C07BF01C
:10046800040E06D00001D8907B337A337933783381
:10047800E82EF8D778C07DF079C07EF07AC07FF09A
:100488007BC080F000017D5100017D6F7E6B7F6B2A
:10049800806B7DC010FF070E0001731500017D6F92
:1004A800000E0001741500017E6F000E0001751525
:1004B80000017F6F000E000176150001806F7DC07E
:1004C80078F07EC079F07FC07AF080C07BF0050EAE
:1004D800D8900001783779377A377B37E82EF8D704
:1004E80078C07DF079C07EF07AC07FF07BC080F064
:1004F8007DC011FF050E00017C19D8A458D0000159
:100508007729D8A454D00F01159773C078F074C018
:1005180079F075C07AF076C07BF0040E06D0000141
:10052800D8907B337A3379337833E82EF8D778C08C
:100538007DF079C07EF07AC07FF07BC080F000014A
:100548007D5100017D6F7E6B7F6B806B7DC014FFDA
:10055800070E0001731500017D6F000E0001741570
:1005680000017E6F000E0001751500017F6F000EFF
:10057800000176150001806F7DC078F07EC079F0AB
:100588007FC07AF080C07BF0050ED89000017837E4
:1005980079377A377B37E82EF8D778C07DF079C07D
:1005A8007EF07AC07FF07BC080F07DC015FF00012F
:1005B8007C510001D8A489D0F70E00017719D8A47E
:1005C80084D00F0101870001735100017D6F7E6B9C
:1005D8007F6B806B7DC003FF000E00017315000167
:1005E8007D6FFF0E0001741500017E6F000E000183
:1005F800751500017F6F000E000176150001806FF0
:100608007DC078F07EC079F07FC07AF080C07BF042
:1006180079C078F07AC079F07BC07AF000017B6B02
:1006280078C07DF079C07EF07AC07FF07BC080F022
:100638007DC002FF000175A103D00F01018102D026
:100648000F010191000175A303D00F01018302D0AE
:100658000F010193000175A503D00F01018B02D092
:100668000F01019B000175A703D00F01018D02D076
:100678000F01019D000175A903D00F01018F02D060
:100688000F01019F73C078F074C079F075C07AF0DB
:1006980076C07BF0160E06D00001D8907B337A33F3
:1006A80079337833E82EF8D778C07DF079C07EF0BA
:1006B8007AC07FF07BC080F000017D5100017D6F22
:1006C8007E6B7F6B806B7DC000FF00017C05D8A42A
:1006D80089D0F70E00017719D8A484D00F010587B7
:1006E8000001735100017D6F7E6B7F6B806B7DC055
:1006F80007FF000E0001731500017D6FFF0E00015A
:10070800741500017E6F000E0001751500017F6FE2
:10071800000E000176150001806F7DC078F07EC064
:1007280079F07FC07AF080C07BF079C078F07AC029
:1007380079F07BC07AF000017B6B78C07DF079C0DE
:100748007EF07AC07FF07BC080F07DC006FF00019C
:1007580075A103D00F01058102D00F010591000199
:1007680075A303D00F01058302D00F010593000183
:1007780075A503D00F01058B02D00F01059B000161
:1007880075A703D00F01058D02D00F01059D00014B
:1007980075A903D00F01058F02D00F01059F73C003
:1007A80078F074C079F075C07AF076C07BF0160ED8
:1007B80006D00001D8907B337A3379337833E82E2A
:1007C800F8D778C07DF079C07EF07AC07FF07BC022
:1007D80080F000017D5100017D6F7E6B7F6B806B27
:1007E8007DC004FF020E00017C19D8A489D0F70E41
:1007F80000017719D8A484D00F010987000173512B
:1008080000017D6F7E6B7F6B806B7DC00BFF000EE0
:100818000001731500017D6FFF0E000174150001C2
:100828007E6F000E0001751500017F6F000E00013C
:1008380076150001806F7DC078F07EC079F07FC0AA
:100848007AF080C07BF079C078F07AC079F07BC00C
:100858007AF000017B6B78C07DF079C07EF07AC0B9
:100868007FF07BC080F07DC00AFF000175A103D036
:100878000F01098102D00F010991000175A303D06E
:100888000F01098302D00F010993000175A503D058
:100898000F01098B02D00F01099B000175A703D036
:1008A8000F01098D02D00F01099D000175A903D020
:1008B8000F01098F02D00F01099F73C078F074C02F
:1008C80079F075C07AF076C07BF0160E06D000017C
:1008D800D8907B337A3379337833E82EF8D778C0D9
:1008E8007DF079C07EF07AC07FF07BC080F0000197
:1008F8007D5100017D6F7E6B7F6B806B7DC008FF33
:10090800030E00017C19D8A489D0F70E00017719CD
:10091800D8A484D00F010D870001735100017D6FA9
:100928007E6B7F6B806B7DC00FFF000E000173151F
:1009380000017D6FFF0E0001741500017E6F000E2F
:100948000001751500017F6F000E0001761500018A
:10095800806F7DC078F07EC079F07FC07AF080C06B
:100968007BF079C078F07AC079F07BC07AF000012A
:100978007B6B78C07DF079C07EF07AC07FF07BC059
:1009880080F07DC00EFF000175A103D00F010D811D
:1009980002D00F010D91000175A303D00F010D8343
:1009A80002D00F010D93000175A503D00F010D8B27
:1009B80002D00F010D9B000175A703D00F010D8D0B
:1009C80002D00F010D9D000175A903D00F010D8FF5
:1009D80002D00F010D9F73C078F074C079F075C014
:1009E8007AF076C07BF0160E06D00001D8907B33E3
:1009F8007A3379337833E82EF8D778C07DF079C028
:100A08007EF07AC07FF07BC080F000017D5100014C
:100A18007D6F7E6B7F6B806B7DC00CFF040E0001C9
:100A28007C19D8A489D0F70E00017719D8A484D0EE
:100A38000F0111870001735100017D6F7E6B7F6B81
:100A4800806B7DC013FF000E0001731500017D6FE0
:100A5800FF0E0001741500017E6F000E0001751570
:100A680000017F6F000E000176150001806F7DC0C8
:100A780078F07EC079F07FC07AF080C07BF079C0D2
:100A880078F07AC079F07BC07AF000017B6B78C08F
:100A98007DF079C07EF07AC07FF07BC080F07DC0A9
:100AA80012FF000175A103D00F01118102D00F01BF
:100AB8001191000175A303D00F01118302D00F011A
:100AC8001193000175A503D00F01118B02D00F01FE
:100AD800119B000175A703D00F01118D02D00F01E2
:100AE800119D000175A903D00F01118F02D00F01CC
:100AF800119F73C078F074C079F075C07AF076C031
:100B08007BF0160E06D00001D8907B337A33793308
:100B18007833E82EF8D778C07DF079C07EF07AC0B7
:100B28007FF07BC080F000017D5100017D6F7E6BFE
:100B38007F6B806B7DC010FF050E00017C19D8A467
:100B48001200F70E00017719D8A412000F011587BB
:100B58000001735100017D6F7E6B7F6B806B7DC0E0
:100B680017FF000E0001731500017D6FFF0E0001D5
:100B7800741500017E6F000E0001751500017F6F6E
:100B8800000E000176150001806F7DC078F07EC0F0
:100B980079F07FC07AF080C07BF079C078F07AC0B5
:100BA80079F07BC07AF000017B6B78C07DF079C06A
:100BB8007EF07AC07FF07BC080F07DC016FF000118
:100BC80075A103D00F01158102D00F011591000105
:100BD80075A303D00F01158302D00F0115930001EF
:100BE80075A503D00F01158B02D00F01159B0001CD
:100BF80075A703D00F01158D02D00F01159D0001B7
:100C080075A903D00F01158F02D00F01159F73C06E
:100C180078F074C079F075C07AF076C07BF0160E63
:100C280006D00001D8907B337A3379337833E82EB5
:100C3800F8D778C07DF079C07EF07AC07FF07BC0AD
:100C480080F000017D5100017D6F7E6B7F6B806BB2
:100C58007DC014FF12000F0140B73FD179C045FF96
:100C680000017AAD03D00F01458D02D00F01459DDB
:100C780000017AA779D00001735100017F6F806B62
:100C8800816B826B7FC044FF000E00017315000169
:100C98007F6FFF0E000174150001806F000E0001C8
:100CA80075150001816F000E000176150001826F35
:100CB8007FC07BF080C07CF081C07DF082C07EF078
:100CC8007CC07BF07DC07CF07EC07DF000017E6B37
:100CD8007BC07FF07CC080F07DC081F07EC082F058
:100CE8007FC043FF000E0F01426F0F0142870001D2
:100CF80075A102D00F014281000175A302D00F0136
:100D08004283000175A502D00F01428B000175A72F
:100D180002D00F01428D000175A902D00F01428F48
:100D280073C07BF074C07CF075C07DF076C07EF037
:100D3800160E06D00001D8907E337D337C337B338A
:100D4800E82EF8D77BC07FF07CC080F07DC081F0B2
:100D58007EC082F000017F5100017F6F806B816B44
:100D6800826B7FC041FF59D00F01429773C07BF05F
:100D780074C07CF075C07DF076C07EF0040E06D09D
:100D88000001D8907E337D337C337B33E82EF8D74F
:100D98007BC07FF07CC080F07DC081F07EC082F097
:100DA80000017F5100017F6F806B816B826B7FC078
:100DB80041FF070E0001731500017F6F000E00014F
:100DC80074150001806F000E000175150001816F18
:100DD800000E000176150001826F7FC07BF080C095
:100DE8007CF081C07DF082C07EF0050ED8900001B5
:100DF8007B377C377D377E37E82EF8D77BC07FF08E
:100E08007CC080F07DC081F07EC082F00F0142512D
:100E18001F0B0F01426F7FC042FF00017AA103D070
:100E28000F01408102D00F01409100017AA303D045
:100E38000F01408302D00F01409377C0D9FF78C0DB
:100E4800DAFFDF500F01466F000120EE01F0775105
:100E5800D9267851DA22DF500F01476F000120EEC2
:100E680002F07751D9267851DA22DF500F01486F06
:100E7800000120EE03F07751D9267851DA22DF50AD
:100E88000F01496F000120EE04F07751D9267851FF
:100E9800DA22DF500F014A6F000120EE05F077518A
:100EA800D9267851DA22DF500F014B6F000120EE6E
:100EB80006F07751D9267851DA22DF500F014C6FAE
:100EC800000120EE07F07751D9267851DA22DF5059
:100ED8000F014D6F0F01408712000F0130B73FD14E
:100EE80079C035FF00017AAD03D00F01358D02D0EE
:100EF8000F01359D00017AA779D0000173510001D7
:100F08007F6F806B816B826B7FC034FF000E0001A6
:100F1800731500017F6FFF0E000174150001806FCB
:100F2800000E000175150001816F000E0001761595
:100F38000001826F7FC07BF080C07CF081C07DF0B3
:100F480082C07EF07CC07BF07DC07CF07EC07DF0EE
:100F580000017E6B7BC07FF07CC080F07DC081F09B
:100F68007EC082F07FC033FF000E0F01326F0F0189
:100F78003287000175A102D00F013281000175A3EB
:100F880002D00F013283000175A502D00F01328B08
:100F9800000175A702D00F01328D000175A902D09A
:100FA8000F01328F73C07BF074C07CF075C07DF088
:100FB80076C07EF0160E06D00001D8907E337D33C1
:100FC8007C337B33E82EF8D77BC07FF07CC080F081
:100FD8007DC081F07EC082F000017F5100017F6FEB
:100FE800806B816B826B7FC031FF59D00F013297C4
:100FF80073C07BF074C07CF075C07DF076C07EF065
:10100800040E06D00001D8907E337D337C337B33C9
:10101800E82EF8D77BC07FF07CC080F07DC081F0DF
:101028007EC082F000017F5100017F6F806B816B71
:10103800826B7FC031FF070E0001731500017F6FBF
:10104800000E000174150001806F000E0001751577
:101058000001816F000E000176150001826F7FC0CC
:101068007BF080C07CF081C07DF082C07EF0050EF0
:10107800D89000017B377C377D377E37E82EF8D74C
:101088007BC07FF07CC080F07DC081F07EC082F0A4
:101098000F0132511F0B0F01326F7FC032FF000169
:1010A8007AA103D00F01308102D00F0130910001E5
:1010B8007AA303D00F01308302D00F01309377C099
:1010C800D9FF78C0DAFFDF500F01366F000120EE3C
:1010D80001F07751D9267851DA22DF500F01376FA6
:1010E800000120EE02F07751D9267851DA22DF503C
:1010F8000F01386F000120EE03F07751D92678519F
:10110800DA22DF500F01396F000120EE04F0775129
:10111800D9267851DA22DF500F013A6F000120EE0C
:1011280005F07751D9267851DA22DF500F013B6F4D
:10113800000120EE06F07751D9267851DA22DF50E7
:101148000F013C6F000120EE07F07751D926785146
:10115800DA22DF500F013D6F0F01308712000F01B7
:1011680020B7120079C025FF00017AAD03D00F0126
:10117800258D02D00F01259D00017AA779D00001A5
:10118800735100017F6F806B816B826B7FC024FF7E
:10119800000E0001731500017F6FFF0E000174152A
:1011A8000001806F000E000175150001816F000EAF
:1011B800000176150001826F7FC07BF080C07CF053
:1011C80081C07DF082C07EF07CC07BF07DC07CF069
:1011D8007EC07DF000017E6B7BC07FF07CC080F01C
:1011E8007DC081F07EC082F07FC023FF000E0F011A
:1011F800226F0F012287000175A102D00F01228101
:10120800000175A302D00F012283000175A502D049
:101218000F01228B000175A702D00F01228D00015A
:1012280075A902D00F01228F73C07BF074C07CF0C7
:1012380075C07DF076C07EF0160E06D00001D890FD
:101248007E337D337C337B33E82EF8D77BC07FF049
:101258007CC080F07DC081F07EC082F000017F51AB
:1012680000017F6F806B816B826B7FC021FF59D03B
:101278000F01229773C07BF074C07CF075C07DF0BD
:1012880076C07EF0040E06D00001D8907E337D3300
:101298007C337B33E82EF8D77BC07FF07CC080F0AE
:1012A8007DC081F07EC082F000017F5100017F6F18
:1012B800806B816B826B7FC021FF070E0001731565
:1012C80000017F6F000E000174150001806F000E91
:1012D800000175150001816F000E000176150001EF
:1012E800826F7FC07BF080C07CF081C07DF082C0BF
:1012F8007EF0050ED89000017B377C377D377E372E
:10130800E82EF8D77BC07FF07CC080F07DC081F0EC
:101318007EC082F00F0122511F0B0F01226F7FC088
:1013280022FF00017AA103D00F01208102D00F0112
:10133800209100017AA303D00F01208302D00F016E
:10134800209377C0D9FF78C0DAFFDF500F01266FEE
:10135800000120EE01F07751D9267851DA22DF50CA
:101368000F01276F000120EE02F07751D92678513E
:10137800DA22DF500F01286F000120EE03F07751C9
:10138800D9267851DA22DF500F01296F000120EEAB
:1013980004F07751D9267851DA22DF500F012A6FED
:1013A800000120EE05F07751D9267851DA22DF5076
:1013B8000F012B6F000120EE06F07751D9267851E6
:1013C800DA22DF500F012C6F000120EE07F0775171
:1013D800D9267851DA22DF500F012D6F0F012087AF
:1013E8001200000E2F6E74BE2F8074BC2F820F0166
:1013F80050AF43D125C0D9FF26C0DAFFDE6ADE6AC6
:10140800DE6ADD6A20EE04F02550D9262650DA225D
:1014180056CFDFFF20EE05F02550D9262650DA22D8
:1014280057CFDFFF20EE06F02550D9262650DA22C6
:1014380058CFDFFF20EE07F02550D9262650DA22B4
:1014480059CFDFFF20EE08F02550D9262650DA22A2
:101458005ACFDFFF20EE09F02550D9262650DA2290
:101468005BCFDFFF20EE0AF02550D9262650DA227E
:101478005CCFDFFF20EE0BF02550D9262650DA226C
:101488005DCFDFFF20EE0EF02550D9262650DA2258
:101498000F0155AD02D0010E01D0000EDF6E20EE17
:1014A8000DF02550D9262650DA220F0155510F0B81
:1014B800DF6E20EE0CF02550D9262650DA220F01D7
:1014C80052A702D0010E01D0000EDF6E0F0152B7F5
:1014D80044D051CF27F0286A296A2A6A030ED89087
:1014E8002736283629362A36E82EF9D725C0D9FFD7
:1014F80026C0DAFF27C0DEFF28C0DEFF29C0DEFFD6
:101508002AC0DEFF0F015239E842070B070B306E85
:1015180025C0D9FF26C0DAFFDECF27F0DECF28F0BE
:10152800DECF29F0DECF2AF0305027242B6E000EB4
:1015380028202C6E000E29202D6E000E2A202E6EDB
:1015480025C0D9FF26C0DAFF2BC0DEFF2CC0DEFF86
:101558002DC0DEFF2EC0DEFF8DD054CF27F0286AC5
:10156800296A2A6A25C0D9FF26C0DAFF27C0DEFF0C
:1015780028C0DEFF29C0DEFF2AC0DEFF53CF27F0D8
:10158800286A296A2A6A29C02AF028C029F027C0AF
:1015980028F0276A25C0D9FF26C0DAFF2750DE26A3
:1015A8002850DE222950DE222A50DE220F0152A1C5
:1015B8000CD025C0D9FF26C0DAFF000EDE12000EBF
:1015C800DE12010EDE12000EDE120F0152A30CD045
:1015D80025C0D9FF26C0DAFF000EDE12000EDE128B
:1015E800020EDE12000EDE120F0152AB0CD025C027
:1015F800D9FF26C0DAFF000EDE12000EDE12040E3E
:10160800DE12000EDE120F0152AD0CD025C0D9FF3C
:1016180026C0DAFF000EDE12000EDE12080EDE1201
:10162800000EDE120F0152AF0CD025C0D9FF26C024
:10163800DAFF000EDE12000EDE12100EDE12000EB1
:10164800DE1251CF27F0286A296A2A6A150ED89027
:101658002736283629362A36E82EF9D725C0D9FF65
:1016680026C0DAFF2750DE122850DE122950DE127B
:101678002A50DE120F01509F120060AE120025C0E2
:10168800D9FF26C0DAFFDE6ADE6ADE6ADD6A20EE8E
:1016980004F02550D9262650DA2266CFDFFF20EE47
:1016A80005F02550D9262650DA2267CFDFFF20EE35
:1016B80006F02550D9262650DA2268CFDFFF20EE23
:1016C80007F02550D9262650DA2269CFDFFF20EE11
:1016D80008F02550D9262650DA226ACFDFFF20EEFF
:1016E80009F02550D9262650DA226BCFDFFF20EEED
:1016F8000AF02550D9262650DA226CCFDFFF20EEDB
:101708000BF02550D9262650DA226DCFDFFF20EEC8
:101718000EF02550D9262650DA2265AC02D0010EEB
:1017280001D0000EDF6E20EE0DF02550D926265090
:10173800DA2265500F0BDF6E20EE0CF02550D9260B
:101748002650DA2262A602D0010E01D0000EDF6E0A
:1017580062B643D061CF27F0286A296A2A6A030E45
:10176800D8902736283629362A36E82EF9D725C0C4
:10177800D9FF26C0DAFF27C0DEFF28C0DEFF29C058
:10178800DEFF2AC0DEFF6238E842070B070B306E27
:1017980025C0D9FF26C0DAFFDECF27F0DECF28F03C
:1017A800DECF29F0DECF2AF0305027242B6E000E32
:1017B80028202C6E000E29202D6E000E2A202E6E59
:1017C80025C0D9FF26C0DAFF2BC0DEFF2CC0DEFF04
:1017D8002DC0DEFF2EC0DEFF88D064CF27F0286A38
:1017E800296A2A6A25C0D9FF26C0DAFF27C0DEFF8A
:1017F80028C0DEFF29C0DEFF2AC0DEFF63CF27F046
:10180800286A296A2A6A29C02AF028C029F027C02C
:1018180028F0276A25C0D9FF26C0DAFF2750DE2620
:101828002850DE222950DE222A50DE2262A00CD067
:1018380025C0D9FF26C0DAFF000EDE12000EDE1228
:10184800010EDE12000EDE1262A20CD025C0D9FFF6
:1018580026C0DAFF000EDE12000EDE12020EDE12C5
:10186800000EDE1262AA0CD025C0D9FF26C0DAFF0E
:10187800000EDE12000EDE12040EDE12000EDE1264
:1018880062AC0CD025C0D9FF26C0DAFF000EDE12EC
:10189800000EDE12080EDE12000EDE1262AE0CD052
:1018A80025C0D9FF26C0DAFF000EDE12000EDE12B8
:1018B800100EDE12000EDE1261CF27F0286A296AA8
:1018C8002A6A150ED8902736283629362A36E82E61
:1018D800F9D725C0D9FF26C0DAFF2750DE122850D5
:1018E800DE122950DE122A50DE12609E120000011C
:1018F8007C6F00017C05D8A456D000017729D8A4B4
:1019080052D073C078F074C079F075C07AF076C0A0
:101918007BF0040E06D00001D8907B337A337933FC
:101928007833E82EF8D778C07DF079C07EF07AC099
:101938007FF07BC080F000017D5100017D6F7E6BE0
:101948007F6B806B7DC018FF070E000173150001C7
:101958007D6F000E0001741500017E6F000E0001FE
:10196800751500017F6F000E000176150001806F6C
:101978007DC078F07EC079F07FC07AF080C07BF0BF
:10198800050ED8900001783779377A377B37E82EFB
:10199800F8D778C07DF079C07EF07AC07FF07BC040
:1019A80080F07DC019FF020E00017C19D8A456D022
:1019B80000017729D8A452D073C078F074C079F0A8
:1019C80075C07AF076C07BF0040E06D00001D8907E
:1019D8007B337A3379337833E82EF8D778C07DF0C3
:1019E80079C07EF07AC07FF07BC080F000017D5125
:1019F80000017D6F7E6B7F6B806B7DC01CFF070EC7
:101A08000001731500017D6F000E000174150001BF
:101A18007E6F000E0001751500017F6F000E00013A
:101A280076150001806F7DC078F07EC079F07FC0A8
:101A38007AF080C07BF0050ED890000178377937AE
:101A48007A377B37E82EF8D778C07DF079C07EF0FA
:101A58007AC07FF07BC080F07DC01DFF00017C054F
:101A6800D8A487D0F70E00017719D8A482D0000136
:101A7800735100017D6F7E6B7F6B806B7DC01BFF98
:101A8800000E0001731500017D6FFF0E0001741533
:101A980000017E6F000E0001751500017F6F000EBA
:101AA800000176150001806F7DC078F07EC079F066
:101AB8007FC07AF080C07BF079C078F07AC079F086
:101AC8007BC07AF000017B6B78C07DF079C07EF036
:101AD8007AC07FF07BC080F07DC01AFF000175A13D
:101AE80003D00F01198102D00F011991000175A3CC
:101AF80003D00F01198302D00F011993000175A5B6
:101B080003D00F01198B02D00F01199B000175A793
:101B180003D00F01198D02D00F01199D000175A97D
:101B280003D00F01198F02D00F01199F73C078F0ED
:101B380074C079F075C07AF076C07BF0160E06D0C6
:101B48000001D8907B337A3379337833E82EF8D78D
:101B580078C07DF079C07EF07AC07FF07BC080F0DD
:101B680000017D5100017D6F7E6B7F6B806B7DC0B6
:101B780018FF020E00017C19D8A41200F70E00010C
:101B88007719D8A412000001735100017D6F7E6B94
:101B98007F6B806B7DC01FFF000E00017315000175
:101BA8007D6FFF0E0001741500017E6F000E0001AD
:101BB800751500017F6F000E000176150001806F1A
:101BC8007DC078F07EC079F07FC07AF080C07BF06D
:101BD80079C078F07AC079F07BC07AF000017B6B2D
:101BE80078C07DF079C07EF07AC07FF07BC080F04D
:101BF8007DC01EFF000175A103D00F011D8102D019
:101C08000F011D91000175A303D00F011D8302D0A0
:101C18000F011D93000175A503D00F011D8B02D084
:101C28000F011D9B000175A703D00F011D8D02D068
:101C38000F011D9D000175A903D00F011D8F02D052
:101C48000F011D9F73C078F074C079F075C07AF0E9
:101C580076C07BF0160E06D00001D8907B337A331D
:101C680079337833E82EF8D778C07DF079C07EF0E4
:101C78007AC07FF07BC080F000017D5100017D6F4C
:101C88007E6B7F6B806B7DC01CFF120000018A6F2A
:101C9800800E71EC12F0000E706E000E716E000E68
:101CA800726E00018341E842C00B0001836F00019E
:101CB8008351701200018451701200018A5171120F
:101CC80000018139E842F80B0001816F0001815160
:101CD8007112000185A5718C000185B1718E00011A
:101CE80082517212000185B3728C00018551600B1C
:101CF800606E00018551100BFF0AD8B4608460CF74
:101D080050FF000E0001736F000E746F000E756FA8
:101D1800000E766FF70E0001776F010E7BEC0CF06A
:101D2800000E0001736F000E746F000E756F000EC9
:101D3800766FF70E0001776F020E7BEC0CF00FD078
:101D4800F70E00018B6F07D000018B6900018C69C9
:101D580028D000018B69F70E00018C6F22D09F0EEE
:101D68000001866FFF0E0001876F00018551600B2F
:101D78000001886F896B00018651000188130001FA
:101D880087510001891300018951000AD8A4E1D7BD
:101D980000018851BF0AD8B4D7D7600AD8B4D0D7C1
:101DA800D8D7000E0001736F000E746F000E756FA8
:101DB800000E766F8BC077F0000EACEC00F0000ED2
:101DC8000001736F000E746F000E756F000E766F52
:101DD8008BC077F0010EACEC00F0000E0001736FC1
:101DE800000E746F000E756F000E766F8CC077F062
:101DF800020EACEC00F0000E0001736F000E746F61
:101E0800000E756F000E766F8CC077F0030EACEC89
:101E180000F0000E0001736F000E746F000E756FF6
:101E2800000E766F8CC077F0040EACEC00F0000E5C
:101E38000001736F000E746F000E756F000E766FE1
:101E48008CC077F0050EACEC00F0000E71EC12F0CF
:101E58001200C2EC10F0400E0001AD6F060EAE6F1E
:101E6800000EAF6F000EB06FADC08DF0AEC08EF03B
:101E780000018D1F8E1F8D4B8E2B8DC00BF08EC0D9
:101E88000CF0ADC08DF0AEC08EF0AFC08FF0B0C01A
:101E980090F00001D89090338F338E338D3300014A
:101EA8008D1F8E1F8D4B8E2B200E00018D25096EE8
:101EB8004E0E00018E210A6E09C08DF00AC08EF008
:101EC800D89000018D378E3700018D1F8E1F8D4BE6
:101ED8008E2B8DC009F08EC00AF00BC073F00CC0B9
:101EE80074F090EC12F0D58E450E0A6E880E096ECD
:101EF8000AEC12F047500001A16FA26BA36BA46B10
:101F080082B0F6D7A1C073F0A2C074F0A3C075F078
:101F1800A4C076F0BC0E0001776F020E786F000E39
:101F2800796F000E7A6F82EC11F073C07FF074C085
:101F380080F075C081F076C082F05A0E0001836F80
:101F4800000E846F000E856F000E866F0BEC10F08C
:101F5800D89000017F3500018D6F000180350001A8
:101F68008E6F0001813500018F6F000182350001FD
:101F7800906F400E00018D250001AD6F060E000127
:101F88008E210001AE6F000E00018F210001AF6F9E
:101F9800000E000190210001B06FADC08DF0AEC001
:101FA8008EF000018D1F8E1F8D4B8E2B8DC00BF078
:101FB8008EC00CF0ADC08DF0AEC08EF0AFC08FF00B
:101FC800B0C090F00001D89090338F338E338D33AA
:101FD80000018D1F8E1F8D4B8E2B200E00018D252D
:101FE800096E4E0E00018E210A6E09C08DF00AC0DE
:101FF8008EF0D89000018D378E3700018D1F8E1F0F
:102008008D4B8E2B8DC009F08EC00AF071D7000E53
:102018000001876F000E886F000E896F000E8A6FAF
:10202800000183510001841100018511000186110E
:10203800D8B442D0010E00018B6F08D00001D890AF
:10204800833784378537863700018B2B000186AFAD
:10205800F5D70001D8908737883789378A37000144
:10206800835100017F5D0001845100018059000106
:102078008551000181590001865100018259D8A07B
:1020880012D00001835100017F5F000184510001DB
:10209800805B000185510001815B000186510001D0
:1020A800825B000187810001D890863385338433B1
:1020B800833300018B2FCDD787C07FF088C080F095
:1020C80089C081F08AC082F012000600E9CF67F06B
:1020D800EACF68F0E1CF69F0E2CF6AF0D9CF6BF0D0
:1020E800DACF6CF0F3CF6DF0F4CF6EF0F6CF6FF07F
:1020F800F7CF70F0F8CF71F0F5CF72F082A002D070
:10210800010E01D0000EFF0A0001646F8250000129
:102118006419FE0B6419826ED59E82A007D00BC08D
:1021280060F00CC061F099EC12F0D58E82B007D047
:1021380009C060F00AC061F099EC12F0D58EF294F3
:1021480072C0F5FF71C0F8FF70C0F7FF6FC0F6FFEF
:102158006EC0F4FF6DC0F3FF6CC0DAFF6BC0D9FF2F
:102168006AC0E2FF69C0E1FF68C0EAFF67C0E9FF33
:1021780066C0FBFF65C0FAFF4B921100000E896E26
:10218800FC0E926E000E8A6EFB0E936E000E8B6E26
:10219800000E946E000E8C6E000E956E000E8D6E05
:1021A8009668060E0001816F050E0001826F010E10
:1021B8000001836F030E0001846F9D0E0001856F7F
:1021C800040E4AEC0EF0D08EA492A490F294A19240
:1021D800A592A590F184A292A382A380F28AA082FC
:1021E800F28EF28C800ED56E630EB36EC00EB26E98
:1021F800010EB16E0C0E0001736FFD0E0001746FBD
:10220800DD0E08EC11F012000001776F000EC26EAF
:10221800000EC06E0001D89073313C0BC26E73C0C3
:1022280075F00001753BF00E7517300E000175173B
:10223800000174510F0B00017511C16E77C075F064
:102248000001D89075370001D8907537380E000115
:10225800751777C076F00001763B0F0E7617070EDC
:102268000001761700017751800B000176110001FB
:102278007511C06E000173AF03D09E9C9D8CF28CCB
:10228800C2801200000E0001786F000E776F000107
:10229800755100017611D8B42CD0010E0001796F68
:1022A80006D00001D890753776370001792B0001E8
:1022B80076AFF7D70001D890773778370001755196
:1022C8000001735D0001765100017459D8A00AD04D
:1022D800000175510001735F000176510001745BC4
:1022E800000177810001D890763375330001792F8A
:1022F800E1D777C073F078C074F01200000E0001C7
:102308007B6F000E7C6F000E7D6F000E7E6F0001EC
:1023180073A110D00001775100017B27000178518B
:1023280000017C230001795100017D2300017A51CD
:1023380000017E230001D8907737783779377A37CC
:102348000001D890763375337433733300017351B9
:10235800000174110001751100017611D8A4D7D7B6
:102368007BC073F07CC074F07DC075F07EC076F0E1
:102378001200000E306E000E2F6E2D502E10D8B4A5
:102388001CD0010E316E04D0D8902D362E36312A4D
:102398002EAEFAD7D8902F3630362D502B5C2E50D3
:1023A8002C58D8A005D02D502B5E2E502C5A2F809B
:1023B800D8902E322D32312EEDD72FC02BF030C0D1
:1023C8002CF0120000EE91F02A0EEE6AE806FDE10C
:1023D8004A6A00EE01F0240EEE6AE806FDE1680E96
:1023E800F66E250EF76E000EF86E00EE43F010EE56
:1023F80007F00900F5CFEEFFE550E150FAE14B9008
:102408004B92000EF86E00012DEF0FF0B8EC12F0B1
:10241800A2EC12F00009D8A4FBD787EC12F073C025
:10242800B1F074C0B2F0010E0001B1250001736F64
:10243800FE0E0001B2210001746F000E0001766FDC
:102448002D0E756F46EC11F073C00DF074C00EF0D0
:1024580012005FEC12F00009D8B412004AA016D09E
:10246800A5C073F0A6C074F0A7C075F0A8C076F038
:10247800B30E0001776F000E0001786F080E00019F
:10248800796FBC0E00017A6F2FEC06F04A901200AB
:1024980025502702F3CF29F0F4CF2AF0255028023F
:1024A800F3502A2626502702F3502A2629C025F061
:1024B8002AC026F01200010E0001736F0F0140A719
:1024C80009D00F0130A706D00F0120A703D0000EB6
:1024D8000001736F0001735112000001736F73C024
:1024E8006FFF6E50E00B00017319D8B41200F9D7D2
:1024F800010E256E60BE05D00F0150BF02D0000E40
:10250800256E25501200C4500001756FC35000019C
:10251800736F75C074F0120073C075F074C076F0F4
:1025280076C0D7FF75C0D6FF120060C062F061C0E8
:1025380063F063C0D7FF62C0D6FF1200C2A202D008
:10254800010E1200000E120074A402D0010E120037
:10255800000E120074A202D0010E1200000E12002A
:0C25680078000200B4100100C2821200D2
:020000040020DA
:08000000FFFFFFFFFFFFFFFF00
:020000040030CA
:0E000000FF021F1EFF8281FF0FC00FE00F40A6
:00000001FF
