:04000000B8EF00F065
:0E0008004C82FACF65F0FBCF66F05AED10F097
:100018004C80D8CF34F0E8CF35F0E0CF36F0FACFC7
:1000280037F0FBCF38F0E9CF39F0EACF3AF0E1CF3B
:100038003BF0E2CF3CF0D9CF3DF0DACF3EF0F3CF42
:100048003FF0F4CF40F0F6CF41F0F7CF42F0F8CFD1
:1000580043F0F5CF44F0A4B002D0A4A261D08282CC
:10006800000E2E6E640E2D6E68EC12F08292000E59
:100078002E6E640E2D6E68EC12F0CFEC12F00009B3
:10008800D8B44CD0180E276E000E286E03EC0AF078
:10009800050E181819101A101B10D8A428D018C04B
:1000A800A5F019C0A6F01AC0A7F01BC0A8F026A09A
:1000B80002D04B8201D04B921CC017F0175011246C
:1000C800496E49C027F0286A45C029F046C02AF081
:1000D8009FEC12F027C02DF028C02EF0000E306ED5
:1000E800B40E2F6EE0EC11F02D50496E4B80020ECD
:1000F800181819101A101B10D8A410D018C0A5F081
:1001080019C0A6F01AC0A7F01BC0A8F026A002D0FC
:100118004B8201D04B92020E0001B16FA490A492C1
:1001280044C0F5FF43C0F8FF42C0F7FF41C0F6FFE7
:1001380040C0F4FF3FC0F3FF3EC0DAFF3DC0D9FF27
:100148003CC0E2FF3BC0E1FF3AC0EAFF39C0E9FF2B
:1001580038C0FBFF37C0FAFF36C0E0FF35C0E8FF04
:1001680034C0D8FF4C901000ACEF11F000017C6F48
:1001780000017C510001D8A458D000017729D8A4E7
:1001880054D00F01019773C078F074C079F075C02E
:100198007AF076C07BF0040E06D00001D8907B334D
:1001A8007A3379337833E82EF8D778C07DF079C080
:1001B8007EF07AC07FF07BC080F000017D510001A5
:1001C8007D6F7E6B7F6B806B7DC000FF070E00012B
:1001D800731500017D6F000E0001741500017E6F1C
:1001E800000E0001751500017F6F000E00017615E5
:1001F8000001806F7DC078F07EC079F07FC07AF012
:1002080080C07BF0050ED8900001783779377A37AF
:100218007B37E82EF8D778C07DF079C07EF07AC0B9
:100228007FF07BC080F07DC001FF00017C05D8A471
:1002380058D000017729D8A454D00F01059773C06E
:1002480078F074C079F075C07AF076C07BF0040E4F
:1002580006D00001D8907B337A3379337833E82E8F
:10026800F8D778C07DF079C07EF07AC07FF07BC087
:1002780080F000017D5100017D6F7E6B7F6B806B8C
:100288007DC004FF070E0001731500017D6F000E8D
:100298000001741500017E6F000E00017515000144
:1002A8007F6F000E000176150001806F7DC078F029
:1002B8007EC079F07FC07AF080C07BF0050ED890C0
:1002C8000001783779377A377B37E82EF8D778C046
:1002D8007DF079C07EF07AC07FF07BC080F07DC071
:1002E80005FF020E00017C19D8A458D00001772917
:1002F800D8A454D00F01099773C078F074C079F06E
:1003080075C07AF076C07BF0040E06D00001D89054
:100318007B337A3379337833E82EF8D778C07DF099
:1003280079C07EF07AC07FF07BC080F000017D51FB
:1003380000017D6F7E6B7F6B806B7DC008FF070EB1
:100348000001731500017D6F000E00017415000196
:100358007E6F000E0001751500017F6F000E000111
:1003680076150001806F7DC078F07EC079F07FC07F
:100378007AF080C07BF0050ED89000017837793785
:100388007A377B37E82EF8D778C07DF079C07EF0D1
:100398007AC07FF07BC080F07DC009FF030E0001AA
:1003A8007C19D8A458D000017729D8A454D00F01BB
:1003B8000D9773C078F074C079F075C07AF076C084
:1003C8007BF0040E06D00001D8907B337A33793362
:1003D8007833E82EF8D778C07DF079C07EF07AC0FF
:1003E8007FF07BC080F000017D5100017D6F7E6B46
:1003F8007F6B806B7DC00CFF070E00017315000139
:100408007D6F000E0001741500017E6F000E000163
:10041800751500017F6F000E000176150001806FD1
:100428007DC078F07EC079F07FC07AF080C07BF024
:10043800050ED8900001783779377A377B37E82E60
:10044800F8D778C07DF079C07EF07AC07FF07BC0A5
:1004580080F07DC00DFF040E00017C19D8A458D08F
:1004680000017729D8A454D00F01119773C078F0F0
:1004780074C079F075C07AF076C07BF0040E06D0AF
:100488000001D8907B337A3379337833E82EF8D764
:1004980078C07DF079C07EF07AC07FF07BC080F0B4
:1004A80000017D5100017D6F7E6B7F6B806B7DC08D
:1004B80010FF070E0001731500017D6F000E00018B
:1004C800741500017E6F000E0001751500017F6F25
:1004D800000E000176150001806F7DC078F07EC0A7
:1004E80079F07FC07AF080C07BF0050ED8900001CB
:1004F800783779377A377B37E82EF8D778C07DF0A8
:1005080079C07EF07AC07FF07BC080F07DC011FF9B
:10051800050E00017C19D8A458D000017729D8A469
:1005280054D00F01159773C078F074C079F075C076
:100538007AF076C07BF0040E06D00001D8907B33A9
:100548007A3379337833E82EF8D778C07DF079C0DC
:100558007EF07AC07FF07BC080F000017D51000101
:100568007D6F7E6B7F6B806B7DC014FF070E000173
:10057800731500017D6F000E0001741500017E6F78
:10058800000E0001751500017F6F000E0001761541
:100598000001806F7DC078F07EC079F07FC07AF06E
:1005A80080C07BF0050ED8900001783779377A370C
:1005B8007B37E82EF8D778C07DF079C07EF07AC016
:1005C8007FF07BC080F07DC015FF00017C510001E9
:1005D800D8A489D0F70E00017719D8A484D00F01C8
:1005E80001870001735100017D6F7E6B7F6B806B0B
:1005F8007DC003FF000E0001731500017D6FFF0E23
:100608000001741500017E6F000E000175150001D0
:100618007F6F000E000176150001806F7DC078F0B5
:100628007EC079F07FC07AF080C07BF079C078F026
:100638007AC079F07BC07AF000017B6B78C07DF0DE
:1006480079C07EF07AC07FF07BC080F07DC002FF69
:10065800000175A103D00F01018102D00F010191A2
:10066800000175A303D00F01018302D00F0101938C
:10067800000175A503D00F01018B02D00F01019B6A
:10068800000175A703D00F01018D02D00F01019D54
:10069800000175A903D00F01018F02D00F01019F3E
:1006A80073C078F074C079F075C07AF076C07BF0CA
:1006B800160E06D00001D8907B337A33793378331D
:1006C800E82EF8D778C07DF079C07EF07AC07FF048
:1006D8007BC080F000017D5100017D6F7E6B7F6BD8
:1006E800806B7DC000FF00017C05D8A489D0F70E7F
:1006F80000017719D8A484D00F0105870001735130
:1007080000017D6F7E6B7F6B806B7DC007FF000EE5
:100718000001731500017D6FFF0E000174150001C3
:100728007E6F000E0001751500017F6F000E00013D
:1007380076150001806F7DC078F07EC079F07FC0AB
:100748007AF080C07BF079C078F07AC079F07BC00D
:100758007AF000017B6B78C07DF079C07EF07AC0BA
:100768007FF07BC080F07DC006FF000175A103D03B
:100778000F01058102D00F010591000175A303D077
:100788000F01058302D00F010593000175A503D061
:100798000F01058B02D00F01059B000175A703D03F
:1007A8000F01058D02D00F01059D000175A903D029
:1007B8000F01058F02D00F01059F73C078F074C038
:1007C80079F075C07AF076C07BF0160E06D000017D
:1007D800D8907B337A3379337833E82EF8D778C0DA
:1007E8007DF079C07EF07AC07FF07BC080F0000198
:1007F8007D5100017D6F7E6B7F6B806B7DC004FF38
:10080800020E00017C19D8A489D0F70E00017719CF
:10081800D8A484D00F0109870001735100017D6FAE
:100828007E6B7F6B806B7DC00BFF000E0001731524
:1008380000017D6FFF0E0001741500017E6F000E30
:100848000001751500017F6F000E0001761500018B
:10085800806F7DC078F07EC079F07FC07AF080C06C
:100868007BF079C078F07AC079F07BC07AF000012B
:100878007B6B78C07DF079C07EF07AC07FF07BC05A
:1008880080F07DC00AFF000175A103D00F01098126
:1008980002D00F010991000175A303D00F0109834C
:1008A80002D00F010993000175A503D00F01098B30
:1008B80002D00F01099B000175A703D00F01098D14
:1008C80002D00F01099D000175A903D00F01098FFE
:1008D80002D00F01099F73C078F074C079F075C019
:1008E8007AF076C07BF0160E06D00001D8907B33E4
:1008F8007A3379337833E82EF8D778C07DF079C029
:100908007EF07AC07FF07BC080F000017D5100014D
:100918007D6F7E6B7F6B806B7DC008FF030E0001CF
:100928007C19D8A489D0F70E00017719D8A484D0EF
:100938000F010D870001735100017D6F7E6B7F6B86
:10094800806B7DC00FFF000E0001731500017D6FE5
:10095800FF0E0001741500017E6F000E0001751571
:1009680000017F6F000E000176150001806F7DC0C9
:1009780078F07EC079F07FC07AF080C07BF079C0D3
:1009880078F07AC079F07BC07AF000017B6B78C090
:100998007DF079C07EF07AC07FF07BC080F07DC0AA
:1009A8000EFF000175A103D00F010D8102D00F01C8
:1009B8000D91000175A303D00F010D8302D00F0123
:1009C8000D93000175A503D00F010D8B02D00F0107
:1009D8000D9B000175A703D00F010D8D02D00F01EB
:1009E8000D9D000175A903D00F010D8F02D00F01D5
:1009F8000D9F73C078F074C079F075C07AF076C036
:100A08007BF0160E06D00001D8907B337A33793309
:100A18007833E82EF8D778C07DF079C07EF07AC0B8
:100A28007FF07BC080F000017D5100017D6F7E6BFF
:100A38007F6B806B7DC00CFF040E00017C19D8A46D
:100A480089D0F70E00017719D8A484D00F01118737
:100A58000001735100017D6F7E6B7F6B806B7DC0E1
:100A680013FF000E0001731500017D6FFF0E0001DA
:100A7800741500017E6F000E0001751500017F6F6F
:100A8800000E000176150001806F7DC078F07EC0F1
:100A980079F07FC07AF080C07BF079C078F07AC0B6
:100AA80079F07BC07AF000017B6B78C07DF079C06B
:100AB8007EF07AC07FF07BC080F07DC012FF00011D
:100AC80075A103D00F01118102D00F01119100010E
:100AD80075A303D00F01118302D00F0111930001F8
:100AE80075A503D00F01118B02D00F01119B0001D6
:100AF80075A703D00F01118D02D00F01119D0001C0
:100B080075A903D00F01118F02D00F01119F73C077
:100B180078F074C079F075C07AF076C07BF0160E64
:100B280006D00001D8907B337A3379337833E82EB6
:100B3800F8D778C07DF079C07EF07AC07FF07BC0AE
:100B480080F000017D5100017D6F7E6B7F6B806BB3
:100B58007DC010FF050E00017C19D8A41200F70E05
:100B680000017719D8A412000F01158700017351ED
:100B780000017D6F7E6B7F6B806B7DC017FF000E61
:100B88000001731500017D6FFF0E0001741500014F
:100B98007E6F000E0001751500017F6F000E0001C9
:100BA80076150001806F7DC078F07EC079F07FC037
:100BB8007AF080C07BF079C078F07AC079F07BC099
:100BC8007AF000017B6B78C07DF079C07EF07AC046
:100BD8007FF07BC080F07DC016FF000175A103D0B7
:100BE8000F01158102D00F011591000175A303D0E3
:100BF8000F01158302D00F011593000175A503D0CD
:100C08000F01158B02D00F01159B000175A703D0AA
:100C18000F01158D02D00F01159D000175A903D094
:100C28000F01158F02D00F01159F73C078F074C0A3
:100C380079F075C07AF076C07BF0160E06D0000108
:100C4800D8907B337A3379337833E82EF8D778C065
:100C58007DF079C07EF07AC07FF07BC080F0000123
:100C68007D5100017D6F7E6B7F6B806B7DC014FFB3
:100C780012000F0140B73FD179C045FF00017AAD9E
:100C880003D00F01458D02D00F01459D00017AA7C1
:100C980079D00001735100017F6F806B816B826B8B
:100CA8007FC044FF000E0001731500017F6FFF0E27
:100CB800000174150001806F000E00017515000118
:100CC800816F000E000176150001826F7FC07BF0F6
:100CD80080C07CF081C07DF082C07EF07CC07BF05B
:100CE8007DC07CF07EC07DF000017E6B7BC07FF014
:100CF8007CC080F07DC081F07EC082F07FC043FF61
:100D0800000E0F01426F0F014287000175A102D04A
:100D18000F014281000175A302D00F014283000137
:100D280075A502D00F01428B000175A702D00F01F3
:100D3800428D000175A902D00F01428F73C07BF06C
:100D480074C07CF075C07DF076C07EF0160E06D0BB
:100D58000001D8907E337D337C337B33E82EF8D77F
:100D68007BC07FF07CC080F07DC081F07EC082F0C7
:100D780000017F5100017F6F806B816B826B7FC0A8
:100D880041FF59D00F01429773C07BF074C07CF0CB
:100D980075C07DF076C07EF0040E06D00001D890B4
:100DA8007E337D337C337B33E82EF8D77BC07FF0EE
:100DB8007CC080F07DC081F07EC082F000017F5150
:100DC80000017F6F806B816B826B7FC041FF070ED4
:100DD8000001731500017F6F000E000174150001FA
:100DE800806F000E000175150001816F000E000173
:100DF80076150001826F7FC07BF080C07CF081C0D7
:100E08007DF082C07EF0050ED89000017B377C37DC
:100E18007D377E37E82EF8D77BC07FF07CC080F026
:100E28007DC081F07EC082F00F0142511F0B0F017F
:100E3800426F7FC042FF00017AA103D00F014081B9
:100E480002D00F01409100017AA303D00F01408323
:100E580002D00F01409377C0D9FF78C0DAFFDF5086
:100E68000F01466F000120EE01F07751D926785125
:100E7800DA22DF500F01476F000120EE02F07751B0
:100E8800D9267851DA22DF500F01486F000120EE91
:100E980003F07751D9267851DA22DF500F01496FD4
:100EA800000120EE04F07751D9267851DA22DF507C
:100EB8000F014A6F000120EE05F07751D9267851CD
:100EC800DA22DF500F014B6F000120EE06F0775158
:100ED800D9267851DA22DF500F014C6F000120EE3D
:100EE80007F07751D9267851DA22DF500F014D6F7C
:100EF8000F01408712000F0130B73FD179C035FF8D
:100F080000017AAD03D00F01358D02D00F01359D58
:100F180000017AA779D00001735100017F6F806BBF
:100F2800816B826B7FC034FF000E000173150001D6
:100F38007F6FFF0E000174150001806F000E000125
:100F480075150001816F000E000176150001826F92
:100F58007FC07BF080C07CF081C07DF082C07EF0D5
:100F68007CC07BF07DC07CF07EC07DF000017E6B94
:100F78007BC07FF07CC080F07DC081F07EC082F0B5
:100F88007FC033FF000E0F01326F0F01328700015F
:100F980075A102D00F013281000175A302D00F01A3
:100FA8003283000175A502D00F01328B000175A7AD
:100FB80002D00F01328D000175A902D00F01328FC6
:100FC80073C07BF074C07CF075C07DF076C07EF095
:100FD800160E06D00001D8907E337D337C337B33E8
:100FE800E82EF8D77BC07FF07CC080F07DC081F010
:100FF8007EC082F000017F5100017F6F806B816BA2
:10100800826B7FC031FF59D00F01329773C07BF0DC
:1010180074C07CF075C07DF076C07EF0040E06D0FA
:101028000001D8907E337D337C337B33E82EF8D7AC
:101038007BC07FF07CC080F07DC081F07EC082F0F4
:1010480000017F5100017F6F806B816B826B7FC0D5
:1010580031FF070E0001731500017F6F000E0001BC
:1010680074150001806F000E000175150001816F75
:10107800000E000176150001826F7FC07BF080C0F2
:101088007CF081C07DF082C07EF0050ED890000112
:101098007B377C377D377E37E82EF8D77BC07FF0EB
:1010A8007CC080F07DC081F07EC082F00F0132519B
:1010B8001F0B0F01326F7FC032FF00017AA103D0EE
:1010C8000F01308102D00F01309100017AA303D0C3
:1010D8000F01308302D00F01309377C0D9FF78C059
:1010E800DAFFDF500F01366F000120EE01F0775173
:1010F800D9267851DA22DF500F01376F000120EE30
:1011080002F07751D9267851DA22DF500F01386F73
:10111800000120EE03F07751D9267851DA22DF500A
:101128000F01396F000120EE04F07751D92678516C
:10113800DA22DF500F013A6F000120EE05F07751F7
:10114800D9267851DA22DF500F013B6F000120EEDB
:1011580006F07751D9267851DA22DF500F013C6F1B
:10116800000120EE07F07751D9267851DA22DF50B6
:101178000F013D6F0F01308712000F0120B71200D9
:1011880079C025FF00017AAD03D00F01258D02D06B
:101198000F01259D00017AA779D000017351000144
:1011A8007F6F806B816B826B7FC024FF000E000114
:1011B800731500017F6FFF0E000174150001806F29
:1011C800000E000175150001816F000E00017615F3
:1011D8000001826F7FC07BF080C07CF081C07DF011
:1011E80082C07EF07CC07BF07DC07CF07EC07DF04C
:1011F80000017E6B7BC07FF07CC080F07DC081F0F9
:101208007EC082F07FC023FF000E0F01226F0F0106
:101218002287000175A102D00F012281000175A368
:1012280002D00F012283000175A502D00F01228B85
:10123800000175A702D00F01228D000175A902D007
:101248000F01228F73C07BF074C07CF075C07DF0F5
:1012580076C07EF0160E06D00001D8907E337D331E
:101268007C337B33E82EF8D77BC07FF07CC080F0DE
:101278007DC081F07EC082F000017F5100017F6F48
:10128800806B816B826B7FC021FF59D00F01229741
:1012980073C07BF074C07CF075C07DF076C07EF0C2
:1012A800040E06D00001D8907E337D337C337B3327
:1012B800E82EF8D77BC07FF07CC080F07DC081F03D
:1012C8007EC082F000017F5100017F6F806B816BCF
:1012D800826B7FC021FF070E0001731500017F6F2D
:1012E800000E000174150001806F000E00017515D5
:1012F8000001816F000E000176150001826F7FC02A
:101308007BF080C07CF081C07DF082C07EF0050E4D
:10131800D89000017B377C377D377E37E82EF8D7A9
:101328007BC07FF07CC080F07DC081F07EC082F001
:101338000F0122511F0B0F01226F7FC022FF0001F6
:101348007AA103D00F01208102D00F012091000162
:101358007AA303D00F01208302D00F01209377C016
:10136800D9FF78C0DAFFDF500F01266F000120EEA9
:1013780001F07751D9267851DA22DF500F01276F13
:10138800000120EE02F07751D9267851DA22DF5099
:101398000F01286F000120EE03F07751D92678510C
:1013A800DA22DF500F01296F000120EE04F0775197
:1013B800D9267851DA22DF500F012A6F000120EE7A
:1013C80005F07751D9267851DA22DF500F012B6FBB
:1013D800000120EE06F07751D9267851DA22DF5045
:1013E8000F012C6F000120EE07F07751D9267851B4
:1013F800DA22DF500F012D6F0F0120871200000E37
:10140800316E74BE318074BC31820F0150AF43D14C
:1014180027C0D9FF28C0DAFFDE6ADE6ADE6ADD6A25
:1014280020EE04F02750D9262850DA2256CFDFFFC5
:1014380020EE05F02750D9262850DA2257CFDFFFB3
:1014480020EE06F02750D9262850DA2258CFDFFFA1
:1014580020EE07F02750D9262850DA2259CFDFFF8F
:1014680020EE08F02750D9262850DA225ACFDFFF7D
:1014780020EE09F02750D9262850DA225BCFDFFF6B
:1014880020EE0AF02750D9262850DA225CCFDFFF59
:1014980020EE0BF02750D9262850DA225DCFDFFF47
:1014A80020EE0EF02750D9262850DA220F0155AD2C
:1014B80002D0010E01D0000EDF6E20EE0DF0275095
:1014C800D9262850DA220F0155510F0BDF6E20EE76
:1014D8000CF02750D9262850DA220F0152A702D043
:1014E800010E01D0000EDF6E0F0152B744D051CF6C
:1014F80029F02A6A2B6A2C6A030ED89029362A36D4
:101508002B362C36E82EF9D727C0D9FF28C0DAFFAA
:1015180029C0DEFF2AC0DEFF2BC0DEFF2CC0DEFFA5
:101528000F015239E842070B070B326E27C0D9FF6B
:1015380028C0DAFFDECF29F0DECF2AF0DECF2BF08D
:10154800DECF2CF0325029242D6E000E2A202E6E6C
:10155800000E2B202F6E000E2C20306E27C0D9FFD6
:1015680028C0DAFF2DC0DEFF2EC0DEFF2FC0DEFF51
:1015780030C0DEFF8DD054CF29F02A6A2B6A2C6A3E
:1015880027C0D9FF28C0DAFF29C0DEFF2AC0DEFF46
:101598002BC0DEFF2CC0DEFF53CF29F02A6A2B6A4E
:1015A8002C6A2BC02CF02AC02BF029C02AF0296AFB
:1015B80027C0D9FF28C0DAFF2950DE262A50DE22AC
:1015C8002B50DE222C50DE220F0152A10CD027C056
:1015D800D9FF28C0DAFF000EDE12000EDE12010E5F
:1015E800DE12000EDE120F0152A30CD027C0D9FF65
:1015F80028C0DAFF000EDE12000EDE12020EDE1226
:10160800000EDE120F0152AB0CD027C0D9FF28C044
:10161800DAFF000EDE12000EDE12040EDE12000EDD
:10162800DE120F0152AD0CD027C0D9FF28C0DAFF57
:10163800000EDE12000EDE12080EDE12000EDE12A2
:101648000F0152AF0CD027C0D9FF28C0DAFF000E17
:10165800DE12000EDE12100EDE12000EDE1251CF68
:1016680029F02A6A2B6A2C6A150ED89029362A3650
:101678002B362C36E82EF9D727C0D9FF28C0DAFF39
:101688002950DE122A50DE122B50DE122C50DE12A8
:101698000F01509F120060AE120027C0D9FF28C06A
:1016A800DAFFDE6ADE6ADE6ADD6A20EE04F02750C1
:1016B800D9262850DA2266CFDFFF20EE05F0275022
:1016C800D9262850DA2267CFDFFF20EE06F0275010
:1016D800D9262850DA2268CFDFFF20EE07F02750FE
:1016E800D9262850DA2269CFDFFF20EE08F02750EC
:1016F800D9262850DA226ACFDFFF20EE09F02750DA
:10170800D9262850DA226BCFDFFF20EE0AF02750C7
:10171800D9262850DA226CCFDFFF20EE0BF02750B5
:10172800D9262850DA226DCFDFFF20EE0EF02750A1
:10173800D9262850DA2265AC02D0010E01D0000E5D
:10174800DF6E20EE0DF02750D9262850DA2265509A
:101758000F0BDF6E20EE0CF02750D9262850DA2226
:1017680062A602D0010E01D0000EDF6E62B643D031
:1017780061CF29F02A6A2B6A2C6A030ED890293681
:101788002A362B362C36E82EF9D727C0D9FF28C0A1
:10179800DAFF29C0DEFF2AC0DEFF2BC0DEFF2CC027
:1017A800DEFF6238E842070B070B326E27C0D9FF0D
:1017B80028C0DAFFDECF29F0DECF2AF0DECF2BF00B
:1017C800DECF2CF0325029242D6E000E2A202E6EEA
:1017D800000E2B202F6E000E2C20306E27C0D9FF54
:1017E80028C0DAFF2DC0DEFF2EC0DEFF2FC0DEFFCF
:1017F80030C0DEFF88D064CF29F02A6A2B6A2C6AB1
:1018080027C0D9FF28C0DAFF29C0DEFF2AC0DEFFC3
:101818002BC0DEFF2CC0DEFF63CF29F02A6A2B6ABB
:101828002C6A2BC02CF02AC02BF029C02AF0296A78
:1018380027C0D9FF28C0DAFF2950DE262A50DE2229
:101848002B50DE222C50DE2262A00CD027C0D9FFFC
:1018580028C0DAFF000EDE12000EDE12010EDE12C4
:10186800000EDE1262A20CD027C0D9FF28C0DAFF12
:10187800000EDE12000EDE12020EDE12000EDE1266
:1018880062AA0CD027C0D9FF28C0DAFF000EDE12EA
:10189800000EDE12040EDE12000EDE1262AC0CD058
:1018A80027C0D9FF28C0DAFF000EDE12000EDE12B4
:1018B800080EDE12000EDE1262AE0CD027C0D9FF71
:1018C80028C0DAFF000EDE12000EDE12100EDE1245
:1018D800000EDE1261CF29F02A6A2B6A2C6A150ED7
:1018E800D89029362A362B362C36E82EF9D727C039
:1018F800D9FF28C0DAFF2950DE122A50DE122B50F9
:10190800DE122C50DE12609E120000017C6F000176
:101918007C05D8A456D000017729D8A452D073C02A
:1019280078F074C079F075C07AF076C07BF0040E58
:1019380006D00001D8907B337A3379337833E82E98
:10194800F8D778C07DF079C07EF07AC07FF07BC090
:1019580080F000017D5100017D6F7E6B7F6B806B95
:101968007DC018FF070E0001731500017D6F000E82
:101978000001741500017E6F000E0001751500014D
:101988007F6F000E000176150001806F7DC078F032
:101998007EC079F07FC07AF080C07BF0050ED890C9
:1019A8000001783779377A377B37E82EF8D778C04F
:1019B8007DF079C07EF07AC07FF07BC080F07DC07A
:1019C80019FF020E00017C19D8A456D0000177290E
:1019D800D8A452D073C078F074C079F075C07AF08A
:1019E80076C07BF0040E06D00001D8907B337A33A2
:1019F80079337833E82EF8D778C07DF079C07EF057
:101A08007AC07FF07BC080F000017D5100017D6FBE
:101A18007E6B7F6B806B7DC01CFF070E000173150A
:101A280000017D6F000E0001741500017E6F000E2D
:101A38000001751500017F6F000E00017615000189
:101A4800806F7DC078F07EC079F07FC07AF080C06A
:101A58007BF0050ED8900001783779377A377B37D5
:101A6800E82EF8D778C07DF079C07EF07AC07FF094
:101A78007BC080F07DC01DFF00017C05D8A487D005
:101A8800F70E00017719D8A482D000017351000124
:101A98007D6F7E6B7F6B806B7DC01BFF000E00012E
:101AA800731500017D6FFF0E0001741500017E6F34
:101AB800000E0001751500017F6F000E00017615FC
:101AC8000001806F7DC078F07EC079F07FC07AF029
:101AD80080C07BF079C078F07AC079F07BC07AF06A
:101AE80000017B6B78C07DF079C07EF07AC07FF012
:101AF8007BC080F07DC01AFF000175A103D00F01E3
:101B0800198102D00F011991000175A303D00F01AB
:101B1800198302D00F011993000175A503D00F0195
:101B2800198B02D00F01199B000175A703D00F0173
:101B3800198D02D00F01199D000175A903D00F015D
:101B4800198F02D00F01199F73C078F074C079F013
:101B580075C07AF076C07BF0160E06D00001D890DA
:101B68007B337A3379337833E82EF8D778C07DF031
:101B780079C07EF07AC07FF07BC080F000017D5193
:101B880000017D6F7E6B7F6B806B7DC018FF020E3E
:101B980000017C19D8A41200F70E00017719D8A407
:101BA80012000001735100017D6F7E6B7F6B806BAB
:101BB8007DC01FFF000E0001731500017D6FFF0E31
:101BC8000001741500017E6F000E000175150001FB
:101BD8007F6F000E000176150001806F7DC078F0E0
:101BE8007EC079F07FC07AF080C07BF079C078F051
:101BF8007AC079F07BC07AF000017B6B78C07DF009
:101C080079C07EF07AC07FF07BC080F07DC01EFF77
:101C1800000175A103D00F011D8102D00F011D9194
:101C2800000175A303D00F011D8302D00F011D937E
:101C3800000175A503D00F011D8B02D00F011D9B5C
:101C4800000175A703D00F011D8D02D00F011D9D46
:101C5800000175A903D00F011D8F02D00F011D9F30
:101C680073C078F074C079F075C07AF076C07BF0F4
:101C7800160E06D00001D8907B337A337933783347
:101C8800E82EF8D778C07DF079C07EF07AC07FF072
:101C98007BC080F000017D5100017D6F7E6B7F6B02
:101CA800806B7DC01CFF120000018A6F800EC4EC9F
:101CB80012F0000E706E000E716E000E726E000152
:101CC8008341E842C00B0001836F00018351701209
:101CD80000018451701200018A517112000181398A
:101CE800E842F80B0001816F000181517112000177
:101CF80085A5718C000185B1718E00018251721227
:101D0800000185B3728C00018551600B606E000183
:101D18008551100BFF0AD8B4608460CF50FF000EC5
:101D28000001736F000E746F000E756F000E766FF2
:101D3800F70E0001776F010E89EC0CF0000E000120
:101D4800736F000E746F000E756F000E766FF70ECE
:101D58000001776F020E89EC0CF00FD0F70E00012E
:101D68008B6F07D000018B6900018C6928D00001B6
:101D78008B69F70E00018C6F22D09F0E0001866FD1
:101D8800FF0E0001876F00018551600B0001886F0D
:101D9800896B0001865100018813000187510001F9
:101DA800891300018951000AD8A4E1D7000188519C
:101DB800BF0AD8B4D7D7600AD8B4D0D7D8D7000EBE
:101DC8000001736F000E746F000E756F000E766F52
:101DD8008BC077F0000EBAEC00F0000E0001736FB4
:101DE800000E746F000E756F000E766F8BC077F063
:101DF800010EBAEC00F0000E0001736F000E746F54
:101E0800000E756F000E766F8CC077F0020EBAEC7C
:101E180000F0000E0001736F000E746F000E756FF6
:101E2800000E766F8CC077F0030EBAEC00F0000E4F
:101E38000001736F000E746F000E756F000E766FE1
:101E48008CC077F0040EBAEC00F0000E0001736F3E
:101E5800000E746F000E756F000E766F8CC077F0F1
:101E6800050EBAEC00F0000EC4EC12F01200B5EC4E
:101E780010F080828282010E00017A6FF40E796F71
:101E88004BEC12F080928292000E00017A6F640E81
:101E9800796F4BEC12F0030E0001736F000E746F34
:101EA800000E756F000E766FBA0E0001776F000E88
:101EB8000001786F080E0001796FBF0E00017A6F7C
:101EC8003DEC06F0000E00017A6F640E796F4BEC62
:101ED80012F009EC12F049500001A16FA26BA36B3C
:101EE800A46B82B0D8D7A1C073F0A2C074F0A3C00D
:101EF80075F0A4C076F0BC0E0001776F020E786F03
:101F0800000E796F000E7A6F71EC11F073C07FF0DC
:101F180074C080F075C081F076C082F05A0E00015E
:101F2800836F000E846F000E856F000E866FFCECC9
:101F38000FF0D89000017F3500018D6F00018035CA
:101F480000018E6F0001813500018F6F000182351D
:101F58000001906F400E00018D250001A96F060E4B
:101F680000018E210001AA6F000E00018F210001DF
:101F7800AB6F000E000190210001AC6FA9C08DF07D
:101F8800AAC08EF000018D1F8E1F8D4B8E2B8DC029
:101F98000FF08EC010F0A9C08DF0AAC08EF0ABC0B3
:101FA8008FF0ACC090F00001D89090338F338E330F
:101FB8008D3300018D1F8E1F8D4B8E2B200E00013F
:101FC8008D250D6E4E0E00018E210E6E0DC08DF00A
:101FD8000EC08EF0D89000018D378E3700018D1F0E
:101FE8008E1F8D4B8E2B8DC00DF08EC00EF053D7EB
:101FF800000E0001876F000E886F000E896F000EBB
:102008008A6F0001835100018411000185110001CC
:102018008611D8B442D0010E00018B6F08D00001A0
:10202800D890833784378537863700018B2B00019A
:1020380086AFF5D70001D8908737883789378A3730
:102048000001835100017F5D000184510001805926
:102058000001855100018159000186510001825912
:10206800D8A012D00001835100017F5F0001845184
:102078000001805B000185510001815B00018651F0
:102088000001825B000187810001D8908633853387
:102098008433833300018B2FCDD787C07FF088C06E
:1020A80080F089C081F08AC082F012000600E9CF72
:1020B80067F0EACF68F0E1CF69F0E2CF6AF0D9CFF4
:1020C8006BF0DACF6CF0F3CF6DF0F4CF6EF0F6CFA3
:1020D8006FF0F7CF70F0F8CF71F0F5CF72F04BA03A
:1020E80021D082A002D0010E01D0000EFF0A00010B
:1020F800646F825000016419FE0B6419826ED59ECC
:1021080082A007D00FC060F010C061F0E3EC12F0BD
:10211800D58E82B007D00DC060F00EC061F0E3EC40
:1021280012F0D58EF29472C0F5FF71C0F8FF70C03E
:10213800F7FF6FC0F6FF6EC0F4FF6DC0F3FF6CC011
:10214800DAFF6BC0D9FF6AC0E2FF69C0E1FF68C06F
:10215800EAFF67C0E9FF66C0FBFF65C0FAFF4C9263
:102168001100060E0001816F050E0001826F010E3D
:102178000001836F030E0001846F9D0E0001856FBF
:10218800040E58EC0EF0A492A490F294A192A59299
:10219800A590F184A292D08EA382A380F28AA08215
:1021A800F28EF28C800ED56E000E0001736F0D0E4C
:1021B8000001746F000EF7EC10F0D58E8290000EBF
:1021C800896EFC0E926E000E8A6EFB0E936E000EE8
:1021D8008B6E000E946E000E8C6E000E956E000EC7
:1021E8008D6E966812000001776F000EC26E000EA9
:1021F800C06E0001D89073313C0BC26E73C075F08D
:102208000001753BF00E7517300E000175170001BF
:1022180074510F0B00017511C16E77C075F0000184
:10222800D89075370001D8907537380E00017517AA
:1022380077C076F00001763B0F0E7617070E000187
:10224800761700017751800B000176110001751196
:10225800C06E000173AF03D09E9C9D8CF28CC2802F
:102268001200000E0001786F000E776F00017551A3
:1022780000017611D8B42CD0010E0001796F06D078
:102288000001D890753776370001792B000176AFB9
:10229800F7D70001D89077377837000175510001DA
:1022A800735D0001765100017459D8A00AD000016D
:1022B80075510001735F000176510001745B0001E4
:1022C80077810001D890763375330001792FE1D7F3
:1022D80077C073F078C074F01200000E00017B6FB5
:1022E800000E7C6F000E7D6F000E7E6F000173A1E3
:1022F80010D00001775100017B27000178510001BF
:102308007C230001795100017D2300017A510001ED
:102318007E230001D8907737783779377A370001EC
:10232800D8907633753374337333000173510001D9
:1023380074110001751100017611D8A4D7D77BC09C
:1023480073F07CC074F07DC075F07EC076F012002A
:1023580000EE91F0280EEE6AE806FDE14B6A00EE09
:1023680001F0260EEE6AE806FDE1FC0EF66E250E7B
:10237800F76E000EF86E00EEB9F010EE09F00900E5
:10238800F5CFEEFFE550E150FAE1050EF66E260EA8
:10239800F76E000EF86E00EE45F010EE06F009003C
:1023A800F5CFEEFFE550E150FAE14C904C92000E6B
:1023B800F86E00013BEF0FF0000E326E000E316E2A
:1023C8002F503010D8B41CD0010E336E04D0D890E2
:1023D8002F363036332A30AEFAD7D89031363236E7
:1023E8002F502D5C30502E58D8A005D02F502D5E80
:1023F80030502E5A3180D89030322F32332EEDD7CC
:1024080031C02DF032C02EF0120006EC13F0ECECC7
:1024180012F00009D8A4FBD7DAEC12F073C0ADF0C3
:1024280074C0AEF0010E0001AD250001736FFE0E01
:102438000001AE210001746F000E0001766F2D0EB1
:10244800756F35EC11F073C011F074C012F0120002
:10245800B2EC12F00009D8B412004BA216D0A5C0F5
:1024680073F0A6C074F0A7C075F0A8C076F0B10EDE
:102478000001776F000E0001786F080E0001796F78
:10248800BC0E00017A6F3DEC06F04B921200B9C009
:1024980073F00001746B79C075F07AC076F084EC43
:1024A80012F073C0AFF074C0B0F007D0500EE82E31
:1024B800FED70001AF07D8A0B0070001AF51000157
:1024C800B011D8B41200F2D7B9C027F0286A2DC0CD
:1024D80029F02EC02AF09FEC12F027C0AFF028C0D8
:1024E800B0F007D0500EE82EFED70001AF07D8A0F5
:1024F800B0070001AF510001B011D8B41200F2D7F3
:102508000001735100017503F3CF77F0F4CF78F031
:102518000001735100017603F35000017827000190
:10252800745100017503F3500001782777C073F0E8
:1025380078C074F0120027502902F3CF2BF0F4CFA3
:102548002CF027502A02F3502C2628502902F35049
:102558002C262BC027F02CC028F01200010E0001F9
:10256800736F0F0140A709D00F0130A706D00F01E4
:1025780020A703D0000E0001736F000173511200F1
:102588000001736F73C06FFF6E50E00B0001731989
:10259800D8B41200F9D7010E276E60BE05D00F011E
:1025A80050BF02D0000E276E27501200C450000101
:1025B800756FC3500001736F75C074F0120060C06E
:1025C80062F061C063F063C0D7FF62C0D6FF12003B
:1025D800C2A202D0010E1200000E120074A402D092
:1025E800010E1200000E120074A202D0010E120099
:1025F800000E12001400000000000001057800021F
:0826080000B40100C2821200BF
:020000040020DA
:08000000FFFFFFFFFFFFFFFF00
:020000040030CA
:0E000000FF021F1EFF8281FF0FC00FE00F40A6
:00000001FF
